{
  "_format": "hh-sol-artifact-1",
  "contractName": "NFTAttack",
  "sourceName": "contracts/NFTAttack.sol",
  "abi": [
    {
      "inputs": [
        {
          "internalType": "address",
          "name": "_airnodeRrp",
          "type": "address"
        },
        {
          "internalType": "string[]",
          "name": "characterNames",
          "type": "string[]"
        },
        {
          "internalType": "string[]",
          "name": "characterImageURIs",
          "type": "string[]"
        },
        {
          "internalType": "uint256[]",
          "name": "characterHp",
          "type": "uint256[]"
        },
        {
          "internalType": "uint256[]",
          "name": "characterAttack",
          "type": "uint256[]"
        },
        {
          "internalType": "uint256[]",
          "name": "characterDefense",
          "type": "uint256[]"
        },
        {
          "internalType": "uint256[]",
          "name": "characterEvade",
          "type": "uint256[]"
        }
      ],
      "stateMutability": "nonpayable",
      "type": "constructor"
    },
    {
      "inputs": [],
      "name": "AlreadyHasNFT",
      "type": "error"
    },
    {
      "inputs": [],
      "name": "EnemyNeedsNFT",
      "type": "error"
    },
    {
      "inputs": [],
      "name": "GameHasAlreadyStarted",
      "type": "error"
    },
    {
      "inputs": [],
      "name": "GameHasEnded",
      "type": "error"
    },
    {
      "inputs": [],
      "name": "GameHasNotEnded",
      "type": "error"
    },
    {
      "inputs": [],
      "name": "GameHasNotStarted",
      "type": "error"
    },
    {
      "inputs": [],
      "name": "IncorrectEtherValue",
      "type": "error"
    },
    {
      "inputs": [],
      "name": "MintWindowPassed",
      "type": "error"
    },
    {
      "inputs": [],
      "name": "Paused",
      "type": "error"
    },
    {
      "inputs": [],
      "name": "YouNeedAnNFT",
      "type": "error"
    },
    {
      "anonymous": false,
      "inputs": [
        {
          "indexed": true,
          "internalType": "address",
          "name": "owner",
          "type": "address"
        },
        {
          "indexed": true,
          "internalType": "address",
          "name": "approved",
          "type": "address"
        },
        {
          "indexed": true,
          "internalType": "uint256",
          "name": "tokenId",
          "type": "uint256"
        }
      ],
      "name": "Approval",
      "type": "event"
    },
    {
      "anonymous": false,
      "inputs": [
        {
          "indexed": true,
          "internalType": "address",
          "name": "owner",
          "type": "address"
        },
        {
          "indexed": true,
          "internalType": "address",
          "name": "operator",
          "type": "address"
        },
        {
          "indexed": false,
          "internalType": "bool",
          "name": "approved",
          "type": "bool"
        }
      ],
      "name": "ApprovalForAll",
      "type": "event"
    },
    {
      "anonymous": false,
      "inputs": [
        {
          "indexed": false,
          "internalType": "uint256",
          "name": "atkAmount",
          "type": "uint256"
        },
        {
          "indexed": false,
          "internalType": "uint256",
          "name": "playerHp",
          "type": "uint256"
        }
      ],
      "name": "AttackComplete",
      "type": "event"
    },
    {
      "anonymous": false,
      "inputs": [
        {
          "indexed": false,
          "internalType": "address",
          "name": "sender",
          "type": "address"
        },
        {
          "indexed": false,
          "internalType": "uint256",
          "name": "tokenId",
          "type": "uint256"
        },
        {
          "indexed": false,
          "internalType": "uint256",
          "name": "characterIndex",
          "type": "uint256"
        }
      ],
      "name": "CharacterNFTMinted",
      "type": "event"
    },
    {
      "anonymous": false,
      "inputs": [
        {
          "indexed": false,
          "internalType": "address",
          "name": "attacker",
          "type": "address"
        },
        {
          "indexed": false,
          "internalType": "address",
          "name": "victim",
          "type": "address"
        }
      ],
      "name": "MissedAttack",
      "type": "event"
    },
    {
      "anonymous": false,
      "inputs": [
        {
          "indexed": false,
          "internalType": "address",
          "name": "victim",
          "type": "address"
        },
        {
          "indexed": false,
          "internalType": "uint256",
          "name": "tokenId",
          "type": "uint256"
        },
        {
          "indexed": false,
          "internalType": "address",
          "name": "attacker",
          "type": "address"
        }
      ],
      "name": "NFTBurned",
      "type": "event"
    },
    {
      "anonymous": false,
      "inputs": [
        {
          "indexed": true,
          "internalType": "address",
          "name": "previousOwner",
          "type": "address"
        },
        {
          "indexed": true,
          "internalType": "address",
          "name": "newOwner",
          "type": "address"
        }
      ],
      "name": "OwnershipTransferred",
      "type": "event"
    },
    {
      "anonymous": false,
      "inputs": [
        {
          "indexed": true,
          "internalType": "bytes32",
          "name": "requestId",
          "type": "bytes32"
        },
        {
          "indexed": false,
          "internalType": "uint256",
          "name": "response",
          "type": "uint256"
        }
      ],
      "name": "ReceivedUint256",
      "type": "event"
    },
    {
      "anonymous": false,
      "inputs": [
        {
          "indexed": true,
          "internalType": "bytes32",
          "name": "requestId",
          "type": "bytes32"
        }
      ],
      "name": "RequestUint256",
      "type": "event"
    },
    {
      "anonymous": false,
      "inputs": [
        {
          "indexed": false,
          "internalType": "address",
          "name": "attacker",
          "type": "address"
        },
        {
          "indexed": false,
          "internalType": "address",
          "name": "victim",
          "type": "address"
        },
        {
          "indexed": false,
          "internalType": "uint256",
          "name": "damageAmount",
          "type": "uint256"
        },
        {
          "indexed": false,
          "internalType": "uint256",
          "name": "victimHp",
          "type": "uint256"
        }
      ],
      "name": "SuccessfulAttack",
      "type": "event"
    },
    {
      "anonymous": false,
      "inputs": [
        {
          "indexed": true,
          "internalType": "address",
          "name": "from",
          "type": "address"
        },
        {
          "indexed": true,
          "internalType": "address",
          "name": "to",
          "type": "address"
        },
        {
          "indexed": true,
          "internalType": "uint256",
          "name": "tokenId",
          "type": "uint256"
        }
      ],
      "name": "Transfer",
      "type": "event"
    },
    {
      "inputs": [],
      "name": "BASE_EVADE_RATE",
      "outputs": [
        {
          "internalType": "uint256",
          "name": "",
          "type": "uint256"
        }
      ],
      "stateMutability": "view",
      "type": "function"
    },
    {
      "inputs": [],
      "name": "BLAST",
      "outputs": [
        {
          "internalType": "contract IBlast",
          "name": "",
          "type": "address"
        }
      ],
      "stateMutability": "view",
      "type": "function"
    },
    {
      "inputs": [],
      "name": "MAX_ATTACKS",
      "outputs": [
        {
          "internalType": "uint256",
          "name": "",
          "type": "uint256"
        }
      ],
      "stateMutability": "view",
      "type": "function"
    },
    {
      "inputs": [],
      "name": "MAX_SHOTS_TAKEN",
      "outputs": [
        {
          "internalType": "uint256",
          "name": "",
          "type": "uint256"
        }
      ],
      "stateMutability": "view",
      "type": "function"
    },
    {
      "inputs": [],
      "name": "MINT_WINDOW",
      "outputs": [
        {
          "internalType": "uint256",
          "name": "",
          "type": "uint256"
        }
      ],
      "stateMutability": "view",
      "type": "function"
    },
    {
      "inputs": [],
      "name": "TOTAL_TIME",
      "outputs": [
        {
          "internalType": "uint256",
          "name": "",
          "type": "uint256"
        }
      ],
      "stateMutability": "view",
      "type": "function"
    },
    {
      "inputs": [
        {
          "internalType": "string",
          "name": "_name",
          "type": "string"
        },
        {
          "internalType": "string",
          "name": "_imageURI",
          "type": "string"
        },
        {
          "internalType": "uint256",
          "name": "_hp",
          "type": "uint256"
        },
        {
          "internalType": "uint256",
          "name": "_attack",
          "type": "uint256"
        },
        {
          "internalType": "uint256",
          "name": "_defense",
          "type": "uint256"
        },
        {
          "internalType": "uint256",
          "name": "_evade",
          "type": "uint256"
        }
      ],
      "name": "addCharacter",
      "outputs": [],
      "stateMutability": "nonpayable",
      "type": "function"
    },
    {
      "inputs": [],
      "name": "airnode",
      "outputs": [
        {
          "internalType": "address",
          "name": "",
          "type": "address"
        }
      ],
      "stateMutability": "view",
      "type": "function"
    },
    {
      "inputs": [],
      "name": "airnodeRrp",
      "outputs": [
        {
          "internalType": "contract IAirnodeRrpV0",
          "name": "",
          "type": "address"
        }
      ],
      "stateMutability": "view",
      "type": "function"
    },
    {
      "inputs": [
        {
          "internalType": "address",
          "name": "to",
          "type": "address"
        },
        {
          "internalType": "uint256",
          "name": "tokenId",
          "type": "uint256"
        }
      ],
      "name": "approve",
      "outputs": [],
      "stateMutability": "nonpayable",
      "type": "function"
    },
    {
      "inputs": [
        {
          "internalType": "uint256",
          "name": "",
          "type": "uint256"
        },
        {
          "internalType": "uint256",
          "name": "",
          "type": "uint256"
        }
      ],
      "name": "attacksSentDaily",
      "outputs": [
        {
          "internalType": "uint256",
          "name": "",
          "type": "uint256"
        }
      ],
      "stateMutability": "view",
      "type": "function"
    },
    {
      "inputs": [
        {
          "internalType": "address",
          "name": "owner",
          "type": "address"
        }
      ],
      "name": "balanceOf",
      "outputs": [
        {
          "internalType": "uint256",
          "name": "",
          "type": "uint256"
        }
      ],
      "stateMutability": "view",
      "type": "function"
    },
    {
      "inputs": [
        {
          "internalType": "address",
          "name": "_holder",
          "type": "address"
        }
      ],
      "name": "checkIfTargetHasNFT",
      "outputs": [
        {
          "internalType": "bool",
          "name": "",
          "type": "bool"
        }
      ],
      "stateMutability": "view",
      "type": "function"
    },
    {
      "inputs": [
        {
          "internalType": "address",
          "name": "_holder",
          "type": "address"
        }
      ],
      "name": "checkIfUserNFT",
      "outputs": [
        {
          "components": [
            {
              "internalType": "uint256",
              "name": "characterIndex",
              "type": "uint256"
            },
            {
              "internalType": "string",
              "name": "name",
              "type": "string"
            },
            {
              "internalType": "string",
              "name": "imageURI",
              "type": "string"
            },
            {
              "internalType": "uint256",
              "name": "hp",
              "type": "uint256"
            },
            {
              "internalType": "uint256",
              "name": "maxHp",
              "type": "uint256"
            },
            {
              "internalType": "uint256",
              "name": "attackDamage",
              "type": "uint256"
            },
            {
              "internalType": "uint256",
              "name": "defense",
              "type": "uint256"
            },
            {
              "internalType": "uint256",
              "name": "evade",
              "type": "uint256"
            }
          ],
          "internalType": "struct SnowDay.CharacterAttributes",
          "name": "",
          "type": "tuple"
        }
      ],
      "stateMutability": "view",
      "type": "function"
    },
    {
      "inputs": [],
      "name": "claimGasUsedByContract",
      "outputs": [],
      "stateMutability": "nonpayable",
      "type": "function"
    },
    {
      "inputs": [],
      "name": "claimMyContractsGas",
      "outputs": [],
      "stateMutability": "nonpayable",
      "type": "function"
    },
    {
      "inputs": [],
      "name": "claimYourPrize",
      "outputs": [],
      "stateMutability": "nonpayable",
      "type": "function"
    },
    {
      "inputs": [
        {
          "internalType": "address",
          "name": "",
          "type": "address"
        },
        {
          "internalType": "uint256",
          "name": "",
          "type": "uint256"
        }
      ],
      "name": "dailyAttacksReceived",
      "outputs": [
        {
          "internalType": "uint256",
          "name": "",
          "type": "uint256"
        }
      ],
      "stateMutability": "view",
      "type": "function"
    },
    {
      "inputs": [],
      "name": "endGame",
      "outputs": [],
      "stateMutability": "nonpayable",
      "type": "function"
    },
    {
      "inputs": [],
      "name": "endpointIdUint256",
      "outputs": [
        {
          "internalType": "bytes32",
          "name": "",
          "type": "bytes32"
        }
      ],
      "stateMutability": "view",
      "type": "function"
    },
    {
      "inputs": [
        {
          "internalType": "uint256",
          "name": "_characterIndex",
          "type": "uint256"
        }
      ],
      "name": "enterTheArena",
      "outputs": [],
      "stateMutability": "payable",
      "type": "function"
    },
    {
      "inputs": [
        {
          "internalType": "bytes32",
          "name": "",
          "type": "bytes32"
        }
      ],
      "name": "expectingRequestWithIdToBeFulfilled",
      "outputs": [
        {
          "internalType": "bool",
          "name": "",
          "type": "bool"
        }
      ],
      "stateMutability": "view",
      "type": "function"
    },
    {
      "inputs": [
        {
          "internalType": "bytes32",
          "name": "requestId",
          "type": "bytes32"
        },
        {
          "internalType": "bytes",
          "name": "data",
          "type": "bytes"
        }
      ],
      "name": "fulfillUint256",
      "outputs": [],
      "stateMutability": "nonpayable",
      "type": "function"
    },
    {
      "inputs": [],
      "name": "gameInProgress",
      "outputs": [
        {
          "internalType": "bool",
          "name": "",
          "type": "bool"
        }
      ],
      "stateMutability": "view",
      "type": "function"
    },
    {
      "inputs": [],
      "name": "getAllDefaultCharacters",
      "outputs": [
        {
          "components": [
            {
              "internalType": "uint256",
              "name": "characterIndex",
              "type": "uint256"
            },
            {
              "internalType": "string",
              "name": "name",
              "type": "string"
            },
            {
              "internalType": "string",
              "name": "imageURI",
              "type": "string"
            },
            {
              "internalType": "uint256",
              "name": "hp",
              "type": "uint256"
            },
            {
              "internalType": "uint256",
              "name": "maxHp",
              "type": "uint256"
            },
            {
              "internalType": "uint256",
              "name": "attackDamage",
              "type": "uint256"
            },
            {
              "internalType": "uint256",
              "name": "defense",
              "type": "uint256"
            },
            {
              "internalType": "uint256",
              "name": "evade",
              "type": "uint256"
            }
          ],
          "internalType": "struct SnowDay.CharacterAttributes[]",
          "name": "",
          "type": "tuple[]"
        }
      ],
      "stateMutability": "view",
      "type": "function"
    },
    {
      "inputs": [
        {
          "internalType": "uint256",
          "name": "tokenId",
          "type": "uint256"
        }
      ],
      "name": "getApproved",
      "outputs": [
        {
          "internalType": "address",
          "name": "",
          "type": "address"
        }
      ],
      "stateMutability": "view",
      "type": "function"
    },
    {
      "inputs": [
        {
          "internalType": "uint256",
          "name": "_tokenId",
          "type": "uint256"
        }
      ],
      "name": "getCharacterHp",
      "outputs": [
        {
          "internalType": "uint256",
          "name": "",
          "type": "uint256"
        }
      ],
      "stateMutability": "view",
      "type": "function"
    },
    {
      "inputs": [
        {
          "internalType": "uint256",
          "name": "_tokenId",
          "type": "uint256"
        }
      ],
      "name": "getCharacterStats",
      "outputs": [
        {
          "components": [
            {
              "internalType": "uint256",
              "name": "characterIndex",
              "type": "uint256"
            },
            {
              "internalType": "string",
              "name": "name",
              "type": "string"
            },
            {
              "internalType": "string",
              "name": "imageURI",
              "type": "string"
            },
            {
              "internalType": "uint256",
              "name": "hp",
              "type": "uint256"
            },
            {
              "internalType": "uint256",
              "name": "maxHp",
              "type": "uint256"
            },
            {
              "internalType": "uint256",
              "name": "attackDamage",
              "type": "uint256"
            },
            {
              "internalType": "uint256",
              "name": "defense",
              "type": "uint256"
            },
            {
              "internalType": "uint256",
              "name": "evade",
              "type": "uint256"
            }
          ],
          "internalType": "struct SnowDay.CharacterAttributes",
          "name": "",
          "type": "tuple"
        }
      ],
      "stateMutability": "view",
      "type": "function"
    },
    {
      "inputs": [],
      "name": "getCurrentDay",
      "outputs": [
        {
          "internalType": "uint256",
          "name": "",
          "type": "uint256"
        }
      ],
      "stateMutability": "view",
      "type": "function"
    },
    {
      "inputs": [],
      "name": "getYieldOnContract",
      "outputs": [
        {
          "internalType": "uint256",
          "name": "",
          "type": "uint256"
        }
      ],
      "stateMutability": "view",
      "type": "function"
    },
    {
      "inputs": [
        {
          "internalType": "address",
          "name": "owner",
          "type": "address"
        },
        {
          "internalType": "address",
          "name": "operator",
          "type": "address"
        }
      ],
      "name": "isApprovedForAll",
      "outputs": [
        {
          "internalType": "bool",
          "name": "",
          "type": "bool"
        }
      ],
      "stateMutability": "view",
      "type": "function"
    },
    {
      "inputs": [],
      "name": "isGamePaused",
      "outputs": [
        {
          "internalType": "bool",
          "name": "",
          "type": "bool"
        }
      ],
      "stateMutability": "view",
      "type": "function"
    },
    {
      "inputs": [],
      "name": "name",
      "outputs": [
        {
          "internalType": "string",
          "name": "",
          "type": "string"
        }
      ],
      "stateMutability": "view",
      "type": "function"
    },
    {
      "inputs": [],
      "name": "nextTokenId",
      "outputs": [
        {
          "internalType": "uint256",
          "name": "",
          "type": "uint256"
        }
      ],
      "stateMutability": "view",
      "type": "function"
    },
    {
      "inputs": [
        {
          "internalType": "uint256",
          "name": "",
          "type": "uint256"
        }
      ],
      "name": "nftHolderAttributes",
      "outputs": [
        {
          "internalType": "uint256",
          "name": "characterIndex",
          "type": "uint256"
        },
        {
          "internalType": "string",
          "name": "name",
          "type": "string"
        },
        {
          "internalType": "string",
          "name": "imageURI",
          "type": "string"
        },
        {
          "internalType": "uint256",
          "name": "hp",
          "type": "uint256"
        },
        {
          "internalType": "uint256",
          "name": "maxHp",
          "type": "uint256"
        },
        {
          "internalType": "uint256",
          "name": "attackDamage",
          "type": "uint256"
        },
        {
          "internalType": "uint256",
          "name": "defense",
          "type": "uint256"
        },
        {
          "internalType": "uint256",
          "name": "evade",
          "type": "uint256"
        }
      ],
      "stateMutability": "view",
      "type": "function"
    },
    {
      "inputs": [
        {
          "internalType": "address",
          "name": "",
          "type": "address"
        }
      ],
      "name": "nftHolders",
      "outputs": [
        {
          "internalType": "uint256",
          "name": "",
          "type": "uint256"
        }
      ],
      "stateMutability": "view",
      "type": "function"
    },
    {
      "inputs": [],
      "name": "owner",
      "outputs": [
        {
          "internalType": "address",
          "name": "",
          "type": "address"
        }
      ],
      "stateMutability": "view",
      "type": "function"
    },
    {
      "inputs": [
        {
          "internalType": "uint256",
          "name": "tokenId",
          "type": "uint256"
        }
      ],
      "name": "ownerOf",
      "outputs": [
        {
          "internalType": "address",
          "name": "",
          "type": "address"
        }
      ],
      "stateMutability": "view",
      "type": "function"
    },
    {
      "inputs": [],
      "name": "pauseGameToggle",
      "outputs": [],
      "stateMutability": "nonpayable",
      "type": "function"
    },
    {
      "inputs": [],
      "name": "priceOfNFTEscrow",
      "outputs": [
        {
          "internalType": "uint256",
          "name": "",
          "type": "uint256"
        }
      ],
      "stateMutability": "view",
      "type": "function"
    },
    {
      "inputs": [],
      "name": "randomInRange",
      "outputs": [
        {
          "internalType": "uint256",
          "name": "",
          "type": "uint256"
        }
      ],
      "stateMutability": "view",
      "type": "function"
    },
    {
      "inputs": [],
      "name": "renounceOwnership",
      "outputs": [],
      "stateMutability": "nonpayable",
      "type": "function"
    },
    {
      "inputs": [
        {
          "internalType": "address",
          "name": "from",
          "type": "address"
        },
        {
          "internalType": "address",
          "name": "to",
          "type": "address"
        },
        {
          "internalType": "uint256",
          "name": "tokenId",
          "type": "uint256"
        }
      ],
      "name": "safeTransferFrom",
      "outputs": [],
      "stateMutability": "nonpayable",
      "type": "function"
    },
    {
      "inputs": [
        {
          "internalType": "address",
          "name": "from",
          "type": "address"
        },
        {
          "internalType": "address",
          "name": "to",
          "type": "address"
        },
        {
          "internalType": "uint256",
          "name": "tokenId",
          "type": "uint256"
        },
        {
          "internalType": "bytes",
          "name": "data",
          "type": "bytes"
        }
      ],
      "name": "safeTransferFrom",
      "outputs": [],
      "stateMutability": "nonpayable",
      "type": "function"
    },
    {
      "inputs": [
        {
          "internalType": "address",
          "name": "operator",
          "type": "address"
        },
        {
          "internalType": "bool",
          "name": "approved",
          "type": "bool"
        }
      ],
      "name": "setApprovalForAll",
      "outputs": [],
      "stateMutability": "nonpayable",
      "type": "function"
    },
    {
      "inputs": [
        {
          "internalType": "address",
          "name": "_airnode",
          "type": "address"
        },
        {
          "internalType": "bytes32",
          "name": "_endpointIdUint256",
          "type": "bytes32"
        },
        {
          "internalType": "address",
          "name": "_sponsorWallet",
          "type": "address"
        }
      ],
      "name": "setRequestParameters",
      "outputs": [],
      "stateMutability": "nonpayable",
      "type": "function"
    },
    {
      "inputs": [],
      "name": "sponsorWallet",
      "outputs": [
        {
          "internalType": "address",
          "name": "",
          "type": "address"
        }
      ],
      "stateMutability": "view",
      "type": "function"
    },
    {
      "inputs": [],
      "name": "startGame",
      "outputs": [],
      "stateMutability": "nonpayable",
      "type": "function"
    },
    {
      "inputs": [
        {
          "internalType": "bytes4",
          "name": "interfaceId",
          "type": "bytes4"
        }
      ],
      "name": "supportsInterface",
      "outputs": [
        {
          "internalType": "bool",
          "name": "",
          "type": "bool"
        }
      ],
      "stateMutability": "view",
      "type": "function"
    },
    {
      "inputs": [],
      "name": "symbol",
      "outputs": [
        {
          "internalType": "string",
          "name": "",
          "type": "string"
        }
      ],
      "stateMutability": "view",
      "type": "function"
    },
    {
      "inputs": [
        {
          "internalType": "address",
          "name": "_victim",
          "type": "address"
        }
      ],
      "name": "throwSnowball",
      "outputs": [],
      "stateMutability": "nonpayable",
      "type": "function"
    },
    {
      "inputs": [
        {
          "internalType": "uint256",
          "name": "_tokenId",
          "type": "uint256"
        }
      ],
      "name": "tokenURI",
      "outputs": [
        {
          "internalType": "string",
          "name": "",
          "type": "string"
        }
      ],
      "stateMutability": "view",
      "type": "function"
    },
    {
      "inputs": [],
      "name": "totalNFTsLeft",
      "outputs": [
        {
          "internalType": "uint256",
          "name": "",
          "type": "uint256"
        }
      ],
      "stateMutability": "view",
      "type": "function"
    },
    {
      "inputs": [
        {
          "internalType": "address",
          "name": "from",
          "type": "address"
        },
        {
          "internalType": "address",
          "name": "to",
          "type": "address"
        },
        {
          "internalType": "uint256",
          "name": "tokenId",
          "type": "uint256"
        }
      ],
      "name": "transferFrom",
      "outputs": [],
      "stateMutability": "nonpayable",
      "type": "function"
    },
    {
      "inputs": [
        {
          "internalType": "address",
          "name": "newOwner",
          "type": "address"
        }
      ],
      "name": "transferOwnership",
      "outputs": [],
      "stateMutability": "nonpayable",
      "type": "function"
    },
    {
      "inputs": [
        {
          "internalType": "uint256",
          "name": "_characterIndex",
          "type": "uint256"
        },
        {
          "internalType": "uint256",
          "name": "_newAttack",
          "type": "uint256"
        }
      ],
      "name": "updateCharacterAttack",
      "outputs": [],
      "stateMutability": "nonpayable",
      "type": "function"
    },
    {
      "inputs": [
        {
          "internalType": "uint256",
          "name": "_characterIndex",
          "type": "uint256"
        },
        {
          "internalType": "uint256",
          "name": "_newDefense",
          "type": "uint256"
        }
      ],
      "name": "updateCharacterDefense",
      "outputs": [],
      "stateMutability": "nonpayable",
      "type": "function"
    },
    {
      "inputs": [
        {
          "internalType": "uint256",
          "name": "_characterIndex",
          "type": "uint256"
        },
        {
          "internalType": "uint256",
          "name": "_newEvade",
          "type": "uint256"
        }
      ],
      "name": "updateCharacterEvade",
      "outputs": [],
      "stateMutability": "nonpayable",
      "type": "function"
    },
    {
      "inputs": [
        {
          "internalType": "uint256",
          "name": "_characterIndex",
          "type": "uint256"
        },
        {
          "internalType": "uint256",
          "name": "_newHp",
          "type": "uint256"
        }
      ],
      "name": "updateCharacterHp",
      "outputs": [],
      "stateMutability": "nonpayable",
      "type": "function"
    },
    {
      "inputs": [
        {
          "internalType": "uint256",
          "name": "_characterIndex",
          "type": "uint256"
        },
        {
          "internalType": "string",
          "name": "_newImageURI",
          "type": "string"
        }
      ],
      "name": "updateCharacterImageURI",
      "outputs": [],
      "stateMutability": "nonpayable",
      "type": "function"
    },
    {
      "inputs": [
        {
          "internalType": "uint256",
          "name": "_characterIndex",
          "type": "uint256"
        },
        {
          "internalType": "string",
          "name": "_newName",
          "type": "string"
        }
      ],
      "name": "updateCharacterName",
      "outputs": [],
      "stateMutability": "nonpayable",
      "type": "function"
    },
    {
      "inputs": [],
      "name": "winners",
      "outputs": [
        {
          "internalType": "uint256",
          "name": "",
          "type": "uint256"
        }
      ],
      "stateMutability": "view",
      "type": "function"
    },
    {
      "inputs": [],
      "name": "withdrawContractFunds",
      "outputs": [],
      "stateMutability": "nonpayable",
      "type": "function"
    },
    {
      "inputs": [],
      "name": "withdrawSponsorWalletFunds",
      "outputs": [],
      "stateMutability": "nonpayable",
      "type": "function"
    },
    {
      "inputs": [],
      "name": "yieldCollected",
      "outputs": [
        {
          "internalType": "uint256",
          "name": "",
          "type": "uint256"
        }
      ],
      "stateMutability": "view",
      "type": "function"
    },
    {
      "stateMutability": "payable",
      "type": "receive"
    }
  ],
  "bytecode": "0x60a06040526001600755600b805461ffff1916905566b1a2bc2ec50000600f553480156200002c57600080fd5b5060405162004b6038038062004b608339810160408190526200004f9162000652565b85858585858560405180604001604052806007815260200166536e6f7764617960c81b81525060405180604001604052806004815260200163534e4f5760e01b8152508e806001600160a01b03166080816001600160a01b031681525050806001600160a01b031663addf027c3060016040518363ffffffff1660e01b8152600401620000f39291906001600160a01b039290921682521515602082015260400190565b600060405180830381600087803b1580156200010e57600080fd5b505af115801562000123573d6000803e3d6000fd5b50505050508160009081620001399190620007fd565b506001620001488282620007fd565b505050620001656200015f620003f260201b60201c565b620003f6565b60005b86518110156200030c57600c6040518061010001604052808381526020018984815181106200019b576200019b620008c9565b60200260200101518152602001888481518110620001bd57620001bd620008c9565b60200260200101518152602001878481518110620001df57620001df620008c9565b60200260200101518152602001878481518110620002015762000201620008c9565b60200260200101518152602001868481518110620002235762000223620008c9565b60200260200101518152602001858481518110620002455762000245620008c9565b60200260200101518152602001848481518110620002675762000267620008c9565b6020908102919091018101519091528254600181810185556000948552938290208351600890920201908155908201519192909190820190620002ab9082620007fd565b5060408201516002820190620002c29082620007fd565b50606082015160038201556080820151600482015560a0820151600582015560c0820151600682015560e09091015160079091015562000304600182620008df565b905062000168565b505050505050507343000000000000000000000000000000000000026001600160a01b031663f098767a6040518163ffffffff1660e01b8152600401600060405180830381600087803b1580156200036357600080fd5b505af115801562000378573d6000803e3d6000fd5b505050507343000000000000000000000000000000000000026001600160a01b0316634e606c476040518163ffffffff1660e01b8152600401600060405180830381600087803b158015620003cc57600080fd5b505af1158015620003e1573d6000803e3d6000fd5b505050505050505050505062000907565b3390565b600680546001600160a01b038381166001600160a01b0319831681179093556040519116919082907f8be0079c531659141344cd1fd0a4f28419497f9722a3daafe3b4186f6b6457e090600090a35050565b80516001600160a01b03811681146200046057600080fd5b919050565b634e487b7160e01b600052604160045260246000fd5b604051601f8201601f191681016001600160401b0381118282101715620004a657620004a662000465565b604052919050565b60006001600160401b03821115620004ca57620004ca62000465565b5060051b60200190565b6000601f8381840112620004e757600080fd5b8251602062000500620004fa83620004ae565b6200047b565b82815260059290921b850181019181810190878411156200052057600080fd5b8287015b84811015620005d95780516001600160401b0380821115620005465760008081fd5b818a0191508a603f8301126200055c5760008081fd5b858201518181111562000573576200057362000465565b62000586818a01601f191688016200047b565b915080825260408c81838601011115620005a05760008081fd5b60005b82811015620005c0578481018201518482018a01528801620005a3565b5050600090820187015284525091830191830162000524565b50979650505050505050565b600082601f830112620005f757600080fd5b815160206200060a620004fa83620004ae565b82815260059290921b840181019181810190868411156200062a57600080fd5b8286015b848110156200064757805183529183019183016200062e565b509695505050505050565b600080600080600080600060e0888a0312156200066e57600080fd5b620006798862000448565b60208901519097506001600160401b03808211156200069757600080fd5b620006a58b838c01620004d4565b975060408a0151915080821115620006bc57600080fd5b620006ca8b838c01620004d4565b965060608a0151915080821115620006e157600080fd5b620006ef8b838c01620005e5565b955060808a01519150808211156200070657600080fd5b620007148b838c01620005e5565b945060a08a01519150808211156200072b57600080fd5b620007398b838c01620005e5565b935060c08a01519150808211156200075057600080fd5b506200075f8a828b01620005e5565b91505092959891949750929550565b600181811c908216806200078357607f821691505b602082108103620007a457634e487b7160e01b600052602260045260246000fd5b50919050565b601f821115620007f857600081815260208120601f850160051c81016020861015620007d35750805b601f850160051c820191505b81811015620007f457828155600101620007df565b5050505b505050565b81516001600160401b0381111562000819576200081962000465565b62000831816200082a84546200076e565b84620007aa565b602080601f831160018114620008695760008415620008505750858301515b600019600386901b1c1916600185901b178555620007f4565b600085815260208120601f198616915b828110156200089a5788860151825594840194600190910190840162000879565b5085821015620008b95787850151600019600388901b60f8161c191681555b5050505050600190811b01905550565b634e487b7160e01b600052603260045260246000fd5b808201808211156200090157634e487b7160e01b600052601160045260246000fd5b92915050565b608051614228620009386000396000818161077201528181610fdc0152818161174a0152612dd501526142286000f3fe6080604052600436106103d25760003560e01c80637bdf2525116101fd578063ab4aaff811610118578063cb008862116100ab578063e5b401c21161007a578063e5b401c214610b05578063e985e9c514610b1a578063ee0702ac14610b3a578063f2fde38b14610b5a578063f83dd6ae14610b7a57600080fd5b8063cb00886214610a9b578063cdb489b014610ab0578063d65ab5f214610ad0578063d8850e1714610ae557600080fd5b8063baabd046116100e7578063baabd04614610a24578063bf90fb4e14610a44578063c6725aea14610a64578063c87b56dd14610a7b57600080fd5b8063ab4aaff8146109c2578063b36303fe1461069c578063b88d4fde146109e2578063b953084e14610a0257600080fd5b806397d7577611610190578063a22cb4651161015f578063a22cb46514610957578063a36ff4d814610977578063a487bcd814610997578063aa02b377146109ad57600080fd5b806397d75776146108df5780639868f01e146108fa5780639890ecd91461091057806398da4c951461092357600080fd5b8063851244f7116101cc578063851244f71461084c578063875eee291461087c5780638da5cb5b146108ac57806395d89b41146108ca57600080fd5b80637bdf2525146107ca5780637db9b5cf146107ea5780637df124a1146107ff5780638397671d1461082c57600080fd5b80634fc44667116102ed5780636fc954ad1161028057806371bab6661161024f57806371bab6661461076057806375794a3c1461079457806375bfffa4146107aa57806377d5d2dc146104ed57600080fd5b80636fc954ad146106c65780636fe0c046146106fe57806370a082311461072b578063715018a61461074b57600080fd5b80636352211e116102bc5780636352211e1461065c578063669c73f91461067c5780636b10fe631461069c5780636cbc2ded146106b157600080fd5b80634fc44667146105d85780635a0b5404146106105780635ca27577146106265780635fc9a6ff1461064657600080fd5b80631cdda0ef116103655780633718d90a116103345780633718d90a146105645780633e6968b6146105845780633fb64e751461059957806342842e0e146105b857600080fd5b80631cdda0ef14610502578063210094231461051857806322ae81af1461052d57806323b872dd1461054457600080fd5b8063081812fc116103a1578063081812fc14610473578063095ea7b3146104ab5780631929829a146104cd5780631b580132146104ed57600080fd5b806301ffc9a7146103de5780630422ddf31461041357806306fdde031461042d57806307b9fc571461044f57600080fd5b366103d957005b600080fd5b3480156103ea57600080fd5b506103fe6103f9366004613622565b610b8f565b60405190151581526020015b60405180910390f35b34801561041f57600080fd5b50600b546103fe9060ff1681565b34801561043957600080fd5b50610442610be1565b60405161040a919061368f565b34801561045b57600080fd5b5061046560115481565b60405190815260200161040a565b34801561047f57600080fd5b5061049361048e3660046136a2565b610c73565b6040516001600160a01b03909116815260200161040a565b3480156104b757600080fd5b506104cb6104c63660046136d2565b610c9a565b005b3480156104d957600080fd5b506104cb6104e83660046137a8565b610db4565b3480156104f957600080fd5b506104cb610ebe565b34801561050e57600080fd5b5061046560135481565b34801561052457600080fd5b506104cb610f38565b34801561053957600080fd5b506104656202a30081565b34801561055057600080fd5b506104cb61055f36600461382f565b610fa0565b34801561057057600080fd5b506104cb61057f36600461386b565b610fd1565b34801561059057600080fd5b50610465611145565b3480156105a557600080fd5b50600b546103fe90610100900460ff1681565b3480156105c457600080fd5b506104cb6105d336600461382f565b611159565b3480156105e457600080fd5b506104656105f33660046136d2565b601960209081526000928352604080842090915290825290205481565b34801561061c57600080fd5b5061046560165481565b34801561063257600080fd5b506104cb6106413660046138e7565b611174565b34801561065257600080fd5b5061046560145481565b34801561066857600080fd5b506104936106773660046136a2565b6111a9565b34801561068857600080fd5b506104cb610697366004613909565b611209565b3480156106a857600080fd5b50610465600381565b3480156106bd57600080fd5b506104cb611242565b3480156106d257600080fd5b506104656106e13660046138e7565b601a60209081526000928352604080842090915290825290205481565b34801561070a57600080fd5b5061071e6107193660046136a2565b6112f8565b60405161040a91906139c9565b34801561073757600080fd5b506104656107463660046139dc565b611486565b34801561075757600080fd5b506104cb61150c565b34801561076c57600080fd5b506104937f000000000000000000000000000000000000000000000000000000000000000081565b3480156107a057600080fd5b5061046560075481565b3480156107b657600080fd5b5061071e6107c53660046139dc565b61151e565b3480156107d657600080fd5b506104cb6107e53660046139f7565b6116e1565b3480156107f657600080fd5b506104cb61171d565b34801561080b57600080fd5b5061046561081a3660046139dc565b600e6020526000908152604090205481565b34801561083857600080fd5b506104cb6108473660046138e7565b6117aa565b34801561085857600080fd5b506103fe6108673660046136a2565b60176020526000908152604090205460ff1681565b34801561088857600080fd5b506104656108973660046136a2565b6000908152600d602052604090206003015490565b3480156108b857600080fd5b506006546001600160a01b0316610493565b3480156108d657600080fd5b506104426117df565b3480156108eb57600080fd5b506104936002604360981b0181565b34801561090657600080fd5b50610465600f5481565b6104cb61091e3660046136a2565b6117ee565b34801561092f57600080fd5b5061094361093e3660046136a2565b6118ce565b60405161040a989796959493929190613a33565b34801561096357600080fd5b506104cb610972366004613a8d565b611a1f565b34801561098357600080fd5b50601054610493906001600160a01b031681565b3480156109a357600080fd5b5061046560155481565b3480156109b957600080fd5b50610465611a2e565b3480156109ce57600080fd5b506104cb6109dd366004613909565b611a99565b3480156109ee57600080fd5b506104cb6109fd366004613ac9565b611ad2565b348015610a0e57600080fd5b50610a17611b04565b60405161040a9190613b45565b348015610a3057600080fd5b506104cb610a3f3660046139dc565b611cc4565b348015610a5057600080fd5b50601254610493906001600160a01b031681565b348015610a7057600080fd5b5061046562093a8081565b348015610a8757600080fd5b50610442610a963660046136a2565b611e0e565b348015610aa757600080fd5b506104cb612045565b348015610abc57600080fd5b506104cb610acb3660046138e7565b61213b565b348015610adc57600080fd5b506104cb612170565b348015610af157600080fd5b506104cb610b003660046138e7565b6121b7565b348015610b1157600080fd5b50610465603281565b348015610b2657600080fd5b506103fe610b35366004613ba7565b6121ec565b348015610b4657600080fd5b506103fe610b553660046139dc565b61221a565b348015610b6657600080fd5b506104cb610b753660046139dc565b612241565b348015610b8657600080fd5b506104cb6122b7565b60006001600160e01b031982166380ac58cd60e01b1480610bc057506001600160e01b03198216635b5e139f60e01b145b80610bdb57506301ffc9a760e01b6001600160e01b03198316145b92915050565b606060008054610bf090613bda565b80601f0160208091040260200160405190810160405280929190818152602001828054610c1c90613bda565b8015610c695780601f10610c3e57610100808354040283529160200191610c69565b820191906000526020600020905b815481529060010190602001808311610c4c57829003601f168201915b5050505050905090565b6000610c7e826122d3565b506000908152600460205260409020546001600160a01b031690565b6000610ca5826111a9565b9050806001600160a01b0316836001600160a01b031603610d175760405162461bcd60e51b815260206004820152602160248201527f4552433732313a20617070726f76616c20746f2063757272656e74206f776e656044820152603960f91b60648201526084015b60405180910390fd5b336001600160a01b0382161480610d335750610d3381336121ec565b610da55760405162461bcd60e51b815260206004820152603d60248201527f4552433732313a20617070726f76652063616c6c6572206973206e6f7420746f60448201527f6b656e206f776e6572206f7220617070726f76656420666f7220616c6c0000006064820152608401610d0e565b610daf8383612332565b505050565b610dbc6123a0565b6040805161010081018252600c8054808352602083018a8152938301899052606083018890526080830188905260a0830187905260c0830186905260e08301859052600181018255600091909152815160089091027fdf6966c971051c3d54ec59162606531493a51404a002842f56009d7e5cf4a8c781019182559251919290917fdf6966c971051c3d54ec59162606531493a51404a002842f56009d7e5cf4a8c890910190610e6c9082613c5c565b5060408201516002820190610e819082613c5c565b50606082015181600301556080820151816004015560a0820151816005015560c0820151816006015560e082015181600701555050505050505050565b610ec66123a0565b604051634aa7d2f760e11b81523060048201523360248201526002604360981b019063954fa5ee906044015b6020604051808303816000875af1158015610f11573d6000803e3d6000fd5b505050506040513d601f19601f82011682018060405250810190610f359190613d1c565b50565b604051600090339047908381818185875af1925050503d8060008114610f7a576040519150601f19603f3d011682016040523d82523d6000602084013e610f7f565b606091505b5050905080610f355760405162461bcd60e51b8152600401610d0e90613d35565b610faa33826123fa565b610fc65760405162461bcd60e51b8152600401610d0e90613d5f565b610daf838383612459565b336001600160a01b037f000000000000000000000000000000000000000000000000000000000000000016146110425760405162461bcd60e51b8152602060048201526016602482015275043616c6c6572206e6f74204169726e6f6465205252560541b6044820152606401610d0e565b60008381526017602052604090205460ff166110975760405162461bcd60e51b81526020600482015260146024820152732932b8bab2b9ba1024a2103737ba1035b737bbb760611b6044820152606401610d0e565b6000838152601760205260408120805460ff191690556110b9828401846136a2565b90506110c6606482613dc2565b6110d1906001613dec565b601381905560008581526018602052604090208054600190910154611105926001600160a01b0392831692909116906125bd565b837f1ca47bacd454c26163f84eff4aa514e291ba9fa67ad6029e39567c122bbed30f8260405161113791815260200190565b60405180910390a250505050565b60006111546201518042613e15565b905090565b610daf83838360405180602001604052806000815250611ad2565b61117c6123a0565b80600c838154811061119057611190613dff565b9060005260206000209060080201600601819055505050565b6000818152600260205260408120546001600160a01b031680610bdb5760405162461bcd60e51b8152602060048201526018602482015277115490cdcc8c4e881a5b9d985b1a59081d1bdad95b88125160421b6044820152606401610d0e565b6112116123a0565b80600c838154811061122557611225613dff565b90600052602060002090600802016001019081610daf9190613c5c565b600b54610100900460ff16151560000361126f57604051637698ab5760e01b815260040160405180910390fd5b61127f600b805461ff0019169055565b601454601555604051631d864f1d60e31b81523060048201526002604360981b019063ec3278e890602401602060405180830381865afa1580156112c7573d6000803e3d6000fd5b505050506040513d601f19601f820116820180604052508101906112eb9190613d1c565b6016556112f6612826565b565b61130061355a565b600d6000838152602001908152602001600020604051806101000160405290816000820154815260200160018201805461133990613bda565b80601f016020809104026020016040519081016040528092919081815260200182805461136590613bda565b80156113b25780601f10611387576101008083540402835291602001916113b2565b820191906000526020600020905b81548152906001019060200180831161139557829003601f168201915b505050505081526020016002820180546113cb90613bda565b80601f01602080910402602001604051908101604052809291908181526020018280546113f790613bda565b80156114445780601f1061141957610100808354040283529160200191611444565b820191906000526020600020905b81548152906001019060200180831161142757829003601f168201915b50505050508152602001600382015481526020016004820154815260200160058201548152602001600682015481526020016007820154815250509050919050565b60006001600160a01b0382166114f05760405162461bcd60e51b815260206004820152602960248201527f4552433732313a2061646472657373207a65726f206973206e6f7420612076616044820152683634b21037bbb732b960b91b6064820152608401610d0e565b506001600160a01b031660009081526003602052604090205490565b6115146123a0565b6112f66000612857565b61152661355a565b6001600160a01b0382166000908152600e602052604090205480156116cc57600d6000828152602001908152602001600020604051806101000160405290816000820154815260200160018201805461157e90613bda565b80601f01602080910402602001604051908101604052809291908181526020018280546115aa90613bda565b80156115f75780601f106115cc576101008083540402835291602001916115f7565b820191906000526020600020905b8154815290600101906020018083116115da57829003601f168201915b5050505050815260200160028201805461161090613bda565b80601f016020809104026020016040519081016040528092919081815260200182805461163c90613bda565b80156116895780601f1061165e57610100808354040283529160200191611689565b820191906000526020600020905b81548152906001019060200180831161166c57829003601f168201915b5050505050815260200160038201548152602001600482015481526020016005820154815260200160068201548152602001600782015481525050915050919050565b6116d461355a565b9392505050565b50919050565b6116e96123a0565b601080546001600160a01b039485166001600160a01b03199182161790915560119290925560128054919093169116179055565b601054601254604051631d414cbd60e01b81526001600160a01b03928316600482015290821660248201527f000000000000000000000000000000000000000000000000000000000000000090911690631d414cbd90604401600060405180830381600087803b15801561179057600080fd5b505af11580156117a4573d6000803e3d6000fd5b50505050565b6117b26123a0565b80600c83815481106117c6576117c6613dff565b9060005260206000209060080201600701819055505050565b606060018054610bf090613bda565b600b54610100900460ff16151560000361181b57604051637698ab5760e01b815260040160405180910390fd5b60095442111561183e576040516303f5b16960e31b815260040160405180910390fd5b600b5460ff1615611862576040516313d0ff5960e31b815260040160405180910390fd5b600f5434101561188557604051635a6f835360e01b815260040160405180910390fd5b600061189033611486565b11156118af57604051637c1a195560e01b815260040160405180910390fd5b6118b8816128a9565b6014600081546118c790613e29565b9091555050565b600d60205260009081526040902080546001820180549192916118f090613bda565b80601f016020809104026020016040519081016040528092919081815260200182805461191c90613bda565b80156119695780601f1061193e57610100808354040283529160200191611969565b820191906000526020600020905b81548152906001019060200180831161194c57829003601f168201915b50505050509080600201805461197e90613bda565b80601f01602080910402602001604051908101604052809291908181526020018280546119aa90613bda565b80156119f75780601f106119cc576101008083540402835291602001916119f7565b820191906000526020600020905b8154815290600101906020018083116119da57829003601f168201915b5050505050908060030154908060040154908060050154908060060154908060070154905088565b611a2a338383612c71565b5050565b604051631d864f1d60e31b815230600482015260009081906002604360981b019063ec3278e890602401602060405180830381865afa158015611a75573d6000803e3d6000fd5b505050506040513d601f19601f82011682018060405250810190610bdb9190613d1c565b611aa16123a0565b80600c8381548110611ab557611ab5613dff565b90600052602060002090600802016002019081610daf9190613c5c565b611adc33836123fa565b611af85760405162461bcd60e51b8152600401610d0e90613d5f565b6117a484848484612d3f565b6060600c805480602002602001604051908101604052809291908181526020016000905b82821015611cbb57838290600052602060002090600802016040518061010001604052908160008201548152602001600182018054611b6690613bda565b80601f0160208091040260200160405190810160405280929190818152602001828054611b9290613bda565b8015611bdf5780601f10611bb457610100808354040283529160200191611bdf565b820191906000526020600020905b815481529060010190602001808311611bc257829003601f168201915b50505050508152602001600282018054611bf890613bda565b80601f0160208091040260200160405190810160405280929190818152602001828054611c2490613bda565b8015611c715780601f10611c4657610100808354040283529160200191611c71565b820191906000526020600020905b815481529060010190602001808311611c5457829003601f168201915b505050505081526020016003820154815260200160048201548152602001600582015481526020016006820154815260200160078201548152505081526020019060010190611b28565b50505050905090565b600b54610100900460ff161515600003611cf157604051637698ab5760e01b815260040160405180910390fd5b600b5460ff1615611d15576040516313d0ff5960e31b815260040160405180910390fd5b600a54421115611d3857604051631f62703960e11b815260040160405180910390fd5b611d4133611486565b600003611d61576040516354abb27f60e01b815260040160405180910390fd5b611d6a81611486565b600003611d8a576040516313eb680960e01b815260040160405180910390fd5b336000908152600e602052604081205490611da3611145565b6001600160a01b03841660009081526019602090815260408083208484529091528120805492935090611dd583613e29565b90915550506000828152601a602090815260408083208484529091528120805491611dff83613e29565b9190505550610daf8333612d72565b6000818152600d6020908152604080832081516101008101909252805482526001810180546060959484019190611e4490613bda565b80601f0160208091040260200160405190810160405280929190818152602001828054611e7090613bda565b8015611ebd5780601f10611e9257610100808354040283529160200191611ebd565b820191906000526020600020905b815481529060010190602001808311611ea057829003601f168201915b50505050508152602001600282018054611ed690613bda565b80601f0160208091040260200160405190810160405280929190818152602001828054611f0290613bda565b8015611f4f5780601f10611f2457610100808354040283529160200191611f4f565b820191906000526020600020905b815481529060010190602001808311611f3257829003601f168201915b505050505081526020016003820154815260200160048201548152602001600582015481526020016006820154815260200160078201548152505090506000611f9b8260600151612ec4565b90506000611fac8360800151612ec4565b90506000611fbd8460a00151612ec4565b90506000611fce8560c00151612ec4565b905060006120168660200151611fe38a612ec4565b8860400151888888886040516020016120029796959493929190613e5e565b604051602081830303815290604052612f57565b905080604051602001612029919061403b565b6040516020818303038152906040529650505050505050919050565b600b54610100900460ff161515600103612072576040516325a1009960e21b815260040160405180910390fd5b61207b33611486565b60000361209b576040516354abb27f60e01b815260040160405180910390fd5b336000908152600e60205260409020546120b4906130c1565b60006120be613156565b90506000600f54826120d09190613dec565b604051909150600090339083908381818185875af1925050503d8060008114612115576040519150601f19603f3d011682016040523d82523d6000602084013e61211a565b606091505b5050905080610daf5760405162461bcd60e51b8152600401610d0e90613d35565b6121436123a0565b80600c838154811061215757612157613dff565b9060005260206000209060080201600501819055505050565b6121786123a0565b600b54610100900460ff1615156001036121a5576040516354409d4960e11b815260040160405180910390fd5b600060158190556016556112f661318d565b6121bf6123a0565b80600c83815481106121d3576121d3613dff565b9060005260206000209060080201600401819055505050565b6001600160a01b03918216600090815260056020908152604080832093909416825291909152205460ff1690565b60008061222683611486565b111561223457506001919050565b506000919050565b919050565b6122496123a0565b6001600160a01b0381166122ae5760405162461bcd60e51b815260206004820152602660248201527f4f776e61626c653a206e6577206f776e657220697320746865207a65726f206160448201526564647265737360d01b6064820152608401610d0e565b610f3581612857565b6122bf6123a0565b600b805460ff19811660ff90911615179055565b6000818152600260205260409020546001600160a01b0316610f355760405162461bcd60e51b8152602060048201526018602482015277115490cdcc8c4e881a5b9d985b1a59081d1bdad95b88125160421b6044820152606401610d0e565b600081815260046020526040902080546001600160a01b0319166001600160a01b0384169081179091558190612367826111a9565b6001600160a01b03167f8c5be1e5ebec7d5bd14f71427d1e84f3dd0314c0f7b2291e5b200ac8c7c3b92560405160405180910390a45050565b6006546001600160a01b031633146112f65760405162461bcd60e51b815260206004820181905260248201527f4f776e61626c653a2063616c6c6572206973206e6f7420746865206f776e65726044820152606401610d0e565b600080612406836111a9565b9050806001600160a01b0316846001600160a01b0316148061242d575061242d81856121ec565b806124515750836001600160a01b031661244684610c73565b6001600160a01b0316145b949350505050565b826001600160a01b031661246c826111a9565b6001600160a01b0316146124925760405162461bcd60e51b8152600401610d0e90614080565b6001600160a01b0382166124f45760405162461bcd60e51b8152602060048201526024808201527f4552433732313a207472616e7366657220746f20746865207a65726f206164646044820152637265737360e01b6064820152608401610d0e565b826001600160a01b0316612507826111a9565b6001600160a01b03161461252d5760405162461bcd60e51b8152600401610d0e90614080565b600081815260046020908152604080832080546001600160a01b03199081169091556001600160a01b0387811680865260038552838620805460001901905590871680865283862080546001019055868652600290945282852080549092168417909155905184937fddf252ad1be2c89b69c2b068fc378daa952ba7f163c4a11628f55a4df523b3ef91a4505050565b600b5460ff16156125e1576040516313d0ff5960e31b815260040160405180910390fd5b6125ea83611486565b60000361260a576040516313eb680960e01b815260040160405180910390fd5b6001600160a01b038083166000908152600e6020908152604080832054938716835280832054848452600d909252808320828452922060078101549192916126539060326140c5565b8511156126a657604080516001600160a01b038089168252891660208201527faafa4be7ba57bc03734289a43be057552a15f868d6e71495af22986da576dac0910160405180910390a150505050505050565b600081600601548360050154876126bd9190613dec565b6126c791906140c5565b905081600301548111156127b3576126de846130c1565b604080516001600160a01b038a811682526020820187905289168183015290517f345dbdb55ee78a22d5de8124ef7d24a78314b38f44bc9d3cc50ab9f06e13f2f49181900360600190a1601460008154612737906140d8565b90915550600f546040516000916001600160a01b038b16918381818185875af1925050503d8060008114612787576040519150601f19603f3d011682016040523d82523d6000602084013e61278c565b606091505b50509050806127ad5760405162461bcd60e51b8152600401610d0e90613d35565b5061281c565b8082600301546127c391906140c5565b60038301819055604080516001600160a01b038a811682528b1660208201528082018490526060810192909252517fa3d731e36de965a3a18800c9550bff56511a732ecf82a444ca0b48712488460b9181900360800190a15b5050505050505050565b60405163430021db60e11b8152306004820181905260248201526002604360981b019063860043b690604401610ef2565b600680546001600160a01b038381166001600160a01b0319831681179093556040519116919082907f8be0079c531659141344cd1fd0a4f28419497f9722a3daafe3b4186f6b6457e090600090a35050565b600b54610100900460ff1615156000036128d657604051637698ab5760e01b815260040160405180910390fd5b6009544211156128f9576040516303f5b16960e31b815260040160405180910390fd5b600b5460ff161561291d576040516313d0ff5960e31b815260040160405180910390fd5b600061292833611486565b111561294757604051637c1a195560e01b815260040160405180910390fd5b612953336007546131f6565b604051806101000160405280828152602001600c838154811061297857612978613dff565b9060005260206000209060080201600101805461299490613bda565b80601f01602080910402602001604051908101604052809291908181526020018280546129c090613bda565b8015612a0d5780601f106129e257610100808354040283529160200191612a0d565b820191906000526020600020905b8154815290600101906020018083116129f057829003601f168201915b50505050508152602001600c8381548110612a2a57612a2a613dff565b90600052602060002090600802016002018054612a4690613bda565b80601f0160208091040260200160405190810160405280929190818152602001828054612a7290613bda565b8015612abf5780601f10612a9457610100808354040283529160200191612abf565b820191906000526020600020905b815481529060010190602001808311612aa257829003601f168201915b50505050508152602001600c8381548110612adc57612adc613dff565b9060005260206000209060080201600301548152602001600c8381548110612b0657612b06613dff565b9060005260206000209060080201600301548152602001600c8381548110612b3057612b30613dff565b9060005260206000209060080201600501548152602001600c8381548110612b5a57612b5a613dff565b9060005260206000209060080201600601548152602001600c8381548110612b8457612b84613dff565b600091825260208083206007600890930201820154909352548152600d82526040902082518155908201516001820190612bbe9082613c5c565b5060408201516002820190612bd39082613c5c565b50606082015160038201556080820151600482015560a0820151600582015560c0820151600682015560e0909101516007918201558054336000908152600e6020526040812082905590612c2690613e29565b9091555060075460408051338152602081019290925281018290527f4bc303fd457a97b4691b9af582ce71868a3d258638c8d4f8c60988a0f0bfb8cd9060600160405180910390a150565b816001600160a01b0316836001600160a01b031603612cd25760405162461bcd60e51b815260206004820152601960248201527f4552433732313a20617070726f766520746f2063616c6c6572000000000000006044820152606401610d0e565b6001600160a01b03838116600081815260056020908152604080832094871680845294825291829020805460ff191686151590811790915591519182527f17307eab39ab6107e8899845ad3d59bd9653f200f220920489ca2b5937696c31910160405180910390a3505050565b612d4a848484612459565b612d5684848484613381565b6117a45760405162461bcd60e51b8152600401610d0e906140ef565b601054601154601254604051636e6be03f60e01b81526001600160a01b0393841660048201526024810192909252306044830181905290831660648301526084820152631b8c6c8560e11b60a482015260e060c4820152600060e48201819052917f00000000000000000000000000000000000000000000000000000000000000001690636e6be03f90610104016020604051808303816000875af1158015612e1f573d6000803e3d6000fd5b505050506040513d601f19601f82011682018060405250810190612e439190613d1c565b6000818152601760209081526040808320805460ff19166001179055805180820182526001600160a01b0380891682528716818401528484526018909252909120919250612e939190600261359f565b5060405181907ff039428b095c79c12e434981caacc36fbc90eede12232a5fdc82b0beeddf3c2090600090a2505050565b60606000612ed183613482565b600101905060008167ffffffffffffffff811115612ef157612ef16136fc565b6040519080825280601f01601f191660200182016040528015612f1b576020820181803683370190505b5090508181016020015b600019016f181899199a1a9b1b9c1cb0b131b232b360811b600a86061a8153600a8504945084612f2557509392505050565b80516060906000819003612f7b575050604080516020810190915260008152919050565b60006003612f8a836002613dec565b612f949190613e15565b612f9f906004614141565b90506000612fae826020613dec565b67ffffffffffffffff811115612fc657612fc66136fc565b6040519080825280601f01601f191660200182016040528015612ff0576020820181803683370190505b50905060006040518060600160405280604081526020016141b3604091399050600181016020830160005b8681101561307c576003818a01810151603f601282901c8116860151600c83901c8216870151600684901c831688015192909316870151600891821b60ff94851601821b92841692909201901b91160160e01b83526004909201910161301b565b50600386066001811461309657600281146130a7576130b3565b613d3d60f01b6001198301526130b3565b603d60f81b6000198301525b505050918152949350505050565b60006130cc826111a9565b90506130d7826111a9565b600083815260046020908152604080832080546001600160a01b03199081169091556001600160a01b0385168085526003845282852080546000190190558785526002909352818420805490911690555192935084927fddf252ad1be2c89b69c2b068fc378daa952ba7f163c4a11628f55a4df523b3ef908390a45050565b60165460009080820361316b57600091505090565b60006015548261317b9190613e15565b90506000601554826124519190614141565b600b54610100900460ff1615156001036131ba576040516354409d4960e11b815260040160405180910390fd5b600b805461ff0019166101001790554260088190556131dd906202a30090613dec565b6009556008546131f19062093a8090613dec565b600a55565b6001600160a01b03821661324c5760405162461bcd60e51b815260206004820181905260248201527f4552433732313a206d696e7420746f20746865207a65726f20616464726573736044820152606401610d0e565b6000818152600260205260409020546001600160a01b0316156132b15760405162461bcd60e51b815260206004820152601c60248201527f4552433732313a20746f6b656e20616c7265616479206d696e746564000000006044820152606401610d0e565b6000818152600260205260409020546001600160a01b0316156133165760405162461bcd60e51b815260206004820152601c60248201527f4552433732313a20746f6b656e20616c7265616479206d696e746564000000006044820152606401610d0e565b6001600160a01b038216600081815260036020908152604080832080546001019055848352600290915280822080546001600160a01b0319168417905551839291907fddf252ad1be2c89b69c2b068fc378daa952ba7f163c4a11628f55a4df523b3ef908290a45050565b60006001600160a01b0384163b1561347757604051630a85bd0160e11b81526001600160a01b0385169063150b7a02906133c5903390899088908890600401614158565b6020604051808303816000875af1925050508015613400575060408051601f3d908101601f191682019092526133fd91810190614195565b60015b61345d573d80801561342e576040519150601f19603f3d011682016040523d82523d6000602084013e613433565b606091505b5080516000036134555760405162461bcd60e51b8152600401610d0e906140ef565b805181602001fd5b6001600160e01b031916630a85bd0160e11b149050612451565b506001949350505050565b60008072184f03e93ff9f4daa797ed6e38ed64bf6a1f0160401b83106134c15772184f03e93ff9f4daa797ed6e38ed64bf6a1f0160401b830492506040015b6d04ee2d6d415b85acef810000000083106134ed576d04ee2d6d415b85acef8100000000830492506020015b662386f26fc10000831061350b57662386f26fc10000830492506010015b6305f5e1008310613523576305f5e100830492506008015b612710831061353757612710830492506004015b60648310613549576064830492506002015b600a8310610bdb5760010192915050565b60405180610100016040528060008152602001606081526020016060815260200160008152602001600081526020016000815260200160008152602001600081525090565b82600281019282156135e7579160200282015b828111156135e757825182546001600160a01b0319166001600160a01b039091161782556020909201916001909101906135b2565b506135f39291506135f7565b5090565b5b808211156135f357600081556001016135f8565b6001600160e01b031981168114610f3557600080fd5b60006020828403121561363457600080fd5b81356116d48161360c565b60005b8381101561365a578181015183820152602001613642565b50506000910152565b6000815180845261367b81602086016020860161363f565b601f01601f19169290920160200192915050565b6020815260006116d46020830184613663565b6000602082840312156136b457600080fd5b5035919050565b80356001600160a01b038116811461223c57600080fd5b600080604083850312156136e557600080fd5b6136ee836136bb565b946020939093013593505050565b634e487b7160e01b600052604160045260246000fd5b600067ffffffffffffffff8084111561372d5761372d6136fc565b604051601f8501601f19908116603f01168101908282118183101715613755576137556136fc565b8160405280935085815286868601111561376e57600080fd5b858560208301376000602087830101525050509392505050565b600082601f83011261379957600080fd5b6116d483833560208501613712565b60008060008060008060c087890312156137c157600080fd5b863567ffffffffffffffff808211156137d957600080fd5b6137e58a838b01613788565b975060208901359150808211156137fb57600080fd5b5061380889828a01613788565b96999698505050506040850135946060810135946080820135945060a09091013592509050565b60008060006060848603121561384457600080fd5b61384d846136bb565b925061385b602085016136bb565b9150604084013590509250925092565b60008060006040848603121561388057600080fd5b83359250602084013567ffffffffffffffff8082111561389f57600080fd5b818601915086601f8301126138b357600080fd5b8135818111156138c257600080fd5b8760208285010111156138d457600080fd5b6020830194508093505050509250925092565b600080604083850312156138fa57600080fd5b50508035926020909101359150565b6000806040838503121561391c57600080fd5b82359150602083013567ffffffffffffffff81111561393a57600080fd5b61394685828601613788565b9150509250929050565b600061010082518452602083015181602086015261397082860182613663565b9150506040830151848203604086015261398a8282613663565b915050606083015160608501526080830151608085015260a083015160a085015260c083015160c085015260e083015160e08501528091505092915050565b6020815260006116d46020830184613950565b6000602082840312156139ee57600080fd5b6116d4826136bb565b600080600060608486031215613a0c57600080fd5b613a15846136bb565b925060208401359150613a2a604085016136bb565b90509250925092565b60006101008a8352806020840152613a4d8184018b613663565b90508281036040840152613a61818a613663565b60608401989098525050608081019490945260a084019290925260c083015260e0909101529392505050565b60008060408385031215613aa057600080fd5b613aa9836136bb565b915060208301358015158114613abe57600080fd5b809150509250929050565b60008060008060808587031215613adf57600080fd5b613ae8856136bb565b9350613af6602086016136bb565b925060408501359150606085013567ffffffffffffffff811115613b1957600080fd5b8501601f81018713613b2a57600080fd5b613b3987823560208401613712565b91505092959194509250565b6000602080830181845280855180835260408601915060408160051b870101925083870160005b82811015613b9a57603f19888603018452613b88858351613950565b94509285019290850190600101613b6c565b5092979650505050505050565b60008060408385031215613bba57600080fd5b613bc3836136bb565b9150613bd1602084016136bb565b90509250929050565b600181811c90821680613bee57607f821691505b6020821081036116db57634e487b7160e01b600052602260045260246000fd5b601f821115610daf57600081815260208120601f850160051c81016020861015613c355750805b601f850160051c820191505b81811015613c5457828155600101613c41565b505050505050565b815167ffffffffffffffff811115613c7657613c766136fc565b613c8a81613c848454613bda565b84613c0e565b602080601f831160018114613cbf5760008415613ca75750858301515b600019600386901b1c1916600185901b178555613c54565b600085815260208120601f198616915b82811015613cee57888601518255948401946001909101908401613ccf565b5085821015613d0c5787850151600019600388901b60f8161c191681555b5050505050600190811b01905550565b600060208284031215613d2e57600080fd5b5051919050565b60208082526010908201526f14185e5b595b9d081b9bdd081cd95b9d60821b604082015260600190565b6020808252602d908201527f4552433732313a2063616c6c6572206973206e6f7420746f6b656e206f776e6560408201526c1c881bdc88185c1c1c9bdd9959609a1b606082015260800190565b634e487b7160e01b600052601260045260246000fd5b600082613dd157613dd1613dac565b500690565b634e487b7160e01b600052601160045260246000fd5b80820180821115610bdb57610bdb613dd6565b634e487b7160e01b600052603260045260246000fd5b600082613e2457613e24613dac565b500490565b600060018201613e3b57613e3b613dd6565b5060010190565b60008151613e5481856020860161363f565b9290920192915050565b693d913730b6b2911d101160b11b81528751600090613e8481600a850160208d0161363f565b6a01016969027232a10119d160ad1b600a918401918201528851613eaf816015840160208d0161363f565b7f222c20226465736372697074696f6e223a202254686520536e6f7762616c6c20601592909101918201527123b0b6b2909116101134b6b0b3b2911d101160711b60358201528751613f08816047840160208c0161363f565b7f222c202261747472696275746573223a205b207b2274726169745f7479706522604792909101918201527f3a20224865616c746820506f696e7473222c202276616c7565223a2000000000606782015261402d61401e614018613fe0613fda613f9c613f96613f7b608389018f613e42565b6e016101136b0bc2fbb30b63ab2911d1608d1b8152600f0190565b8c613e42565b7f7d2c207b2274726169745f74797065223a202241747461636b2044616d61676581526b0111610113b30b63ab2911d160a51b6020820152602c0190565b89613e42565b7f7d2c207b2274726169745f74797065223a2022446566656e7365222c202276618152650363ab2911d160d51b602082015260260190565b86613e42565b627d5d7d60e81b815260030190565b9a9950505050505050505050565b7f646174613a6170706c69636174696f6e2f6a736f6e3b6261736536342c00000081526000825161407381601d85016020870161363f565b91909101601d0192915050565b60208082526025908201527f4552433732313a207472616e736665722066726f6d20696e636f72726563742060408201526437bbb732b960d91b606082015260800190565b81810381811115610bdb57610bdb613dd6565b6000816140e7576140e7613dd6565b506000190190565b60208082526032908201527f4552433732313a207472616e7366657220746f206e6f6e20455243373231526560408201527131b2b4bb32b91034b6b83632b6b2b73a32b960711b606082015260800190565b8082028115828204841417610bdb57610bdb613dd6565b6001600160a01b038581168252841660208201526040810183905260806060820181905260009061418b90830184613663565b9695505050505050565b6000602082840312156141a757600080fd5b81516116d48161360c56fe4142434445464748494a4b4c4d4e4f505152535455565758595a6162636465666768696a6b6c6d6e6f707172737475767778797a303132333435363738392b2fa26469706673582212209e67e9e337f123c4a21448c81cee0cca20edf9b86a5410dd2b844291182e5a4064736f6c63430008130033",
  "linkReferences": {},
  "deployedLinkReferences": {}
}