{
  "_format": "hh-sol-artifact-1",
  "contractName": "NFTAttack",
  "sourceName": "contracts/NFTAttack.sol",
  "abi": [
    {
      "inputs": [
        {
          "internalType": "address",
          "name": "_airnodeRrp",
          "type": "address"
        },
        {
          "internalType": "string[]",
          "name": "characterNames",
          "type": "string[]"
        },
        {
          "internalType": "string[]",
          "name": "characterImageURIs",
          "type": "string[]"
        },
        {
          "internalType": "uint256[]",
          "name": "characterHp",
          "type": "uint256[]"
        },
        {
          "internalType": "uint256[]",
          "name": "characterAttack",
          "type": "uint256[]"
        },
        {
          "internalType": "uint256[]",
          "name": "characterDefense",
          "type": "uint256[]"
        },
        {
          "internalType": "uint256[]",
          "name": "characterEvade",
          "type": "uint256[]"
        }
      ],
      "stateMutability": "nonpayable",
      "type": "constructor"
    },
    {
      "inputs": [],
      "name": "AlreadyHasNFT",
      "type": "error"
    },
    {
      "inputs": [],
      "name": "EnemyNeedsNFT",
      "type": "error"
    },
    {
      "inputs": [],
      "name": "Paused",
      "type": "error"
    },
    {
      "inputs": [],
      "name": "YouNeedAnNFT",
      "type": "error"
    },
    {
      "anonymous": false,
      "inputs": [
        {
          "indexed": true,
          "internalType": "address",
          "name": "owner",
          "type": "address"
        },
        {
          "indexed": true,
          "internalType": "address",
          "name": "approved",
          "type": "address"
        },
        {
          "indexed": true,
          "internalType": "uint256",
          "name": "tokenId",
          "type": "uint256"
        }
      ],
      "name": "Approval",
      "type": "event"
    },
    {
      "anonymous": false,
      "inputs": [
        {
          "indexed": true,
          "internalType": "address",
          "name": "owner",
          "type": "address"
        },
        {
          "indexed": true,
          "internalType": "address",
          "name": "operator",
          "type": "address"
        },
        {
          "indexed": false,
          "internalType": "bool",
          "name": "approved",
          "type": "bool"
        }
      ],
      "name": "ApprovalForAll",
      "type": "event"
    },
    {
      "anonymous": false,
      "inputs": [
        {
          "indexed": false,
          "internalType": "uint256",
          "name": "atkAmount",
          "type": "uint256"
        },
        {
          "indexed": false,
          "internalType": "uint256",
          "name": "playerHp",
          "type": "uint256"
        }
      ],
      "name": "AttackComplete",
      "type": "event"
    },
    {
      "anonymous": false,
      "inputs": [
        {
          "indexed": false,
          "internalType": "address",
          "name": "sender",
          "type": "address"
        },
        {
          "indexed": false,
          "internalType": "uint256",
          "name": "tokenId",
          "type": "uint256"
        },
        {
          "indexed": false,
          "internalType": "uint256",
          "name": "characterIndex",
          "type": "uint256"
        }
      ],
      "name": "CharacterNFTMinted",
      "type": "event"
    },
    {
      "anonymous": false,
      "inputs": [
        {
          "indexed": false,
          "internalType": "address",
          "name": "attacker",
          "type": "address"
        },
        {
          "indexed": false,
          "internalType": "address",
          "name": "victim",
          "type": "address"
        }
      ],
      "name": "MissedAttack",
      "type": "event"
    },
    {
      "anonymous": false,
      "inputs": [
        {
          "indexed": false,
          "internalType": "address",
          "name": "victim",
          "type": "address"
        },
        {
          "indexed": false,
          "internalType": "uint256",
          "name": "tokenId",
          "type": "uint256"
        },
        {
          "indexed": false,
          "internalType": "address",
          "name": "attacker",
          "type": "address"
        }
      ],
      "name": "NFTBurned",
      "type": "event"
    },
    {
      "anonymous": false,
      "inputs": [
        {
          "indexed": true,
          "internalType": "address",
          "name": "previousOwner",
          "type": "address"
        },
        {
          "indexed": true,
          "internalType": "address",
          "name": "newOwner",
          "type": "address"
        }
      ],
      "name": "OwnershipTransferred",
      "type": "event"
    },
    {
      "anonymous": false,
      "inputs": [
        {
          "indexed": true,
          "internalType": "bytes32",
          "name": "requestId",
          "type": "bytes32"
        },
        {
          "indexed": false,
          "internalType": "uint256",
          "name": "response",
          "type": "uint256"
        }
      ],
      "name": "ReceivedUint256",
      "type": "event"
    },
    {
      "anonymous": false,
      "inputs": [
        {
          "indexed": true,
          "internalType": "bytes32",
          "name": "requestId",
          "type": "bytes32"
        }
      ],
      "name": "RequestUint256",
      "type": "event"
    },
    {
      "anonymous": false,
      "inputs": [
        {
          "indexed": false,
          "internalType": "address",
          "name": "attacker",
          "type": "address"
        },
        {
          "indexed": false,
          "internalType": "address",
          "name": "victim",
          "type": "address"
        },
        {
          "indexed": false,
          "internalType": "uint256",
          "name": "damageAmount",
          "type": "uint256"
        },
        {
          "indexed": false,
          "internalType": "uint256",
          "name": "victimHp",
          "type": "uint256"
        }
      ],
      "name": "SuccessfulAttack",
      "type": "event"
    },
    {
      "anonymous": false,
      "inputs": [
        {
          "indexed": true,
          "internalType": "address",
          "name": "from",
          "type": "address"
        },
        {
          "indexed": true,
          "internalType": "address",
          "name": "to",
          "type": "address"
        },
        {
          "indexed": true,
          "internalType": "uint256",
          "name": "tokenId",
          "type": "uint256"
        }
      ],
      "name": "Transfer",
      "type": "event"
    },
    {
      "inputs": [
        {
          "internalType": "string",
          "name": "_name",
          "type": "string"
        },
        {
          "internalType": "string",
          "name": "_imageURI",
          "type": "string"
        },
        {
          "internalType": "uint256",
          "name": "_hp",
          "type": "uint256"
        },
        {
          "internalType": "uint256",
          "name": "_attack",
          "type": "uint256"
        },
        {
          "internalType": "uint256",
          "name": "_defense",
          "type": "uint256"
        },
        {
          "internalType": "uint256",
          "name": "_evade",
          "type": "uint256"
        }
      ],
      "name": "addCharacter",
      "outputs": [],
      "stateMutability": "nonpayable",
      "type": "function"
    },
    {
      "inputs": [],
      "name": "airnode",
      "outputs": [
        {
          "internalType": "address",
          "name": "",
          "type": "address"
        }
      ],
      "stateMutability": "view",
      "type": "function"
    },
    {
      "inputs": [],
      "name": "airnodeRrp",
      "outputs": [
        {
          "internalType": "contract IAirnodeRrpV0",
          "name": "",
          "type": "address"
        }
      ],
      "stateMutability": "view",
      "type": "function"
    },
    {
      "inputs": [
        {
          "internalType": "address",
          "name": "to",
          "type": "address"
        },
        {
          "internalType": "uint256",
          "name": "tokenId",
          "type": "uint256"
        }
      ],
      "name": "approve",
      "outputs": [],
      "stateMutability": "nonpayable",
      "type": "function"
    },
    {
      "inputs": [
        {
          "internalType": "address",
          "name": "owner",
          "type": "address"
        }
      ],
      "name": "balanceOf",
      "outputs": [
        {
          "internalType": "uint256",
          "name": "",
          "type": "uint256"
        }
      ],
      "stateMutability": "view",
      "type": "function"
    },
    {
      "inputs": [
        {
          "internalType": "address",
          "name": "_holder",
          "type": "address"
        }
      ],
      "name": "checkIfTargetHasNFT",
      "outputs": [
        {
          "internalType": "bool",
          "name": "",
          "type": "bool"
        }
      ],
      "stateMutability": "view",
      "type": "function"
    },
    {
      "inputs": [
        {
          "internalType": "address",
          "name": "_holder",
          "type": "address"
        }
      ],
      "name": "checkIfUserNFT",
      "outputs": [
        {
          "components": [
            {
              "internalType": "uint256",
              "name": "characterIndex",
              "type": "uint256"
            },
            {
              "internalType": "string",
              "name": "name",
              "type": "string"
            },
            {
              "internalType": "string",
              "name": "imageURI",
              "type": "string"
            },
            {
              "internalType": "uint256",
              "name": "hp",
              "type": "uint256"
            },
            {
              "internalType": "uint256",
              "name": "maxHp",
              "type": "uint256"
            },
            {
              "internalType": "uint256",
              "name": "attackDamage",
              "type": "uint256"
            },
            {
              "internalType": "uint256",
              "name": "defense",
              "type": "uint256"
            },
            {
              "internalType": "uint256",
              "name": "evade",
              "type": "uint256"
            }
          ],
          "internalType": "struct SnowDay.CharacterAttributes",
          "name": "",
          "type": "tuple"
        }
      ],
      "stateMutability": "view",
      "type": "function"
    },
    {
      "inputs": [
        {
          "internalType": "uint256",
          "name": "_characterIndex",
          "type": "uint256"
        }
      ],
      "name": "claimNFT",
      "outputs": [],
      "stateMutability": "nonpayable",
      "type": "function"
    },
    {
      "inputs": [],
      "name": "endpointIdUint256",
      "outputs": [
        {
          "internalType": "bytes32",
          "name": "",
          "type": "bytes32"
        }
      ],
      "stateMutability": "view",
      "type": "function"
    },
    {
      "inputs": [
        {
          "internalType": "bytes32",
          "name": "",
          "type": "bytes32"
        }
      ],
      "name": "expectingRequestWithIdToBeFulfilled",
      "outputs": [
        {
          "internalType": "bool",
          "name": "",
          "type": "bool"
        }
      ],
      "stateMutability": "view",
      "type": "function"
    },
    {
      "inputs": [
        {
          "internalType": "bytes32",
          "name": "requestId",
          "type": "bytes32"
        },
        {
          "internalType": "bytes",
          "name": "data",
          "type": "bytes"
        }
      ],
      "name": "fulfillUint256",
      "outputs": [],
      "stateMutability": "nonpayable",
      "type": "function"
    },
    {
      "inputs": [],
      "name": "getAllDefaultCharacters",
      "outputs": [
        {
          "components": [
            {
              "internalType": "uint256",
              "name": "characterIndex",
              "type": "uint256"
            },
            {
              "internalType": "string",
              "name": "name",
              "type": "string"
            },
            {
              "internalType": "string",
              "name": "imageURI",
              "type": "string"
            },
            {
              "internalType": "uint256",
              "name": "hp",
              "type": "uint256"
            },
            {
              "internalType": "uint256",
              "name": "maxHp",
              "type": "uint256"
            },
            {
              "internalType": "uint256",
              "name": "attackDamage",
              "type": "uint256"
            },
            {
              "internalType": "uint256",
              "name": "defense",
              "type": "uint256"
            },
            {
              "internalType": "uint256",
              "name": "evade",
              "type": "uint256"
            }
          ],
          "internalType": "struct SnowDay.CharacterAttributes[]",
          "name": "",
          "type": "tuple[]"
        }
      ],
      "stateMutability": "view",
      "type": "function"
    },
    {
      "inputs": [
        {
          "internalType": "uint256",
          "name": "tokenId",
          "type": "uint256"
        }
      ],
      "name": "getApproved",
      "outputs": [
        {
          "internalType": "address",
          "name": "",
          "type": "address"
        }
      ],
      "stateMutability": "view",
      "type": "function"
    },
    {
      "inputs": [
        {
          "internalType": "uint256",
          "name": "_tokenId",
          "type": "uint256"
        }
      ],
      "name": "getCharacterHp",
      "outputs": [
        {
          "internalType": "uint256",
          "name": "",
          "type": "uint256"
        }
      ],
      "stateMutability": "view",
      "type": "function"
    },
    {
      "inputs": [
        {
          "internalType": "uint256",
          "name": "_tokenId",
          "type": "uint256"
        }
      ],
      "name": "getCharacterStats",
      "outputs": [
        {
          "components": [
            {
              "internalType": "uint256",
              "name": "characterIndex",
              "type": "uint256"
            },
            {
              "internalType": "string",
              "name": "name",
              "type": "string"
            },
            {
              "internalType": "string",
              "name": "imageURI",
              "type": "string"
            },
            {
              "internalType": "uint256",
              "name": "hp",
              "type": "uint256"
            },
            {
              "internalType": "uint256",
              "name": "maxHp",
              "type": "uint256"
            },
            {
              "internalType": "uint256",
              "name": "attackDamage",
              "type": "uint256"
            },
            {
              "internalType": "uint256",
              "name": "defense",
              "type": "uint256"
            },
            {
              "internalType": "uint256",
              "name": "evade",
              "type": "uint256"
            }
          ],
          "internalType": "struct SnowDay.CharacterAttributes",
          "name": "",
          "type": "tuple"
        }
      ],
      "stateMutability": "view",
      "type": "function"
    },
    {
      "inputs": [
        {
          "internalType": "address",
          "name": "owner",
          "type": "address"
        },
        {
          "internalType": "address",
          "name": "operator",
          "type": "address"
        }
      ],
      "name": "isApprovedForAll",
      "outputs": [
        {
          "internalType": "bool",
          "name": "",
          "type": "bool"
        }
      ],
      "stateMutability": "view",
      "type": "function"
    },
    {
      "inputs": [],
      "name": "isGamePaused",
      "outputs": [
        {
          "internalType": "bool",
          "name": "",
          "type": "bool"
        }
      ],
      "stateMutability": "view",
      "type": "function"
    },
    {
      "inputs": [
        {
          "internalType": "address",
          "name": "_victim",
          "type": "address"
        },
        {
          "internalType": "address",
          "name": "_attacker",
          "type": "address"
        }
      ],
      "name": "makeRequestUint256",
      "outputs": [],
      "stateMutability": "nonpayable",
      "type": "function"
    },
    {
      "inputs": [],
      "name": "name",
      "outputs": [
        {
          "internalType": "string",
          "name": "",
          "type": "string"
        }
      ],
      "stateMutability": "view",
      "type": "function"
    },
    {
      "inputs": [],
      "name": "nextTokenId",
      "outputs": [
        {
          "internalType": "uint256",
          "name": "",
          "type": "uint256"
        }
      ],
      "stateMutability": "view",
      "type": "function"
    },
    {
      "inputs": [
        {
          "internalType": "uint256",
          "name": "",
          "type": "uint256"
        }
      ],
      "name": "nftHolderAttributes",
      "outputs": [
        {
          "internalType": "uint256",
          "name": "characterIndex",
          "type": "uint256"
        },
        {
          "internalType": "string",
          "name": "name",
          "type": "string"
        },
        {
          "internalType": "string",
          "name": "imageURI",
          "type": "string"
        },
        {
          "internalType": "uint256",
          "name": "hp",
          "type": "uint256"
        },
        {
          "internalType": "uint256",
          "name": "maxHp",
          "type": "uint256"
        },
        {
          "internalType": "uint256",
          "name": "attackDamage",
          "type": "uint256"
        },
        {
          "internalType": "uint256",
          "name": "defense",
          "type": "uint256"
        },
        {
          "internalType": "uint256",
          "name": "evade",
          "type": "uint256"
        }
      ],
      "stateMutability": "view",
      "type": "function"
    },
    {
      "inputs": [
        {
          "internalType": "address",
          "name": "",
          "type": "address"
        }
      ],
      "name": "nftHolders",
      "outputs": [
        {
          "internalType": "uint256",
          "name": "",
          "type": "uint256"
        }
      ],
      "stateMutability": "view",
      "type": "function"
    },
    {
      "inputs": [],
      "name": "owner",
      "outputs": [
        {
          "internalType": "address",
          "name": "",
          "type": "address"
        }
      ],
      "stateMutability": "view",
      "type": "function"
    },
    {
      "inputs": [
        {
          "internalType": "uint256",
          "name": "tokenId",
          "type": "uint256"
        }
      ],
      "name": "ownerOf",
      "outputs": [
        {
          "internalType": "address",
          "name": "",
          "type": "address"
        }
      ],
      "stateMutability": "view",
      "type": "function"
    },
    {
      "inputs": [],
      "name": "randomInRange",
      "outputs": [
        {
          "internalType": "uint256",
          "name": "",
          "type": "uint256"
        }
      ],
      "stateMutability": "view",
      "type": "function"
    },
    {
      "inputs": [],
      "name": "renounceOwnership",
      "outputs": [],
      "stateMutability": "nonpayable",
      "type": "function"
    },
    {
      "inputs": [
        {
          "internalType": "address",
          "name": "from",
          "type": "address"
        },
        {
          "internalType": "address",
          "name": "to",
          "type": "address"
        },
        {
          "internalType": "uint256",
          "name": "tokenId",
          "type": "uint256"
        }
      ],
      "name": "safeTransferFrom",
      "outputs": [],
      "stateMutability": "nonpayable",
      "type": "function"
    },
    {
      "inputs": [
        {
          "internalType": "address",
          "name": "from",
          "type": "address"
        },
        {
          "internalType": "address",
          "name": "to",
          "type": "address"
        },
        {
          "internalType": "uint256",
          "name": "tokenId",
          "type": "uint256"
        },
        {
          "internalType": "bytes",
          "name": "data",
          "type": "bytes"
        }
      ],
      "name": "safeTransferFrom",
      "outputs": [],
      "stateMutability": "nonpayable",
      "type": "function"
    },
    {
      "inputs": [
        {
          "internalType": "address",
          "name": "operator",
          "type": "address"
        },
        {
          "internalType": "bool",
          "name": "approved",
          "type": "bool"
        }
      ],
      "name": "setApprovalForAll",
      "outputs": [],
      "stateMutability": "nonpayable",
      "type": "function"
    },
    {
      "inputs": [
        {
          "internalType": "address",
          "name": "_airnode",
          "type": "address"
        },
        {
          "internalType": "bytes32",
          "name": "_endpointIdUint256",
          "type": "bytes32"
        },
        {
          "internalType": "address",
          "name": "_sponsorWallet",
          "type": "address"
        }
      ],
      "name": "setRequestParameters",
      "outputs": [],
      "stateMutability": "nonpayable",
      "type": "function"
    },
    {
      "inputs": [],
      "name": "sponsorWallet",
      "outputs": [
        {
          "internalType": "address",
          "name": "",
          "type": "address"
        }
      ],
      "stateMutability": "view",
      "type": "function"
    },
    {
      "inputs": [],
      "name": "startGame",
      "outputs": [],
      "stateMutability": "nonpayable",
      "type": "function"
    },
    {
      "inputs": [],
      "name": "stopGame",
      "outputs": [],
      "stateMutability": "nonpayable",
      "type": "function"
    },
    {
      "inputs": [
        {
          "internalType": "bytes4",
          "name": "interfaceId",
          "type": "bytes4"
        }
      ],
      "name": "supportsInterface",
      "outputs": [
        {
          "internalType": "bool",
          "name": "",
          "type": "bool"
        }
      ],
      "stateMutability": "view",
      "type": "function"
    },
    {
      "inputs": [],
      "name": "symbol",
      "outputs": [
        {
          "internalType": "string",
          "name": "",
          "type": "string"
        }
      ],
      "stateMutability": "view",
      "type": "function"
    },
    {
      "inputs": [
        {
          "internalType": "address",
          "name": "_victim",
          "type": "address"
        }
      ],
      "name": "throwSnowball",
      "outputs": [],
      "stateMutability": "nonpayable",
      "type": "function"
    },
    {
      "inputs": [
        {
          "internalType": "uint256",
          "name": "_tokenId",
          "type": "uint256"
        }
      ],
      "name": "tokenURI",
      "outputs": [
        {
          "internalType": "string",
          "name": "",
          "type": "string"
        }
      ],
      "stateMutability": "view",
      "type": "function"
    },
    {
      "inputs": [
        {
          "internalType": "address",
          "name": "from",
          "type": "address"
        },
        {
          "internalType": "address",
          "name": "to",
          "type": "address"
        },
        {
          "internalType": "uint256",
          "name": "tokenId",
          "type": "uint256"
        }
      ],
      "name": "transferFrom",
      "outputs": [],
      "stateMutability": "nonpayable",
      "type": "function"
    },
    {
      "inputs": [
        {
          "internalType": "address",
          "name": "newOwner",
          "type": "address"
        }
      ],
      "name": "transferOwnership",
      "outputs": [],
      "stateMutability": "nonpayable",
      "type": "function"
    },
    {
      "inputs": [
        {
          "internalType": "uint256",
          "name": "_characterIndex",
          "type": "uint256"
        },
        {
          "internalType": "uint256",
          "name": "_newAttack",
          "type": "uint256"
        }
      ],
      "name": "updateCharacterAttack",
      "outputs": [],
      "stateMutability": "nonpayable",
      "type": "function"
    },
    {
      "inputs": [
        {
          "internalType": "uint256",
          "name": "_characterIndex",
          "type": "uint256"
        },
        {
          "internalType": "uint256",
          "name": "_newDefense",
          "type": "uint256"
        }
      ],
      "name": "updateCharacterDefense",
      "outputs": [],
      "stateMutability": "nonpayable",
      "type": "function"
    },
    {
      "inputs": [
        {
          "internalType": "uint256",
          "name": "_characterIndex",
          "type": "uint256"
        },
        {
          "internalType": "uint256",
          "name": "_newEvade",
          "type": "uint256"
        }
      ],
      "name": "updateCharacterEvade",
      "outputs": [],
      "stateMutability": "nonpayable",
      "type": "function"
    },
    {
      "inputs": [
        {
          "internalType": "uint256",
          "name": "_characterIndex",
          "type": "uint256"
        },
        {
          "internalType": "uint256",
          "name": "_newHp",
          "type": "uint256"
        }
      ],
      "name": "updateCharacterHp",
      "outputs": [],
      "stateMutability": "nonpayable",
      "type": "function"
    },
    {
      "inputs": [
        {
          "internalType": "uint256",
          "name": "_characterIndex",
          "type": "uint256"
        },
        {
          "internalType": "string",
          "name": "_newImageURI",
          "type": "string"
        }
      ],
      "name": "updateCharacterImageURI",
      "outputs": [],
      "stateMutability": "nonpayable",
      "type": "function"
    },
    {
      "inputs": [
        {
          "internalType": "uint256",
          "name": "_characterIndex",
          "type": "uint256"
        },
        {
          "internalType": "string",
          "name": "_newName",
          "type": "string"
        }
      ],
      "name": "updateCharacterName",
      "outputs": [],
      "stateMutability": "nonpayable",
      "type": "function"
    },
    {
      "inputs": [],
      "name": "withdraw",
      "outputs": [],
      "stateMutability": "nonpayable",
      "type": "function"
    }
  ],
  "bytecode": "0x60a060405260016007556008805460ff191690553480156200002057600080fd5b5060405162003e6038038062003e60833981016040819052620000439162000573565b85858585858560405180604001604052806007815260200166536e6f7764617960c81b8152506040518060400160405280600381526020016250505360e81b8152508e806001600160a01b03166080816001600160a01b031681525050806001600160a01b031663addf027c3060016040518363ffffffff1660e01b8152600401620000e69291906001600160a01b039290921682521515602082015260400190565b600060405180830381600087803b1580156200010157600080fd5b505af115801562000116573d6000803e3d6000fd5b505050505081600090816200012c91906200071e565b5060016200013b82826200071e565b50505062000158620001526200031360201b60201c565b62000317565b60005b8651811015620002ff5760096040518061010001604052808381526020018984815181106200018e576200018e620007ea565b60200260200101518152602001888481518110620001b057620001b0620007ea565b60200260200101518152602001878481518110620001d257620001d2620007ea565b60200260200101518152602001878481518110620001f457620001f4620007ea565b60200260200101518152602001868481518110620002165762000216620007ea565b60200260200101518152602001858481518110620002385762000238620007ea565b602002602001015181526020018484815181106200025a576200025a620007ea565b60209081029190910181015190915282546001818101855560009485529382902083516008909202019081559082015191929091908201906200029e90826200071e565b5060408201516002820190620002b590826200071e565b50606082015160038201556080820151600482015560a0820151600582015560c0820151600682015560e090910151600790910155620002f760018262000800565b90506200015b565b505050505050505050505050505062000828565b3390565b600680546001600160a01b038381166001600160a01b0319831681179093556040519116919082907f8be0079c531659141344cd1fd0a4f28419497f9722a3daafe3b4186f6b6457e090600090a35050565b80516001600160a01b03811681146200038157600080fd5b919050565b634e487b7160e01b600052604160045260246000fd5b604051601f8201601f191681016001600160401b0381118282101715620003c757620003c762000386565b604052919050565b60006001600160401b03821115620003eb57620003eb62000386565b5060051b60200190565b6000601f83818401126200040857600080fd5b82516020620004216200041b83620003cf565b6200039c565b82815260059290921b850181019181810190878411156200044157600080fd5b8287015b84811015620004fa5780516001600160401b0380821115620004675760008081fd5b818a0191508a603f8301126200047d5760008081fd5b858201518181111562000494576200049462000386565b620004a7818a01601f191688016200039c565b915080825260408c81838601011115620004c15760008081fd5b60005b82811015620004e1578481018201518482018a01528801620004c4565b5050600090820187015284525091830191830162000445565b50979650505050505050565b600082601f8301126200051857600080fd5b815160206200052b6200041b83620003cf565b82815260059290921b840181019181810190868411156200054b57600080fd5b8286015b848110156200056857805183529183019183016200054f565b509695505050505050565b600080600080600080600060e0888a0312156200058f57600080fd5b6200059a8862000369565b60208901519097506001600160401b0380821115620005b857600080fd5b620005c68b838c01620003f5565b975060408a0151915080821115620005dd57600080fd5b620005eb8b838c01620003f5565b965060608a01519150808211156200060257600080fd5b620006108b838c0162000506565b955060808a01519150808211156200062757600080fd5b620006358b838c0162000506565b945060a08a01519150808211156200064c57600080fd5b6200065a8b838c0162000506565b935060c08a01519150808211156200067157600080fd5b50620006808a828b0162000506565b91505092959891949750929550565b600181811c90821680620006a457607f821691505b602082108103620006c557634e487b7160e01b600052602260045260246000fd5b50919050565b601f8211156200071957600081815260208120601f850160051c81016020861015620006f45750805b601f850160051c820191505b81811015620007155782815560010162000700565b5050505b505050565b81516001600160401b038111156200073a576200073a62000386565b62000752816200074b84546200068f565b84620006cb565b602080601f8311600181146200078a5760008415620007715750858301515b600019600386901b1c1916600185901b17855562000715565b600085815260208120601f198616915b82811015620007bb578886015182559484019460019091019084016200079a565b5085821015620007da5787850151600019600388901b60f8161c191681555b5050505050600190811b01905550565b634e487b7160e01b600052603260045260246000fd5b808201808211156200082257634e487b7160e01b600052601160045260246000fd5b92915050565b6080516136076200085960003960008181610406015281816109d901528181610b6f01526112c101526136076000f3fe608060405234801561001057600080fd5b506004361061028a5760003560e01c80638397671d1161015c578063b88d4fde116100ce578063d65ab5f211610087578063d65ab5f214610607578063d8850e171461060f578063e985e9c514610622578063ee0702ac14610635578063f2fde38b14610648578063fe5c873a1461065b57600080fd5b8063b88d4fde14610593578063b953084e146105a6578063baabd046146105bb578063bf90fb4e146105ce578063c87b56dd146105e1578063cdb489b0146105f457600080fd5b806395d89b411161012057806395d89b411461051857806398da4c9514610520578063a22cb46514610547578063a36ff4d81461055a578063a5d713851461056d578063ab4aaff81461058057600080fd5b80638397671d146104a657806383bd72ba146104b9578063851244f7146104c1578063875eee29146104e45780638da5cb5b1461050757600080fd5b806342842e0e11610200578063715018a6116101b9578063715018a6146103f957806371bab6661461040157806375794a3c1461042857806375bfffa4146104315780637bdf2525146104445780637df124a11461048657600080fd5b806342842e0e1461037a5780635ca275771461038d5780636352211e146103a0578063669c73f9146103b35780636fe0c046146103c657806370a08231146103e657600080fd5b8063095ea7b311610252578063095ea7b31461031b5780631929829a146103305780631cdda0ef1461034357806323b872dd1461034c5780633718d90a1461035f5780633ccfd60b1461037257600080fd5b806301ffc9a71461028f5780630422ddf3146102b757806306fdde03146102c457806307b9fc57146102d9578063081812fc146102f0575b600080fd5b6102a261029d366004612a37565b61066e565b60405190151581526020015b60405180910390f35b6008546102a29060ff1681565b6102cc6106c0565b6040516102ae9190612aa4565b6102e2600d5481565b6040519081526020016102ae565b6103036102fe366004612ab7565b610752565b6040516001600160a01b0390911681526020016102ae565b61032e610329366004612ae7565b610779565b005b61032e61033e366004612bbd565b610893565b6102e2600f5481565b61032e61035a366004612c44565b61099d565b61032e61036d366004612c80565b6109ce565b61032e610b42565b61032e610388366004612c44565b610bcf565b61032e61039b366004612cfc565b610bea565b6103036103ae366004612ab7565b610c1f565b61032e6103c1366004612d1e565b610c7f565b6103d96103d4366004612ab7565b610cb8565b6040516102ae9190612dde565b6102e26103f4366004612df1565b610e46565b61032e610ecc565b6103037f000000000000000000000000000000000000000000000000000000000000000081565b6102e260075481565b6103d961043f366004612df1565b610ee0565b61032e610452366004612e0c565b600c80546001600160a01b039485166001600160a01b031991821617909155600d92909255600e8054919093169116179055565b6102e2610494366004612df1565b600b6020526000908152604090205481565b61032e6104b4366004612cfc565b6110a3565b61032e6110d8565b6102a26104cf366004612ab7565b60106020526000908152604090205460ff1681565b6102e26104f2366004612ab7565b6000908152600a602052604090206003015490565b6006546001600160a01b0316610303565b6102cc6110ef565b61053361052e366004612ab7565b6110fe565b6040516102ae989796959493929190612e48565b61032e610555366004612ea2565b61124f565b600c54610303906001600160a01b031681565b61032e61057b366004612ede565b61125e565b61032e61058e366004612d1e565b6113b0565b61032e6105a1366004612f11565b6113e9565b6105ae61141b565b6040516102ae9190612f8d565b61032e6105c9366004612df1565b6115db565b600e54610303906001600160a01b031681565b6102cc6105ef366004612ab7565b61165e565b61032e610602366004612cfc565b611895565b61032e6118ca565b61032e61061d366004612cfc565b6118de565b6102a2610630366004612ede565b611913565b6102a2610643366004612df1565b611941565b61032e610656366004612df1565b611968565b61032e610669366004612ab7565b6119de565b60006001600160e01b031982166380ac58cd60e01b148061069f57506001600160e01b03198216635b5e139f60e01b145b806106ba57506301ffc9a760e01b6001600160e01b03198316145b92915050565b6060600080546106cf90612fef565b80601f01602080910402602001604051908101604052809291908181526020018280546106fb90612fef565b80156107485780601f1061071d57610100808354040283529160200191610748565b820191906000526020600020905b81548152906001019060200180831161072b57829003601f168201915b5050505050905090565b600061075d82611d59565b506000908152600460205260409020546001600160a01b031690565b600061078482610c1f565b9050806001600160a01b0316836001600160a01b0316036107f65760405162461bcd60e51b815260206004820152602160248201527f4552433732313a20617070726f76616c20746f2063757272656e74206f776e656044820152603960f91b60648201526084015b60405180910390fd5b336001600160a01b038216148061081257506108128133611913565b6108845760405162461bcd60e51b815260206004820152603d60248201527f4552433732313a20617070726f76652063616c6c6572206973206e6f7420746f60448201527f6b656e206f776e6572206f7220617070726f76656420666f7220616c6c00000060648201526084016107ed565b61088e8383611db8565b505050565b61089b611e26565b604080516101008101825260098054808352602083018a8152938301899052606083018890526080830188905260a0830187905260c0830186905260e08301859052600181018255600091909152815160089091027f6e1540171b6c0c960b71a7020d9f60077f6af931a8bbf590da0223dacf75c7af81019182559251919290917f6e1540171b6c0c960b71a7020d9f60077f6af931a8bbf590da0223dacf75c7b09091019061094b9082613071565b50604082015160028201906109609082613071565b50606082015181600301556080820151816004015560a0820151816005015560c0820151816006015560e082015181600701555050505050505050565b6109a73382611e80565b6109c35760405162461bcd60e51b81526004016107ed90613131565b61088e838383611edf565b336001600160a01b037f00000000000000000000000000000000000000000000000000000000000000001614610a3f5760405162461bcd60e51b8152602060048201526016602482015275043616c6c6572206e6f74204169726e6f6465205252560541b60448201526064016107ed565b60008381526010602052604090205460ff16610a945760405162461bcd60e51b81526020600482015260146024820152732932b8bab2b9ba1024a2103737ba1035b737bbb760611b60448201526064016107ed565b6000838152601060205260408120805460ff19169055610ab682840184612ab7565b9050610ac3606482613194565b610ace9060016131be565b600f81905560008581526011602052604090208054600190910154610b02926001600160a01b039283169290911690612043565b837f1ca47bacd454c26163f84eff4aa514e291ba9fa67ad6029e39567c122bbed30f82604051610b3491815260200190565b60405180910390a250505050565b600c54600e54604051631d414cbd60e01b81526001600160a01b03928316600482015290821660248201527f000000000000000000000000000000000000000000000000000000000000000090911690631d414cbd90604401600060405180830381600087803b158015610bb557600080fd5b505af1158015610bc9573d6000803e3d6000fd5b50505050565b61088e838383604051806020016040528060008152506113e9565b610bf2611e26565b8060098381548110610c0657610c066131d1565b9060005260206000209060080201600601819055505050565b6000818152600260205260408120546001600160a01b0316806106ba5760405162461bcd60e51b8152602060048201526018602482015277115490cdcc8c4e881a5b9d985b1a59081d1bdad95b88125160421b60448201526064016107ed565b610c87611e26565b8060098381548110610c9b57610c9b6131d1565b9060005260206000209060080201600101908161088e9190613071565b610cc061296f565b600a60008381526020019081526020016000206040518061010001604052908160008201548152602001600182018054610cf990612fef565b80601f0160208091040260200160405190810160405280929190818152602001828054610d2590612fef565b8015610d725780601f10610d4757610100808354040283529160200191610d72565b820191906000526020600020905b815481529060010190602001808311610d5557829003601f168201915b50505050508152602001600282018054610d8b90612fef565b80601f0160208091040260200160405190810160405280929190818152602001828054610db790612fef565b8015610e045780601f10610dd957610100808354040283529160200191610e04565b820191906000526020600020905b815481529060010190602001808311610de757829003601f168201915b50505050508152602001600382015481526020016004820154815260200160058201548152602001600682015481526020016007820154815250509050919050565b60006001600160a01b038216610eb05760405162461bcd60e51b815260206004820152602960248201527f4552433732313a2061646472657373207a65726f206973206e6f7420612076616044820152683634b21037bbb732b960b91b60648201526084016107ed565b506001600160a01b031660009081526003602052604090205490565b610ed4611e26565b610ede6000612226565b565b610ee861296f565b6001600160a01b0382166000908152600b6020526040902054801561108e57600a60008281526020019081526020016000206040518061010001604052908160008201548152602001600182018054610f4090612fef565b80601f0160208091040260200160405190810160405280929190818152602001828054610f6c90612fef565b8015610fb95780601f10610f8e57610100808354040283529160200191610fb9565b820191906000526020600020905b815481529060010190602001808311610f9c57829003601f168201915b50505050508152602001600282018054610fd290612fef565b80601f0160208091040260200160405190810160405280929190818152602001828054610ffe90612fef565b801561104b5780601f106110205761010080835404028352916020019161104b565b820191906000526020600020905b81548152906001019060200180831161102e57829003601f168201915b5050505050815260200160038201548152602001600482015481526020016005820154815260200160068201548152602001600782015481525050915050919050565b61109661296f565b9392505050565b50919050565b6110ab611e26565b80600983815481106110bf576110bf6131d1565b9060005260206000209060080201600701819055505050565b6110e0611e26565b6008805460ff19166001179055565b6060600180546106cf90612fef565b600a602052600090815260409020805460018201805491929161112090612fef565b80601f016020809104026020016040519081016040528092919081815260200182805461114c90612fef565b80156111995780601f1061116e57610100808354040283529160200191611199565b820191906000526020600020905b81548152906001019060200180831161117c57829003601f168201915b5050505050908060020180546111ae90612fef565b80601f01602080910402602001604051908101604052809291908181526020018280546111da90612fef565b80156112275780601f106111fc57610100808354040283529160200191611227565b820191906000526020600020905b81548152906001019060200180831161120a57829003601f168201915b5050505050908060030154908060040154908060050154908060060154908060070154905088565b61125a338383612278565b5050565b600c54600d54600e54604051636e6be03f60e01b81526001600160a01b0393841660048201526024810192909252306044830181905290831660648301526084820152631b8c6c8560e11b60a482015260e060c4820152600060e48201819052917f00000000000000000000000000000000000000000000000000000000000000001690636e6be03f90610104016020604051808303816000875af115801561130b573d6000803e3d6000fd5b505050506040513d601f19601f8201168201806040525081019061132f91906131e7565b6000818152601060209081526040808320805460ff19166001179055805180820182526001600160a01b038089168252871681840152848452601190925290912091925061137f919060026129b4565b5060405181907ff039428b095c79c12e434981caacc36fbc90eede12232a5fdc82b0beeddf3c2090600090a2505050565b6113b8611e26565b80600983815481106113cc576113cc6131d1565b9060005260206000209060080201600201908161088e9190613071565b6113f33383611e80565b61140f5760405162461bcd60e51b81526004016107ed90613131565b610bc984848484612346565b60606009805480602002602001604051908101604052809291908181526020016000905b828210156115d25783829060005260206000209060080201604051806101000160405290816000820154815260200160018201805461147d90612fef565b80601f01602080910402602001604051908101604052809291908181526020018280546114a990612fef565b80156114f65780601f106114cb576101008083540402835291602001916114f6565b820191906000526020600020905b8154815290600101906020018083116114d957829003601f168201915b5050505050815260200160028201805461150f90612fef565b80601f016020809104026020016040519081016040528092919081815260200182805461153b90612fef565b80156115885780601f1061155d57610100808354040283529160200191611588565b820191906000526020600020905b81548152906001019060200180831161156b57829003601f168201915b50505050508152602001600382015481526020016004820154815260200160058201548152602001600682015481526020016007820154815250508152602001906001019061143f565b50505050905090565b60085460ff16156115ff576040516313d0ff5960e31b815260040160405180910390fd5b61160833610e46565b600003611628576040516354abb27f60e01b815260040160405180910390fd5b61163181610e46565b600003611651576040516313eb680960e01b815260040160405180910390fd5b61165b813361125e565b50565b6000818152600a602090815260408083208151610100810190925280548252600181018054606095948401919061169490612fef565b80601f01602080910402602001604051908101604052809291908181526020018280546116c090612fef565b801561170d5780601f106116e25761010080835404028352916020019161170d565b820191906000526020600020905b8154815290600101906020018083116116f057829003601f168201915b5050505050815260200160028201805461172690612fef565b80601f016020809104026020016040519081016040528092919081815260200182805461175290612fef565b801561179f5780601f106117745761010080835404028352916020019161179f565b820191906000526020600020905b81548152906001019060200180831161178257829003601f168201915b5050505050815260200160038201548152602001600482015481526020016005820154815260200160068201548152602001600782015481525050905060006117eb8260600151612379565b905060006117fc8360800151612379565b9050600061180d8460a00151612379565b9050600061181e8560c00151612379565b9050600061186686602001516118338a612379565b886040015188888888604051602001611852979695949392919061321c565b60405160208183030381529060405261240c565b9050806040516020016118799190613404565b6040516020818303038152906040529650505050505050919050565b61189d611e26565b80600983815481106118b1576118b16131d1565b9060005260206000209060080201600501819055505050565b6118d2611e26565b6008805460ff19169055565b6118e6611e26565b80600983815481106118fa576118fa6131d1565b9060005260206000209060080201600401819055505050565b6001600160a01b03918216600090815260056020908152604080832093909416825291909152205460ff1690565b60008061194d83610e46565b111561195b57506001919050565b506000919050565b919050565b611970611e26565b6001600160a01b0381166119d55760405162461bcd60e51b815260206004820152602660248201527f4f776e61626c653a206e6577206f776e657220697320746865207a65726f206160448201526564647265737360d01b60648201526084016107ed565b61165b81612226565b60085460ff1615611a02576040516313d0ff5960e31b815260040160405180910390fd5b6000611a0d33610e46565b1115611a2c57604051637c1a195560e01b815260040160405180910390fd5b611a3833600754612576565b60405180610100016040528082815260200160098381548110611a5d57611a5d6131d1565b90600052602060002090600802016001018054611a7990612fef565b80601f0160208091040260200160405190810160405280929190818152602001828054611aa590612fef565b8015611af25780601f10611ac757610100808354040283529160200191611af2565b820191906000526020600020905b815481529060010190602001808311611ad557829003601f168201915b5050505050815260200160098381548110611b0f57611b0f6131d1565b90600052602060002090600802016002018054611b2b90612fef565b80601f0160208091040260200160405190810160405280929190818152602001828054611b5790612fef565b8015611ba45780601f10611b7957610100808354040283529160200191611ba4565b820191906000526020600020905b815481529060010190602001808311611b8757829003601f168201915b5050505050815260200160098381548110611bc157611bc16131d1565b906000526020600020906008020160030154815260200160098381548110611beb57611beb6131d1565b906000526020600020906008020160030154815260200160098381548110611c1557611c156131d1565b906000526020600020906008020160050154815260200160098381548110611c3f57611c3f6131d1565b906000526020600020906008020160060154815260200160098381548110611c6957611c696131d1565b600091825260208083206007600890930201820154909352548152600a82526040902082518155908201516001820190611ca39082613071565b5060408201516002820190611cb89082613071565b50606082015160038201556080820151600482015560a0820151600582015560c0820151600682015560e0909101516007918201558054336000908152600b60205260408120829055909190611d0d83613449565b909155505060075460408051338152602081019290925281018290527f4bc303fd457a97b4691b9af582ce71868a3d258638c8d4f8c60988a0f0bfb8cd9060600160405180910390a150565b6000818152600260205260409020546001600160a01b031661165b5760405162461bcd60e51b8152602060048201526018602482015277115490cdcc8c4e881a5b9d985b1a59081d1bdad95b88125160421b60448201526064016107ed565b600081815260046020526040902080546001600160a01b0319166001600160a01b0384169081179091558190611ded82610c1f565b6001600160a01b03167f8c5be1e5ebec7d5bd14f71427d1e84f3dd0314c0f7b2291e5b200ac8c7c3b92560405160405180910390a45050565b6006546001600160a01b03163314610ede5760405162461bcd60e51b815260206004820181905260248201527f4f776e61626c653a2063616c6c6572206973206e6f7420746865206f776e657260448201526064016107ed565b600080611e8c83610c1f565b9050806001600160a01b0316846001600160a01b03161480611eb35750611eb38185611913565b80611ed75750836001600160a01b0316611ecc84610752565b6001600160a01b0316145b949350505050565b826001600160a01b0316611ef282610c1f565b6001600160a01b031614611f185760405162461bcd60e51b81526004016107ed90613462565b6001600160a01b038216611f7a5760405162461bcd60e51b8152602060048201526024808201527f4552433732313a207472616e7366657220746f20746865207a65726f206164646044820152637265737360e01b60648201526084016107ed565b826001600160a01b0316611f8d82610c1f565b6001600160a01b031614611fb35760405162461bcd60e51b81526004016107ed90613462565b600081815260046020908152604080832080546001600160a01b03199081169091556001600160a01b0387811680865260038552838620805460001901905590871680865283862080546001019055868652600290945282852080549092168417909155905184937fddf252ad1be2c89b69c2b068fc378daa952ba7f163c4a11628f55a4df523b3ef91a4505050565b60085460ff1615612067576040516313d0ff5960e31b815260040160405180910390fd5b61207083610e46565b600003612090576040516313eb680960e01b815260040160405180910390fd5b6001600160a01b038083166000908152600b6020908152604080832054938716835280832054848452600a909252808320828452922060078101549192916120d99060326134a7565b85111561212c57604080516001600160a01b038089168252891660208201527faafa4be7ba57bc03734289a43be057552a15f868d6e71495af22986da576dac0910160405180910390a150505050505050565b6000816006015483600501548761214391906131be565b61214d91906134a7565b905081600301548111156121b35761216484612701565b604080516001600160a01b038a811682526020820187905289168183015290517f345dbdb55ee78a22d5de8124ef7d24a78314b38f44bc9d3cc50ab9f06e13f2f49181900360600190a161221c565b8082600301546121c391906134a7565b60038301819055604080516001600160a01b038a811682528b1660208201528082018490526060810192909252517fa3d731e36de965a3a18800c9550bff56511a732ecf82a444ca0b48712488460b9181900360800190a15b5050505050505050565b600680546001600160a01b038381166001600160a01b0319831681179093556040519116919082907f8be0079c531659141344cd1fd0a4f28419497f9722a3daafe3b4186f6b6457e090600090a35050565b816001600160a01b0316836001600160a01b0316036122d95760405162461bcd60e51b815260206004820152601960248201527f4552433732313a20617070726f766520746f2063616c6c65720000000000000060448201526064016107ed565b6001600160a01b03838116600081815260056020908152604080832094871680845294825291829020805460ff191686151590811790915591519182527f17307eab39ab6107e8899845ad3d59bd9653f200f220920489ca2b5937696c31910160405180910390a3505050565b612351848484611edf565b61235d84848484612796565b610bc95760405162461bcd60e51b81526004016107ed906134ba565b6060600061238683612897565b600101905060008167ffffffffffffffff8111156123a6576123a6612b11565b6040519080825280601f01601f1916602001820160405280156123d0576020820181803683370190505b5090508181016020015b600019016f181899199a1a9b1b9c1cb0b131b232b360811b600a86061a8153600a85049450846123da57509392505050565b80516060906000819003612430575050604080516020810190915260008152919050565b6000600361243f8360026131be565b612449919061350c565b612454906004613520565b905060006124638260206131be565b67ffffffffffffffff81111561247b5761247b612b11565b6040519080825280601f01601f1916602001820160405280156124a5576020820181803683370190505b5090506000604051806060016040528060408152602001613592604091399050600181016020830160005b86811015612531576003818a01810151603f601282901c8116860151600c83901c8216870151600684901c831688015192909316870151600891821b60ff94851601821b92841692909201901b91160160e01b8352600490920191016124d0565b50600386066001811461254b576002811461255c57612568565b613d3d60f01b600119830152612568565b603d60f81b6000198301525b505050918152949350505050565b6001600160a01b0382166125cc5760405162461bcd60e51b815260206004820181905260248201527f4552433732313a206d696e7420746f20746865207a65726f206164647265737360448201526064016107ed565b6000818152600260205260409020546001600160a01b0316156126315760405162461bcd60e51b815260206004820152601c60248201527f4552433732313a20746f6b656e20616c7265616479206d696e7465640000000060448201526064016107ed565b6000818152600260205260409020546001600160a01b0316156126965760405162461bcd60e51b815260206004820152601c60248201527f4552433732313a20746f6b656e20616c7265616479206d696e7465640000000060448201526064016107ed565b6001600160a01b038216600081815260036020908152604080832080546001019055848352600290915280822080546001600160a01b0319168417905551839291907fddf252ad1be2c89b69c2b068fc378daa952ba7f163c4a11628f55a4df523b3ef908290a45050565b600061270c82610c1f565b905061271782610c1f565b600083815260046020908152604080832080546001600160a01b03199081169091556001600160a01b0385168085526003845282852080546000190190558785526002909352818420805490911690555192935084927fddf252ad1be2c89b69c2b068fc378daa952ba7f163c4a11628f55a4df523b3ef908390a45050565b60006001600160a01b0384163b1561288c57604051630a85bd0160e11b81526001600160a01b0385169063150b7a02906127da903390899088908890600401613537565b6020604051808303816000875af1925050508015612815575060408051601f3d908101601f1916820190925261281291810190613574565b60015b612872573d808015612843576040519150601f19603f3d011682016040523d82523d6000602084013e612848565b606091505b50805160000361286a5760405162461bcd60e51b81526004016107ed906134ba565b805181602001fd5b6001600160e01b031916630a85bd0160e11b149050611ed7565b506001949350505050565b60008072184f03e93ff9f4daa797ed6e38ed64bf6a1f0160401b83106128d65772184f03e93ff9f4daa797ed6e38ed64bf6a1f0160401b830492506040015b6d04ee2d6d415b85acef81000000008310612902576d04ee2d6d415b85acef8100000000830492506020015b662386f26fc10000831061292057662386f26fc10000830492506010015b6305f5e1008310612938576305f5e100830492506008015b612710831061294c57612710830492506004015b6064831061295e576064830492506002015b600a83106106ba5760010192915050565b60405180610100016040528060008152602001606081526020016060815260200160008152602001600081526020016000815260200160008152602001600081525090565b82600281019282156129fc579160200282015b828111156129fc57825182546001600160a01b0319166001600160a01b039091161782556020909201916001909101906129c7565b50612a08929150612a0c565b5090565b5b80821115612a085760008155600101612a0d565b6001600160e01b03198116811461165b57600080fd5b600060208284031215612a4957600080fd5b813561109681612a21565b60005b83811015612a6f578181015183820152602001612a57565b50506000910152565b60008151808452612a90816020860160208601612a54565b601f01601f19169290920160200192915050565b6020815260006110966020830184612a78565b600060208284031215612ac957600080fd5b5035919050565b80356001600160a01b038116811461196357600080fd5b60008060408385031215612afa57600080fd5b612b0383612ad0565b946020939093013593505050565b634e487b7160e01b600052604160045260246000fd5b600067ffffffffffffffff80841115612b4257612b42612b11565b604051601f8501601f19908116603f01168101908282118183101715612b6a57612b6a612b11565b81604052809350858152868686011115612b8357600080fd5b858560208301376000602087830101525050509392505050565b600082601f830112612bae57600080fd5b61109683833560208501612b27565b60008060008060008060c08789031215612bd657600080fd5b863567ffffffffffffffff80821115612bee57600080fd5b612bfa8a838b01612b9d565b97506020890135915080821115612c1057600080fd5b50612c1d89828a01612b9d565b96999698505050506040850135946060810135946080820135945060a09091013592509050565b600080600060608486031215612c5957600080fd5b612c6284612ad0565b9250612c7060208501612ad0565b9150604084013590509250925092565b600080600060408486031215612c9557600080fd5b83359250602084013567ffffffffffffffff80821115612cb457600080fd5b818601915086601f830112612cc857600080fd5b813581811115612cd757600080fd5b876020828501011115612ce957600080fd5b6020830194508093505050509250925092565b60008060408385031215612d0f57600080fd5b50508035926020909101359150565b60008060408385031215612d3157600080fd5b82359150602083013567ffffffffffffffff811115612d4f57600080fd5b612d5b85828601612b9d565b9150509250929050565b6000610100825184526020830151816020860152612d8582860182612a78565b91505060408301518482036040860152612d9f8282612a78565b915050606083015160608501526080830151608085015260a083015160a085015260c083015160c085015260e083015160e08501528091505092915050565b6020815260006110966020830184612d65565b600060208284031215612e0357600080fd5b61109682612ad0565b600080600060608486031215612e2157600080fd5b612e2a84612ad0565b925060208401359150612e3f60408501612ad0565b90509250925092565b60006101008a8352806020840152612e628184018b612a78565b90508281036040840152612e76818a612a78565b60608401989098525050608081019490945260a084019290925260c083015260e0909101529392505050565b60008060408385031215612eb557600080fd5b612ebe83612ad0565b915060208301358015158114612ed357600080fd5b809150509250929050565b60008060408385031215612ef157600080fd5b612efa83612ad0565b9150612f0860208401612ad0565b90509250929050565b60008060008060808587031215612f2757600080fd5b612f3085612ad0565b9350612f3e60208601612ad0565b925060408501359150606085013567ffffffffffffffff811115612f6157600080fd5b8501601f81018713612f7257600080fd5b612f8187823560208401612b27565b91505092959194509250565b6000602080830181845280855180835260408601915060408160051b870101925083870160005b82811015612fe257603f19888603018452612fd0858351612d65565b94509285019290850190600101612fb4565b5092979650505050505050565b600181811c9082168061300357607f821691505b60208210810361109d57634e487b7160e01b600052602260045260246000fd5b601f82111561088e57600081815260208120601f850160051c8101602086101561304a5750805b601f850160051c820191505b8181101561306957828155600101613056565b505050505050565b815167ffffffffffffffff81111561308b5761308b612b11565b61309f816130998454612fef565b84613023565b602080601f8311600181146130d457600084156130bc5750858301515b600019600386901b1c1916600185901b178555613069565b600085815260208120601f198616915b82811015613103578886015182559484019460019091019084016130e4565b50858210156131215787850151600019600388901b60f8161c191681555b5050505050600190811b01905550565b6020808252602d908201527f4552433732313a2063616c6c6572206973206e6f7420746f6b656e206f776e6560408201526c1c881bdc88185c1c1c9bdd9959609a1b606082015260800190565b634e487b7160e01b600052601260045260246000fd5b6000826131a3576131a361317e565b500690565b634e487b7160e01b600052601160045260246000fd5b808201808211156106ba576106ba6131a8565b634e487b7160e01b600052603260045260246000fd5b6000602082840312156131f957600080fd5b5051919050565b60008151613212818560208601612a54565b9290920192915050565b693d913730b6b2911d101160b11b8152875160009061324281600a850160208d01612a54565b6a01016969027232a10119d160ad1b600a91840191820152885161326d816015840160208d01612a54565b7f222c20226465736372697074696f6e223a202254686520507564677920536e6f601592909101918201527f7762616c6c2047616d6521222c2022696d616765223a20220000000000000000603582015287516132d181604d840160208c01612a54565b7f222c202261747472696275746573223a205b207b2274726169745f7479706522604d92909101918201527f3a20224865616c746820506f696e7473222c202276616c7565223a2000000000606d8201526133f66133e76133e16133a96133a361336561335f613344608989018f613200565b6e016101136b0bc2fbb30b63ab2911d1608d1b8152600f0190565b8c613200565b7f7d2c207b2274726169745f74797065223a202241747461636b2044616d61676581526b0111610113b30b63ab2911d160a51b6020820152602c0190565b89613200565b7f7d2c207b2274726169745f74797065223a2022446566656e7365222c202276618152650363ab2911d160d51b602082015260260190565b86613200565b627d5d7d60e81b815260030190565b9a9950505050505050505050565b7f646174613a6170706c69636174696f6e2f6a736f6e3b6261736536342c00000081526000825161343c81601d850160208701612a54565b91909101601d0192915050565b60006001820161345b5761345b6131a8565b5060010190565b60208082526025908201527f4552433732313a207472616e736665722066726f6d20696e636f72726563742060408201526437bbb732b960d91b606082015260800190565b818103818111156106ba576106ba6131a8565b60208082526032908201527f4552433732313a207472616e7366657220746f206e6f6e20455243373231526560408201527131b2b4bb32b91034b6b83632b6b2b73a32b960711b606082015260800190565b60008261351b5761351b61317e565b500490565b80820281158282048414176106ba576106ba6131a8565b6001600160a01b038581168252841660208201526040810183905260806060820181905260009061356a90830184612a78565b9695505050505050565b60006020828403121561358657600080fd5b815161109681612a2156fe4142434445464748494a4b4c4d4e4f505152535455565758595a6162636465666768696a6b6c6d6e6f707172737475767778797a303132333435363738392b2fa26469706673582212204ab2d7e649ee7185d56241c1ac465254762f8c420305ac789fb54271460aa9e064736f6c63430008130033",
  "linkReferences": {},
  "deployedLinkReferences": {}
}