{
  "_format": "hh-sol-artifact-1",
  "contractName": "Prediction",
  "sourceName": "contracts/Predict.sol",
  "abi": [
    {
      "inputs": [
        {
          "internalType": "address",
          "name": "_rrpAddress",
          "type": "address"
        },
        {
          "internalType": "address",
          "name": "_token",
          "type": "address"
        }
      ],
      "stateMutability": "nonpayable",
      "type": "constructor"
    },
    {
      "anonymous": false,
      "inputs": [
        {
          "indexed": true,
          "internalType": "address",
          "name": "bettor",
          "type": "address"
        },
        {
          "indexed": false,
          "internalType": "uint256",
          "name": "betNumber",
          "type": "uint256"
        },
        {
          "indexed": false,
          "internalType": "uint256",
          "name": "amount",
          "type": "uint256"
        },
        {
          "indexed": false,
          "internalType": "uint256",
          "name": "insured",
          "type": "uint256"
        }
      ],
      "name": "BetPlaced",
      "type": "event"
    },
    {
      "anonymous": false,
      "inputs": [
        {
          "indexed": true,
          "internalType": "address",
          "name": "bettor",
          "type": "address"
        },
        {
          "indexed": false,
          "internalType": "uint256",
          "name": "amount",
          "type": "uint256"
        }
      ],
      "name": "ClaimPaid",
      "type": "event"
    },
    {
      "anonymous": false,
      "inputs": [
        {
          "indexed": true,
          "internalType": "address",
          "name": "previousOwner",
          "type": "address"
        },
        {
          "indexed": true,
          "internalType": "address",
          "name": "newOwner",
          "type": "address"
        }
      ],
      "name": "OwnershipTransferred",
      "type": "event"
    },
    {
      "anonymous": false,
      "inputs": [
        {
          "indexed": true,
          "internalType": "bytes32",
          "name": "requestId",
          "type": "bytes32"
        },
        {
          "indexed": false,
          "internalType": "int256",
          "name": "response",
          "type": "int256"
        }
      ],
      "name": "RequestFulfilled",
      "type": "event"
    },
    {
      "anonymous": false,
      "inputs": [
        {
          "indexed": true,
          "internalType": "bytes32",
          "name": "requestId",
          "type": "bytes32"
        }
      ],
      "name": "RequestedUint256",
      "type": "event"
    },
    {
      "inputs": [],
      "name": "airnodeRrp",
      "outputs": [
        {
          "internalType": "contract IAirnodeRrpV0",
          "name": "",
          "type": "address"
        }
      ],
      "stateMutability": "view",
      "type": "function"
    },
    {
      "inputs": [],
      "name": "apeCoinProxyAddress",
      "outputs": [
        {
          "internalType": "address",
          "name": "",
          "type": "address"
        }
      ],
      "stateMutability": "view",
      "type": "function"
    },
    {
      "inputs": [
        {
          "internalType": "address",
          "name": "",
          "type": "address"
        }
      ],
      "name": "bets",
      "outputs": [
        {
          "internalType": "uint256",
          "name": "betNumber",
          "type": "uint256"
        },
        {
          "internalType": "uint256",
          "name": "amount",
          "type": "uint256"
        },
        {
          "internalType": "bool",
          "name": "insured",
          "type": "bool"
        },
        {
          "internalType": "bool",
          "name": "settled",
          "type": "bool"
        }
      ],
      "stateMutability": "view",
      "type": "function"
    },
    {
      "inputs": [
        {
          "internalType": "uint256",
          "name": "",
          "type": "uint256"
        }
      ],
      "name": "bettors",
      "outputs": [
        {
          "internalType": "address",
          "name": "",
          "type": "address"
        }
      ],
      "stateMutability": "view",
      "type": "function"
    },
    {
      "inputs": [],
      "name": "ethProxyAddress",
      "outputs": [
        {
          "internalType": "address",
          "name": "",
          "type": "address"
        }
      ],
      "stateMutability": "view",
      "type": "function"
    },
    {
      "inputs": [
        {
          "internalType": "bytes32",
          "name": "requestId",
          "type": "bytes32"
        },
        {
          "internalType": "bytes",
          "name": "data",
          "type": "bytes"
        }
      ],
      "name": "fulfill",
      "outputs": [],
      "stateMutability": "nonpayable",
      "type": "function"
    },
    {
      "inputs": [
        {
          "internalType": "bytes32",
          "name": "",
          "type": "bytes32"
        }
      ],
      "name": "fulfilledData",
      "outputs": [
        {
          "internalType": "int256",
          "name": "",
          "type": "int256"
        }
      ],
      "stateMutability": "view",
      "type": "function"
    },
    {
      "inputs": [
        {
          "internalType": "bytes32",
          "name": "",
          "type": "bytes32"
        }
      ],
      "name": "incomingFulfillments",
      "outputs": [
        {
          "internalType": "bool",
          "name": "",
          "type": "bool"
        }
      ],
      "stateMutability": "view",
      "type": "function"
    },
    {
      "inputs": [
        {
          "internalType": "address",
          "name": "airnode",
          "type": "address"
        },
        {
          "internalType": "bytes32",
          "name": "endpointId",
          "type": "bytes32"
        },
        {
          "internalType": "address",
          "name": "sponsor",
          "type": "address"
        },
        {
          "internalType": "address",
          "name": "sponsorWallet",
          "type": "address"
        },
        {
          "internalType": "bytes",
          "name": "parameters",
          "type": "bytes"
        }
      ],
      "name": "makeRequest",
      "outputs": [],
      "stateMutability": "nonpayable",
      "type": "function"
    },
    {
      "inputs": [],
      "name": "owner",
      "outputs": [
        {
          "internalType": "address",
          "name": "",
          "type": "address"
        }
      ],
      "stateMutability": "view",
      "type": "function"
    },
    {
      "inputs": [
        {
          "internalType": "uint256",
          "name": "_betNumber",
          "type": "uint256"
        },
        {
          "internalType": "uint256",
          "name": "_insurance",
          "type": "uint256"
        }
      ],
      "name": "placeBet",
      "outputs": [],
      "stateMutability": "payable",
      "type": "function"
    },
    {
      "inputs": [
        {
          "internalType": "address",
          "name": "_proxyAddress",
          "type": "address"
        }
      ],
      "name": "readDataFeed",
      "outputs": [
        {
          "internalType": "uint256",
          "name": "",
          "type": "uint256"
        },
        {
          "internalType": "uint256",
          "name": "",
          "type": "uint256"
        }
      ],
      "stateMutability": "view",
      "type": "function"
    },
    {
      "inputs": [],
      "name": "renounceOwnership",
      "outputs": [],
      "stateMutability": "nonpayable",
      "type": "function"
    },
    {
      "inputs": [
        {
          "internalType": "address",
          "name": "_ethProxyAddress",
          "type": "address"
        },
        {
          "internalType": "address",
          "name": "_apeCoinProxyAddress",
          "type": "address"
        }
      ],
      "name": "setProxyAddress",
      "outputs": [],
      "stateMutability": "nonpayable",
      "type": "function"
    },
    {
      "inputs": [],
      "name": "settleAllBets",
      "outputs": [],
      "stateMutability": "nonpayable",
      "type": "function"
    },
    {
      "inputs": [
        {
          "internalType": "address",
          "name": "newOwner",
          "type": "address"
        }
      ],
      "name": "transferOwnership",
      "outputs": [],
      "stateMutability": "nonpayable",
      "type": "function"
    },
    {
      "inputs": [],
      "name": "winningNumber",
      "outputs": [
        {
          "internalType": "uint256",
          "name": "",
          "type": "uint256"
        }
      ],
      "stateMutability": "view",
      "type": "function"
    },
    {
      "inputs": [
        {
          "internalType": "address",
          "name": "airnode",
          "type": "address"
        },
        {
          "internalType": "address",
          "name": "sponsorWallet",
          "type": "address"
        }
      ],
      "name": "withdraw",
      "outputs": [],
      "stateMutability": "nonpayable",
      "type": "function"
    },
    {
      "inputs": [],
      "name": "withdrawProfit",
      "outputs": [],
      "stateMutability": "nonpayable",
      "type": "function"
    },
    {
      "stateMutability": "payable",
      "type": "receive"
    }
  ],
  "bytecode": "0x60a06040523480156200001157600080fd5b506040516200148138038062001481833981016040819052620000349162000150565b6001600160a01b0382166080819052604051632b77c09f60e21b81523060048201526001602482015283919063addf027c90604401600060405180830381600087803b1580156200008457600080fd5b505af115801562000099573d6000803e3d6000fd5b5050505050620000b8620000b2620000df60201b60201c565b620000e3565b600880546001600160a01b0319166001600160a01b03929092169190911790555062000188565b3390565b600080546001600160a01b038381166001600160a01b0319831681178455604051919092169283917f8be0079c531659141344cd1fd0a4f28419497f9722a3daafe3b4186f6b6457e09190a35050565b80516001600160a01b03811681146200014b57600080fd5b919050565b600080604083850312156200016457600080fd5b6200016f8362000133565b91506200017f6020840162000133565b90509250929050565b6080516112c8620001b9600039600081816102be015281816108c101528181610c7d0152610e0e01526112c86000f3fe6080604052600436106101185760003560e01c806371bab666116100a05780639f3ba30a116100645780639f3ba30a146103a3578063dd2ae83f146103b8578063e6080aa4146103f8578063f2fde38b14610418578063f940e3851461043857600080fd5b806371bab666146102ac5780637c1de7e1146102e057806389a78f1a146103005780638da5cb5b14610370578063959499b61461038e57600080fd5b8063406c6d6c116100e7578063406c6d6c146102135780634664611e1461024e5780634afe62b5146102645780634ca497e114610277578063715018a61461029757600080fd5b8063072c7dde1461015f5780632e5472da146101995780633482b644146101d15780633a8fd30f146101f157600080fd5b3661015a57600080546040516001600160a01b03909116914780156108fc02929091818181858888f19350505050158015610157573d6000803e3d6000fd5b50005b600080fd5b34801561016b57600080fd5b5061017f61017a366004610f66565b610458565b604080519283526020830191909152015b60405180910390f35b3480156101a557600080fd5b506004546101b9906001600160a01b031681565b6040516001600160a01b039091168152602001610190565b3480156101dd57600080fd5b506101b96101ec366004610f88565b6104ec565b3480156101fd57600080fd5b5061021161020c366004610fa1565b610516565b005b34801561021f57600080fd5b5061024061022e366004610f88565b60026020526000908152604090205481565b604051908152602001610190565b34801561025a57600080fd5b5061024060075481565b610211610272366004610fd4565b61054c565b34801561028357600080fd5b506005546101b9906001600160a01b031681565b3480156102a357600080fd5b506102116108a2565b3480156102b857600080fd5b506101b97f000000000000000000000000000000000000000000000000000000000000000081565b3480156102ec57600080fd5b506102116102fb36600461103f565b6108b6565b34801561030c57600080fd5b5061034861031b366004610f66565b60036020526000908152604090208054600182015460029092015490919060ff8082169161010090041684565b6040805194855260208501939093529015159183019190915215156060820152608001610190565b34801561037c57600080fd5b506000546001600160a01b03166101b9565b34801561039a57600080fd5b506102116109f9565b3480156103af57600080fd5b50610211610a6c565b3480156103c457600080fd5b506103e86103d3366004610f88565b60016020526000908152604090205460ff1681565b6040519015158152602001610190565b34801561040457600080fd5b5061021161041336600461108b565b610c63565b34801561042457600080fd5b50610211610433366004610f66565b610d69565b34801561044457600080fd5b50610211610453366004610fa1565b610ddf565b600080600080846001600160a01b03166357de26a46040518163ffffffff1660e01b8152600401604080518083038186803b15801561049657600080fd5b505afa1580156104aa573d6000803e3d6000fd5b505050506040513d601f19601f820116820180604052508101906104ce919061110a565b6001600160e01b039091169663ffffffff9190911695509350505050565b600681815481106104fc57600080fd5b6000918252602090912001546001600160a01b0316905081565b61051e610e6e565b600480546001600160a01b039384166001600160a01b03199182161790915560058054929093169116179055565b600034116105ab5760405162461bcd60e51b815260206004820152602160248201527f42657420616d6f756e74206d7573742062652067726561746572207468616e206044820152600360fc1b60648201526084015b60405180910390fd5b600082116106095760405162461bcd60e51b815260206004820152602560248201527f42657474696e67206e756d626572206d75737420626520677265617465722074604482015264068616e20360dc1b60648201526084016105a2565b600680546001810182556000919091527ff652222313e28459528d920b65115c16c04f3efc82aaedc97be59f3f377c0d3f0180546001600160a01b0319163317905580156107f657600454600090610669906001600160a01b0316610458565b50600554909150600090610685906001600160a01b0316610458565b5090506000826106958386611169565b61069f9190611188565b90506106ac600434611188565b8110156107195760405162461bcd60e51b815260206004820152603560248201527f496e737572616e63652076616c7565206d757374206265206174206c6561737460448201527420323525206f6620746865206265742076616c756560581b60648201526084016105a2565b6008546040516323b872dd60e01b8152336004820152306024820152604481018690526001600160a01b03909116906323b872dd90606401600060405180830381600087803b15801561076b57600080fd5b505af115801561077f573d6000803e3d6000fd5b505060408051608081018252888152346020808301918252600183850181815260006060860181815233825260039094529590952093518455915191830191909155915160029091018054925115156101000261ff00199215159290921661ffff19909316929092171790555061085c9350505050565b6040805160808101825283815234602080830191825260008385018181526060850182815233835260039093529490209251835590516001830155915160029091018054925115156101000261ff00199215159290921661ffff19909316929092171790555b6040805183815234602082015290810182905233907f7363e6581df4db69463222156be4a09656528b9f1302890fa4c0b60819b69fc69060600160405180910390a25050565b6108aa610e6e565b6108b46000610ec8565b565b336001600160a01b037f000000000000000000000000000000000000000000000000000000000000000016146109275760405162461bcd60e51b8152602060048201526016602482015275043616c6c6572206e6f74204169726e6f6465205252560541b60448201526064016105a2565b60008381526001602052604090205460ff1661097c5760405162461bcd60e51b81526020600482015260146024820152734e6f20737563682072657175657374206d61646560601b60448201526064016105a2565b6000838152600160205260408120805460ff1916905561099e82840184610f88565b6000858152600260205260409081902082905560078290555190915084907f0880bb44c8fc43ddef9ba9b31e64f02347aae031e2c3f124ed7bdeeee31d81ff906109eb9084815260200190565b60405180910390a250505050565b610a01610e6e565b604051600090339047908381818185875af1925050503d8060008114610a43576040519150601f19603f3d011682016040523d82523d6000602084013e610a48565b606091505b5050905080610a695760405162461bcd60e51b81526004016105a2906111aa565b50565b60005b600654811015610c5657600060068281548110610a8e57610a8e6111d1565b60009182526020808320909101546001600160a01b03168083526003909152604090912060028101549192509060ff61010090910416610c415760075481541415610b58576000826001600160a01b031682600101546002610af09190611169565b604051600081818185875af1925050503d8060008114610b2c576040519150601f19603f3d011682016040523d82523d6000602084013e610b31565b606091505b5050905080610b525760405162461bcd60e51b81526004016105a2906111aa565b50610be6565b600281015460ff1615610be6576000826001600160a01b031660028360010154610b829190611188565b604051600081818185875af1925050503d8060008114610bbe576040519150601f19603f3d011682016040523d82523d6000602084013e610bc3565b606091505b5050905080610be45760405162461bcd60e51b81526004016105a2906111aa565b505b60028101805461ff00191661010017905560018101546040516001600160a01b038416917ff42cf8c29487b42c009006cba2a2a0ca0388229f3183e6e957e0a0b163585cb491610c3891815260200190565b60405180910390a25b50508080610c4e906111e7565b915050610a6f565b506108b460066000610f18565b604051636e6be03f60e01b81526000906001600160a01b037f00000000000000000000000000000000000000000000000000000000000000001690636e6be03f90610cc7908a908a908a908a903090637c1de7e160e01b908c908c90600401611202565b602060405180830381600087803b158015610ce157600080fd5b505af1158015610cf5573d6000803e3d6000fd5b505050506040513d601f19601f82011682018060405250810190610d199190611279565b6000818152600160208190526040808320805460ff19169092179091555191925082917fcba2da2f3c0c732a104019a3104936397dde7343964c1518ceb760052e4537b19190a250505050505050565b610d71610e6e565b6001600160a01b038116610dd65760405162461bcd60e51b815260206004820152602660248201527f4f776e61626c653a206e6577206f776e657220697320746865207a65726f206160448201526564647265737360d01b60648201526084016105a2565b610a6981610ec8565b610de7610e6e565b604051631d414cbd60e01b81526001600160a01b03838116600483015282811660248301527f00000000000000000000000000000000000000000000000000000000000000001690631d414cbd90604401600060405180830381600087803b158015610e5257600080fd5b505af1158015610e66573d6000803e3d6000fd5b505050505050565b6000546001600160a01b031633146108b45760405162461bcd60e51b815260206004820181905260248201527f4f776e61626c653a2063616c6c6572206973206e6f7420746865206f776e657260448201526064016105a2565b600080546001600160a01b038381166001600160a01b0319831681178455604051919092169283917f8be0079c531659141344cd1fd0a4f28419497f9722a3daafe3b4186f6b6457e09190a35050565b5080546000825590600052602060002090810190610a6991905b80821115610f465760008155600101610f32565b5090565b80356001600160a01b0381168114610f6157600080fd5b919050565b600060208284031215610f7857600080fd5b610f8182610f4a565b9392505050565b600060208284031215610f9a57600080fd5b5035919050565b60008060408385031215610fb457600080fd5b610fbd83610f4a565b9150610fcb60208401610f4a565b90509250929050565b60008060408385031215610fe757600080fd5b50508035926020909101359150565b60008083601f84011261100857600080fd5b50813567ffffffffffffffff81111561102057600080fd5b60208301915083602082850101111561103857600080fd5b9250929050565b60008060006040848603121561105457600080fd5b83359250602084013567ffffffffffffffff81111561107257600080fd5b61107e86828701610ff6565b9497909650939450505050565b60008060008060008060a087890312156110a457600080fd5b6110ad87610f4a565b9550602087013594506110c260408801610f4a565b93506110d060608801610f4a565b9250608087013567ffffffffffffffff8111156110ec57600080fd5b6110f889828a01610ff6565b979a9699509497509295939492505050565b6000806040838503121561111d57600080fd5b825180601b0b811461112e57600080fd5b602084015190925063ffffffff8116811461114857600080fd5b809150509250929050565b634e487b7160e01b600052601160045260246000fd5b600081600019048311821515161561118357611183611153565b500290565b6000826111a557634e487b7160e01b600052601260045260246000fd5b500490565b6020808252600d908201526c11985a5b1959081c185e5bdd5d609a1b604082015260600190565b634e487b7160e01b600052603260045260246000fd5b60006000198214156111fb576111fb611153565b5060010190565b6001600160a01b0389811682526020820189905287811660408301528681166060830152851660808201526001600160e01b0319841660a082015260e060c08201819052810182905260006101008385828501376000838501820152601f909301601f191690910190910198975050505050505050565b60006020828403121561128b57600080fd5b505191905056fea2646970667358221220f71e64c605a20f3aec7e411c496d962b1ff12340fdeab2de84382b78f384f64464736f6c63430008090033",
  "linkReferences": {},
  "deployedLinkReferences": {}
}