{
  "_format": "hh-sol-artifact-1",
  "contractName": "NFTAttack",
  "sourceName": "contracts/NFTAttack.sol",
  "abi": [
    {
      "inputs": [
        {
          "internalType": "address",
          "name": "_airnodeRrp",
          "type": "address"
        },
        {
          "internalType": "string[]",
          "name": "characterNames",
          "type": "string[]"
        },
        {
          "internalType": "string[]",
          "name": "characterImageURIs",
          "type": "string[]"
        },
        {
          "internalType": "uint256[]",
          "name": "characterHp",
          "type": "uint256[]"
        },
        {
          "internalType": "uint256[]",
          "name": "characterAttack",
          "type": "uint256[]"
        },
        {
          "internalType": "uint256[]",
          "name": "characterDefense",
          "type": "uint256[]"
        },
        {
          "internalType": "uint256[]",
          "name": "characterEvade",
          "type": "uint256[]"
        }
      ],
      "stateMutability": "nonpayable",
      "type": "constructor"
    },
    {
      "inputs": [],
      "name": "AlreadyHasNFT",
      "type": "error"
    },
    {
      "inputs": [],
      "name": "EnemyNeedsNFT",
      "type": "error"
    },
    {
      "inputs": [],
      "name": "GameHasAlreadyStarted",
      "type": "error"
    },
    {
      "inputs": [],
      "name": "GameHasEnded",
      "type": "error"
    },
    {
      "inputs": [],
      "name": "GameHasNotEnded",
      "type": "error"
    },
    {
      "inputs": [],
      "name": "GameHasNotStarted",
      "type": "error"
    },
    {
      "inputs": [],
      "name": "IncorrectEtherValue",
      "type": "error"
    },
    {
      "inputs": [],
      "name": "MintWindowPassed",
      "type": "error"
    },
    {
      "inputs": [],
      "name": "Paused",
      "type": "error"
    },
    {
      "inputs": [],
      "name": "YouNeedAnNFT",
      "type": "error"
    },
    {
      "anonymous": false,
      "inputs": [
        {
          "indexed": true,
          "internalType": "address",
          "name": "owner",
          "type": "address"
        },
        {
          "indexed": true,
          "internalType": "address",
          "name": "approved",
          "type": "address"
        },
        {
          "indexed": true,
          "internalType": "uint256",
          "name": "tokenId",
          "type": "uint256"
        }
      ],
      "name": "Approval",
      "type": "event"
    },
    {
      "anonymous": false,
      "inputs": [
        {
          "indexed": true,
          "internalType": "address",
          "name": "owner",
          "type": "address"
        },
        {
          "indexed": true,
          "internalType": "address",
          "name": "operator",
          "type": "address"
        },
        {
          "indexed": false,
          "internalType": "bool",
          "name": "approved",
          "type": "bool"
        }
      ],
      "name": "ApprovalForAll",
      "type": "event"
    },
    {
      "anonymous": false,
      "inputs": [
        {
          "indexed": false,
          "internalType": "uint256",
          "name": "atkAmount",
          "type": "uint256"
        },
        {
          "indexed": false,
          "internalType": "uint256",
          "name": "playerHp",
          "type": "uint256"
        }
      ],
      "name": "AttackComplete",
      "type": "event"
    },
    {
      "anonymous": false,
      "inputs": [
        {
          "indexed": false,
          "internalType": "address",
          "name": "sender",
          "type": "address"
        },
        {
          "indexed": false,
          "internalType": "uint256",
          "name": "tokenId",
          "type": "uint256"
        },
        {
          "indexed": false,
          "internalType": "uint256",
          "name": "characterIndex",
          "type": "uint256"
        }
      ],
      "name": "CharacterNFTMinted",
      "type": "event"
    },
    {
      "anonymous": false,
      "inputs": [
        {
          "indexed": false,
          "internalType": "address",
          "name": "attacker",
          "type": "address"
        },
        {
          "indexed": false,
          "internalType": "address",
          "name": "victim",
          "type": "address"
        }
      ],
      "name": "MissedAttack",
      "type": "event"
    },
    {
      "anonymous": false,
      "inputs": [
        {
          "indexed": false,
          "internalType": "address",
          "name": "victim",
          "type": "address"
        },
        {
          "indexed": false,
          "internalType": "uint256",
          "name": "tokenId",
          "type": "uint256"
        },
        {
          "indexed": false,
          "internalType": "address",
          "name": "attacker",
          "type": "address"
        }
      ],
      "name": "NFTBurned",
      "type": "event"
    },
    {
      "anonymous": false,
      "inputs": [
        {
          "indexed": true,
          "internalType": "address",
          "name": "previousOwner",
          "type": "address"
        },
        {
          "indexed": true,
          "internalType": "address",
          "name": "newOwner",
          "type": "address"
        }
      ],
      "name": "OwnershipTransferred",
      "type": "event"
    },
    {
      "anonymous": false,
      "inputs": [
        {
          "indexed": true,
          "internalType": "bytes32",
          "name": "requestId",
          "type": "bytes32"
        },
        {
          "indexed": false,
          "internalType": "uint256",
          "name": "response",
          "type": "uint256"
        }
      ],
      "name": "ReceivedUint256",
      "type": "event"
    },
    {
      "anonymous": false,
      "inputs": [
        {
          "indexed": true,
          "internalType": "bytes32",
          "name": "requestId",
          "type": "bytes32"
        }
      ],
      "name": "RequestUint256",
      "type": "event"
    },
    {
      "anonymous": false,
      "inputs": [
        {
          "indexed": false,
          "internalType": "address",
          "name": "attacker",
          "type": "address"
        },
        {
          "indexed": false,
          "internalType": "address",
          "name": "victim",
          "type": "address"
        },
        {
          "indexed": false,
          "internalType": "uint256",
          "name": "damageAmount",
          "type": "uint256"
        },
        {
          "indexed": false,
          "internalType": "uint256",
          "name": "victimHp",
          "type": "uint256"
        }
      ],
      "name": "SuccessfulAttack",
      "type": "event"
    },
    {
      "anonymous": false,
      "inputs": [
        {
          "indexed": true,
          "internalType": "address",
          "name": "from",
          "type": "address"
        },
        {
          "indexed": true,
          "internalType": "address",
          "name": "to",
          "type": "address"
        },
        {
          "indexed": true,
          "internalType": "uint256",
          "name": "tokenId",
          "type": "uint256"
        }
      ],
      "name": "Transfer",
      "type": "event"
    },
    {
      "inputs": [],
      "name": "BASE_EVADE_RATE",
      "outputs": [
        {
          "internalType": "uint256",
          "name": "",
          "type": "uint256"
        }
      ],
      "stateMutability": "view",
      "type": "function"
    },
    {
      "inputs": [],
      "name": "BLAST",
      "outputs": [
        {
          "internalType": "contract IBlast",
          "name": "",
          "type": "address"
        }
      ],
      "stateMutability": "view",
      "type": "function"
    },
    {
      "inputs": [],
      "name": "MAX_ATTACKS",
      "outputs": [
        {
          "internalType": "uint256",
          "name": "",
          "type": "uint256"
        }
      ],
      "stateMutability": "view",
      "type": "function"
    },
    {
      "inputs": [],
      "name": "MAX_SHOTS_TAKEN",
      "outputs": [
        {
          "internalType": "uint256",
          "name": "",
          "type": "uint256"
        }
      ],
      "stateMutability": "view",
      "type": "function"
    },
    {
      "inputs": [],
      "name": "MINT_WINDOW",
      "outputs": [
        {
          "internalType": "uint256",
          "name": "",
          "type": "uint256"
        }
      ],
      "stateMutability": "view",
      "type": "function"
    },
    {
      "inputs": [],
      "name": "TOTAL_TIME",
      "outputs": [
        {
          "internalType": "uint256",
          "name": "",
          "type": "uint256"
        }
      ],
      "stateMutability": "view",
      "type": "function"
    },
    {
      "inputs": [
        {
          "internalType": "string",
          "name": "_name",
          "type": "string"
        },
        {
          "internalType": "string",
          "name": "_imageURI",
          "type": "string"
        },
        {
          "internalType": "uint256",
          "name": "_hp",
          "type": "uint256"
        },
        {
          "internalType": "uint256",
          "name": "_attack",
          "type": "uint256"
        },
        {
          "internalType": "uint256",
          "name": "_defense",
          "type": "uint256"
        },
        {
          "internalType": "uint256",
          "name": "_evade",
          "type": "uint256"
        }
      ],
      "name": "addCharacter",
      "outputs": [],
      "stateMutability": "nonpayable",
      "type": "function"
    },
    {
      "inputs": [],
      "name": "airnode",
      "outputs": [
        {
          "internalType": "address",
          "name": "",
          "type": "address"
        }
      ],
      "stateMutability": "view",
      "type": "function"
    },
    {
      "inputs": [],
      "name": "airnodeRrp",
      "outputs": [
        {
          "internalType": "contract IAirnodeRrpV0",
          "name": "",
          "type": "address"
        }
      ],
      "stateMutability": "view",
      "type": "function"
    },
    {
      "inputs": [
        {
          "internalType": "address",
          "name": "to",
          "type": "address"
        },
        {
          "internalType": "uint256",
          "name": "tokenId",
          "type": "uint256"
        }
      ],
      "name": "approve",
      "outputs": [],
      "stateMutability": "nonpayable",
      "type": "function"
    },
    {
      "inputs": [
        {
          "internalType": "uint256",
          "name": "",
          "type": "uint256"
        },
        {
          "internalType": "uint256",
          "name": "",
          "type": "uint256"
        }
      ],
      "name": "attacksSentDaily",
      "outputs": [
        {
          "internalType": "uint256",
          "name": "",
          "type": "uint256"
        }
      ],
      "stateMutability": "view",
      "type": "function"
    },
    {
      "inputs": [
        {
          "internalType": "address",
          "name": "owner",
          "type": "address"
        }
      ],
      "name": "balanceOf",
      "outputs": [
        {
          "internalType": "uint256",
          "name": "",
          "type": "uint256"
        }
      ],
      "stateMutability": "view",
      "type": "function"
    },
    {
      "inputs": [
        {
          "internalType": "address",
          "name": "_holder",
          "type": "address"
        }
      ],
      "name": "checkIfTargetHasNFT",
      "outputs": [
        {
          "internalType": "bool",
          "name": "",
          "type": "bool"
        }
      ],
      "stateMutability": "view",
      "type": "function"
    },
    {
      "inputs": [
        {
          "internalType": "address",
          "name": "_holder",
          "type": "address"
        }
      ],
      "name": "checkIfUserNFT",
      "outputs": [
        {
          "components": [
            {
              "internalType": "uint256",
              "name": "characterIndex",
              "type": "uint256"
            },
            {
              "internalType": "string",
              "name": "name",
              "type": "string"
            },
            {
              "internalType": "string",
              "name": "imageURI",
              "type": "string"
            },
            {
              "internalType": "uint256",
              "name": "hp",
              "type": "uint256"
            },
            {
              "internalType": "uint256",
              "name": "maxHp",
              "type": "uint256"
            },
            {
              "internalType": "uint256",
              "name": "attackDamage",
              "type": "uint256"
            },
            {
              "internalType": "uint256",
              "name": "defense",
              "type": "uint256"
            },
            {
              "internalType": "uint256",
              "name": "evade",
              "type": "uint256"
            }
          ],
          "internalType": "struct SnowDay.CharacterAttributes",
          "name": "",
          "type": "tuple"
        }
      ],
      "stateMutability": "view",
      "type": "function"
    },
    {
      "inputs": [],
      "name": "claimGasUsedByContract",
      "outputs": [],
      "stateMutability": "nonpayable",
      "type": "function"
    },
    {
      "inputs": [],
      "name": "claimMyContractsGas",
      "outputs": [],
      "stateMutability": "nonpayable",
      "type": "function"
    },
    {
      "inputs": [],
      "name": "claimYourPrize",
      "outputs": [],
      "stateMutability": "nonpayable",
      "type": "function"
    },
    {
      "inputs": [
        {
          "internalType": "address",
          "name": "",
          "type": "address"
        },
        {
          "internalType": "uint256",
          "name": "",
          "type": "uint256"
        }
      ],
      "name": "dailyAttacksReceived",
      "outputs": [
        {
          "internalType": "uint256",
          "name": "",
          "type": "uint256"
        }
      ],
      "stateMutability": "view",
      "type": "function"
    },
    {
      "inputs": [],
      "name": "endGame",
      "outputs": [],
      "stateMutability": "nonpayable",
      "type": "function"
    },
    {
      "inputs": [],
      "name": "endTime",
      "outputs": [
        {
          "internalType": "uint256",
          "name": "",
          "type": "uint256"
        }
      ],
      "stateMutability": "view",
      "type": "function"
    },
    {
      "inputs": [],
      "name": "endpointIdUint256",
      "outputs": [
        {
          "internalType": "bytes32",
          "name": "",
          "type": "bytes32"
        }
      ],
      "stateMutability": "view",
      "type": "function"
    },
    {
      "inputs": [
        {
          "internalType": "uint256",
          "name": "_characterIndex",
          "type": "uint256"
        }
      ],
      "name": "enterTheArena",
      "outputs": [],
      "stateMutability": "payable",
      "type": "function"
    },
    {
      "inputs": [
        {
          "internalType": "bytes32",
          "name": "",
          "type": "bytes32"
        }
      ],
      "name": "expectingRequestWithIdToBeFulfilled",
      "outputs": [
        {
          "internalType": "bool",
          "name": "",
          "type": "bool"
        }
      ],
      "stateMutability": "view",
      "type": "function"
    },
    {
      "inputs": [
        {
          "internalType": "bytes32",
          "name": "requestId",
          "type": "bytes32"
        },
        {
          "internalType": "bytes",
          "name": "data",
          "type": "bytes"
        }
      ],
      "name": "fulfillUint256",
      "outputs": [],
      "stateMutability": "nonpayable",
      "type": "function"
    },
    {
      "inputs": [],
      "name": "gameInProgress",
      "outputs": [
        {
          "internalType": "bool",
          "name": "",
          "type": "bool"
        }
      ],
      "stateMutability": "view",
      "type": "function"
    },
    {
      "inputs": [],
      "name": "getAllDefaultCharacters",
      "outputs": [
        {
          "components": [
            {
              "internalType": "uint256",
              "name": "characterIndex",
              "type": "uint256"
            },
            {
              "internalType": "string",
              "name": "name",
              "type": "string"
            },
            {
              "internalType": "string",
              "name": "imageURI",
              "type": "string"
            },
            {
              "internalType": "uint256",
              "name": "hp",
              "type": "uint256"
            },
            {
              "internalType": "uint256",
              "name": "maxHp",
              "type": "uint256"
            },
            {
              "internalType": "uint256",
              "name": "attackDamage",
              "type": "uint256"
            },
            {
              "internalType": "uint256",
              "name": "defense",
              "type": "uint256"
            },
            {
              "internalType": "uint256",
              "name": "evade",
              "type": "uint256"
            }
          ],
          "internalType": "struct SnowDay.CharacterAttributes[]",
          "name": "",
          "type": "tuple[]"
        }
      ],
      "stateMutability": "view",
      "type": "function"
    },
    {
      "inputs": [
        {
          "internalType": "uint256",
          "name": "tokenId",
          "type": "uint256"
        }
      ],
      "name": "getApproved",
      "outputs": [
        {
          "internalType": "address",
          "name": "",
          "type": "address"
        }
      ],
      "stateMutability": "view",
      "type": "function"
    },
    {
      "inputs": [
        {
          "internalType": "uint256",
          "name": "_tokenId",
          "type": "uint256"
        }
      ],
      "name": "getCharacterHp",
      "outputs": [
        {
          "internalType": "uint256",
          "name": "",
          "type": "uint256"
        }
      ],
      "stateMutability": "view",
      "type": "function"
    },
    {
      "inputs": [
        {
          "internalType": "uint256",
          "name": "_tokenId",
          "type": "uint256"
        }
      ],
      "name": "getCharacterStats",
      "outputs": [
        {
          "components": [
            {
              "internalType": "uint256",
              "name": "characterIndex",
              "type": "uint256"
            },
            {
              "internalType": "string",
              "name": "name",
              "type": "string"
            },
            {
              "internalType": "string",
              "name": "imageURI",
              "type": "string"
            },
            {
              "internalType": "uint256",
              "name": "hp",
              "type": "uint256"
            },
            {
              "internalType": "uint256",
              "name": "maxHp",
              "type": "uint256"
            },
            {
              "internalType": "uint256",
              "name": "attackDamage",
              "type": "uint256"
            },
            {
              "internalType": "uint256",
              "name": "defense",
              "type": "uint256"
            },
            {
              "internalType": "uint256",
              "name": "evade",
              "type": "uint256"
            }
          ],
          "internalType": "struct SnowDay.CharacterAttributes",
          "name": "",
          "type": "tuple"
        }
      ],
      "stateMutability": "view",
      "type": "function"
    },
    {
      "inputs": [],
      "name": "getCurrentDay",
      "outputs": [
        {
          "internalType": "uint256",
          "name": "",
          "type": "uint256"
        }
      ],
      "stateMutability": "view",
      "type": "function"
    },
    {
      "inputs": [],
      "name": "getIsGameOver",
      "outputs": [
        {
          "internalType": "bool",
          "name": "",
          "type": "bool"
        }
      ],
      "stateMutability": "view",
      "type": "function"
    },
    {
      "inputs": [],
      "name": "getTimeLeftForCurrentGame",
      "outputs": [
        {
          "internalType": "uint256",
          "name": "",
          "type": "uint256"
        }
      ],
      "stateMutability": "view",
      "type": "function"
    },
    {
      "inputs": [],
      "name": "getYieldOnContract",
      "outputs": [
        {
          "internalType": "uint256",
          "name": "",
          "type": "uint256"
        }
      ],
      "stateMutability": "view",
      "type": "function"
    },
    {
      "inputs": [
        {
          "internalType": "address",
          "name": "owner",
          "type": "address"
        },
        {
          "internalType": "address",
          "name": "operator",
          "type": "address"
        }
      ],
      "name": "isApprovedForAll",
      "outputs": [
        {
          "internalType": "bool",
          "name": "",
          "type": "bool"
        }
      ],
      "stateMutability": "view",
      "type": "function"
    },
    {
      "inputs": [],
      "name": "isGamePaused",
      "outputs": [
        {
          "internalType": "bool",
          "name": "",
          "type": "bool"
        }
      ],
      "stateMutability": "view",
      "type": "function"
    },
    {
      "inputs": [],
      "name": "mintWindow",
      "outputs": [
        {
          "internalType": "uint256",
          "name": "",
          "type": "uint256"
        }
      ],
      "stateMutability": "view",
      "type": "function"
    },
    {
      "inputs": [],
      "name": "name",
      "outputs": [
        {
          "internalType": "string",
          "name": "",
          "type": "string"
        }
      ],
      "stateMutability": "view",
      "type": "function"
    },
    {
      "inputs": [],
      "name": "nextTokenId",
      "outputs": [
        {
          "internalType": "uint256",
          "name": "",
          "type": "uint256"
        }
      ],
      "stateMutability": "view",
      "type": "function"
    },
    {
      "inputs": [
        {
          "internalType": "uint256",
          "name": "",
          "type": "uint256"
        }
      ],
      "name": "nftHolderAttributes",
      "outputs": [
        {
          "internalType": "uint256",
          "name": "characterIndex",
          "type": "uint256"
        },
        {
          "internalType": "string",
          "name": "name",
          "type": "string"
        },
        {
          "internalType": "string",
          "name": "imageURI",
          "type": "string"
        },
        {
          "internalType": "uint256",
          "name": "hp",
          "type": "uint256"
        },
        {
          "internalType": "uint256",
          "name": "maxHp",
          "type": "uint256"
        },
        {
          "internalType": "uint256",
          "name": "attackDamage",
          "type": "uint256"
        },
        {
          "internalType": "uint256",
          "name": "defense",
          "type": "uint256"
        },
        {
          "internalType": "uint256",
          "name": "evade",
          "type": "uint256"
        }
      ],
      "stateMutability": "view",
      "type": "function"
    },
    {
      "inputs": [
        {
          "internalType": "address",
          "name": "",
          "type": "address"
        }
      ],
      "name": "nftHolders",
      "outputs": [
        {
          "internalType": "uint256",
          "name": "",
          "type": "uint256"
        }
      ],
      "stateMutability": "view",
      "type": "function"
    },
    {
      "inputs": [],
      "name": "owner",
      "outputs": [
        {
          "internalType": "address",
          "name": "",
          "type": "address"
        }
      ],
      "stateMutability": "view",
      "type": "function"
    },
    {
      "inputs": [
        {
          "internalType": "uint256",
          "name": "tokenId",
          "type": "uint256"
        }
      ],
      "name": "ownerOf",
      "outputs": [
        {
          "internalType": "address",
          "name": "",
          "type": "address"
        }
      ],
      "stateMutability": "view",
      "type": "function"
    },
    {
      "inputs": [],
      "name": "pauseGameToggle",
      "outputs": [],
      "stateMutability": "nonpayable",
      "type": "function"
    },
    {
      "inputs": [],
      "name": "priceOfNFTEscrow",
      "outputs": [
        {
          "internalType": "uint256",
          "name": "",
          "type": "uint256"
        }
      ],
      "stateMutability": "view",
      "type": "function"
    },
    {
      "inputs": [],
      "name": "randomInRange",
      "outputs": [
        {
          "internalType": "uint256",
          "name": "",
          "type": "uint256"
        }
      ],
      "stateMutability": "view",
      "type": "function"
    },
    {
      "inputs": [],
      "name": "renounceOwnership",
      "outputs": [],
      "stateMutability": "nonpayable",
      "type": "function"
    },
    {
      "inputs": [
        {
          "internalType": "address",
          "name": "from",
          "type": "address"
        },
        {
          "internalType": "address",
          "name": "to",
          "type": "address"
        },
        {
          "internalType": "uint256",
          "name": "tokenId",
          "type": "uint256"
        }
      ],
      "name": "safeTransferFrom",
      "outputs": [],
      "stateMutability": "nonpayable",
      "type": "function"
    },
    {
      "inputs": [
        {
          "internalType": "address",
          "name": "from",
          "type": "address"
        },
        {
          "internalType": "address",
          "name": "to",
          "type": "address"
        },
        {
          "internalType": "uint256",
          "name": "tokenId",
          "type": "uint256"
        },
        {
          "internalType": "bytes",
          "name": "data",
          "type": "bytes"
        }
      ],
      "name": "safeTransferFrom",
      "outputs": [],
      "stateMutability": "nonpayable",
      "type": "function"
    },
    {
      "inputs": [
        {
          "internalType": "address",
          "name": "operator",
          "type": "address"
        },
        {
          "internalType": "bool",
          "name": "approved",
          "type": "bool"
        }
      ],
      "name": "setApprovalForAll",
      "outputs": [],
      "stateMutability": "nonpayable",
      "type": "function"
    },
    {
      "inputs": [
        {
          "internalType": "address",
          "name": "_airnode",
          "type": "address"
        },
        {
          "internalType": "bytes32",
          "name": "_endpointIdUint256",
          "type": "bytes32"
        },
        {
          "internalType": "address",
          "name": "_sponsorWallet",
          "type": "address"
        }
      ],
      "name": "setRequestParameters",
      "outputs": [],
      "stateMutability": "nonpayable",
      "type": "function"
    },
    {
      "inputs": [],
      "name": "sponsorWallet",
      "outputs": [
        {
          "internalType": "address",
          "name": "",
          "type": "address"
        }
      ],
      "stateMutability": "view",
      "type": "function"
    },
    {
      "inputs": [],
      "name": "startGame",
      "outputs": [],
      "stateMutability": "nonpayable",
      "type": "function"
    },
    {
      "inputs": [],
      "name": "startTime",
      "outputs": [
        {
          "internalType": "uint256",
          "name": "",
          "type": "uint256"
        }
      ],
      "stateMutability": "view",
      "type": "function"
    },
    {
      "inputs": [
        {
          "internalType": "bytes4",
          "name": "interfaceId",
          "type": "bytes4"
        }
      ],
      "name": "supportsInterface",
      "outputs": [
        {
          "internalType": "bool",
          "name": "",
          "type": "bool"
        }
      ],
      "stateMutability": "view",
      "type": "function"
    },
    {
      "inputs": [],
      "name": "symbol",
      "outputs": [
        {
          "internalType": "string",
          "name": "",
          "type": "string"
        }
      ],
      "stateMutability": "view",
      "type": "function"
    },
    {
      "inputs": [
        {
          "internalType": "address",
          "name": "_victim",
          "type": "address"
        }
      ],
      "name": "throwSnowball",
      "outputs": [],
      "stateMutability": "nonpayable",
      "type": "function"
    },
    {
      "inputs": [
        {
          "internalType": "uint256",
          "name": "_tokenId",
          "type": "uint256"
        }
      ],
      "name": "tokenURI",
      "outputs": [
        {
          "internalType": "string",
          "name": "",
          "type": "string"
        }
      ],
      "stateMutability": "view",
      "type": "function"
    },
    {
      "inputs": [],
      "name": "totalNFTsLeft",
      "outputs": [
        {
          "internalType": "uint256",
          "name": "",
          "type": "uint256"
        }
      ],
      "stateMutability": "view",
      "type": "function"
    },
    {
      "inputs": [
        {
          "internalType": "address",
          "name": "from",
          "type": "address"
        },
        {
          "internalType": "address",
          "name": "to",
          "type": "address"
        },
        {
          "internalType": "uint256",
          "name": "tokenId",
          "type": "uint256"
        }
      ],
      "name": "transferFrom",
      "outputs": [],
      "stateMutability": "nonpayable",
      "type": "function"
    },
    {
      "inputs": [
        {
          "internalType": "address",
          "name": "newOwner",
          "type": "address"
        }
      ],
      "name": "transferOwnership",
      "outputs": [],
      "stateMutability": "nonpayable",
      "type": "function"
    },
    {
      "inputs": [
        {
          "internalType": "uint256",
          "name": "_characterIndex",
          "type": "uint256"
        },
        {
          "internalType": "uint256",
          "name": "_newAttack",
          "type": "uint256"
        }
      ],
      "name": "updateCharacterAttack",
      "outputs": [],
      "stateMutability": "nonpayable",
      "type": "function"
    },
    {
      "inputs": [
        {
          "internalType": "uint256",
          "name": "_characterIndex",
          "type": "uint256"
        },
        {
          "internalType": "uint256",
          "name": "_newDefense",
          "type": "uint256"
        }
      ],
      "name": "updateCharacterDefense",
      "outputs": [],
      "stateMutability": "nonpayable",
      "type": "function"
    },
    {
      "inputs": [
        {
          "internalType": "uint256",
          "name": "_characterIndex",
          "type": "uint256"
        },
        {
          "internalType": "uint256",
          "name": "_newEvade",
          "type": "uint256"
        }
      ],
      "name": "updateCharacterEvade",
      "outputs": [],
      "stateMutability": "nonpayable",
      "type": "function"
    },
    {
      "inputs": [
        {
          "internalType": "uint256",
          "name": "_characterIndex",
          "type": "uint256"
        },
        {
          "internalType": "uint256",
          "name": "_newHp",
          "type": "uint256"
        }
      ],
      "name": "updateCharacterHp",
      "outputs": [],
      "stateMutability": "nonpayable",
      "type": "function"
    },
    {
      "inputs": [
        {
          "internalType": "uint256",
          "name": "_characterIndex",
          "type": "uint256"
        },
        {
          "internalType": "string",
          "name": "_newImageURI",
          "type": "string"
        }
      ],
      "name": "updateCharacterImageURI",
      "outputs": [],
      "stateMutability": "nonpayable",
      "type": "function"
    },
    {
      "inputs": [
        {
          "internalType": "uint256",
          "name": "_characterIndex",
          "type": "uint256"
        },
        {
          "internalType": "string",
          "name": "_newName",
          "type": "string"
        }
      ],
      "name": "updateCharacterName",
      "outputs": [],
      "stateMutability": "nonpayable",
      "type": "function"
    },
    {
      "inputs": [],
      "name": "winners",
      "outputs": [
        {
          "internalType": "uint256",
          "name": "",
          "type": "uint256"
        }
      ],
      "stateMutability": "view",
      "type": "function"
    },
    {
      "inputs": [],
      "name": "withdrawContractFunds",
      "outputs": [],
      "stateMutability": "nonpayable",
      "type": "function"
    },
    {
      "inputs": [],
      "name": "withdrawSponsorWalletFunds",
      "outputs": [],
      "stateMutability": "nonpayable",
      "type": "function"
    },
    {
      "inputs": [],
      "name": "yieldCollected",
      "outputs": [
        {
          "internalType": "uint256",
          "name": "",
          "type": "uint256"
        }
      ],
      "stateMutability": "view",
      "type": "function"
    },
    {
      "stateMutability": "payable",
      "type": "receive"
    }
  ],
  "bytecode": "0x60a06040526001600755600b805461ffff1916905566b1a2bc2ec50000600f553480156200002c57600080fd5b5060405162004c2338038062004c238339810160408190526200004f9162000652565b85858585858560405180604001604052806007815260200166536e6f7764617960c81b81525060405180604001604052806004815260200163534e4f5760e01b8152508e806001600160a01b03166080816001600160a01b031681525050806001600160a01b031663addf027c3060016040518363ffffffff1660e01b8152600401620000f39291906001600160a01b039290921682521515602082015260400190565b600060405180830381600087803b1580156200010e57600080fd5b505af115801562000123573d6000803e3d6000fd5b50505050508160009081620001399190620007fd565b506001620001488282620007fd565b505050620001656200015f620003f260201b60201c565b620003f6565b60005b86518110156200030c57600c6040518061010001604052808381526020018984815181106200019b576200019b620008c9565b60200260200101518152602001888481518110620001bd57620001bd620008c9565b60200260200101518152602001878481518110620001df57620001df620008c9565b60200260200101518152602001878481518110620002015762000201620008c9565b60200260200101518152602001868481518110620002235762000223620008c9565b60200260200101518152602001858481518110620002455762000245620008c9565b60200260200101518152602001848481518110620002675762000267620008c9565b6020908102919091018101519091528254600181810185556000948552938290208351600890920201908155908201519192909190820190620002ab9082620007fd565b5060408201516002820190620002c29082620007fd565b50606082015160038201556080820151600482015560a0820151600582015560c0820151600682015560e09091015160079091015562000304600182620008df565b905062000168565b505050505050507343000000000000000000000000000000000000026001600160a01b031663f098767a6040518163ffffffff1660e01b8152600401600060405180830381600087803b1580156200036357600080fd5b505af115801562000378573d6000803e3d6000fd5b505050507343000000000000000000000000000000000000026001600160a01b0316634e606c476040518163ffffffff1660e01b8152600401600060405180830381600087803b158015620003cc57600080fd5b505af1158015620003e1573d6000803e3d6000fd5b505050505050505050505062000907565b3390565b600680546001600160a01b038381166001600160a01b0319831681179093556040519116919082907f8be0079c531659141344cd1fd0a4f28419497f9722a3daafe3b4186f6b6457e090600090a35050565b80516001600160a01b03811681146200046057600080fd5b919050565b634e487b7160e01b600052604160045260246000fd5b604051601f8201601f191681016001600160401b0381118282101715620004a657620004a662000465565b604052919050565b60006001600160401b03821115620004ca57620004ca62000465565b5060051b60200190565b6000601f8381840112620004e757600080fd5b8251602062000500620004fa83620004ae565b6200047b565b82815260059290921b850181019181810190878411156200052057600080fd5b8287015b84811015620005d95780516001600160401b0380821115620005465760008081fd5b818a0191508a603f8301126200055c5760008081fd5b858201518181111562000573576200057362000465565b62000586818a01601f191688016200047b565b915080825260408c81838601011115620005a05760008081fd5b60005b82811015620005c0578481018201518482018a01528801620005a3565b5050600090820187015284525091830191830162000524565b50979650505050505050565b600082601f830112620005f757600080fd5b815160206200060a620004fa83620004ae565b82815260059290921b840181019181810190868411156200062a57600080fd5b8286015b848110156200064757805183529183019183016200062e565b509695505050505050565b600080600080600080600060e0888a0312156200066e57600080fd5b620006798862000448565b60208901519097506001600160401b03808211156200069757600080fd5b620006a58b838c01620004d4565b975060408a0151915080821115620006bc57600080fd5b620006ca8b838c01620004d4565b965060608a0151915080821115620006e157600080fd5b620006ef8b838c01620005e5565b955060808a01519150808211156200070657600080fd5b620007148b838c01620005e5565b945060a08a01519150808211156200072b57600080fd5b620007398b838c01620005e5565b935060c08a01519150808211156200075057600080fd5b506200075f8a828b01620005e5565b91505092959891949750929550565b600181811c908216806200078357607f821691505b602082108103620007a457634e487b7160e01b600052602260045260246000fd5b50919050565b601f821115620007f857600081815260208120601f850160051c81016020861015620007d35750805b601f850160051c820191505b81811015620007f457828155600101620007df565b5050505b505050565b81516001600160401b0381111562000819576200081962000465565b62000831816200082a84546200076e565b84620007aa565b602080601f831160018114620008695760008415620008505750858301515b600019600386901b1c1916600185901b178555620007f4565b600085815260208120601f198616915b828110156200089a5788860151825594840194600190910190840162000879565b5085821015620008b95787850151600019600388901b60f8161c191681555b5050505050600190811b01905550565b634e487b7160e01b600052603260045260246000fd5b808201808211156200090157634e487b7160e01b600052601160045260246000fd5b92915050565b6080516142eb62000938600039600081816107bf01528181611087015281816117f50152612e9801526142eb6000f3fe6080604052600436106104095760003560e01c80637db9b5cf11610213578063b36303fe11610123578063d65ab5f2116100ab578063e985e9c51161007a578063e985e9c514610bb0578063ed306eda14610bd0578063ee0702ac14610be5578063f2fde38b14610c05578063f83dd6ae14610c2557600080fd5b8063d65ab5f214610b49578063d8850e1714610b5e578063e4824c5514610b7e578063e5b401c214610b9b57600080fd5b8063bf90fb4e116100f2578063bf90fb4e14610abd578063c6725aea14610add578063c87b56dd14610af4578063cb00886214610b14578063cdb489b014610b2957600080fd5b8063b36303fe146106e9578063b88d4fde14610a5b578063b953084e14610a7b578063baabd04614610a9d57600080fd5b80639868f01e116101a6578063a22cb46511610175578063a22cb465146109d0578063a36ff4d8146109f0578063a487bcd814610a10578063aa02b37714610a26578063ab4aaff814610a3b57600080fd5b80639868f01e1461095d5780639890ecd91461097357806398da4c95146109865780639ce93edf146109ba57600080fd5b8063875eee29116101e2578063875eee29146108df5780638da5cb5b1461090f57806395d89b411461092d57806397d757761461094257600080fd5b80637db9b5cf1461084d5780637df124a1146108625780638397671d1461088f578063851244f7146108af57600080fd5b80634fc44667116103195780636fe0c046116102a157806375794a3c1161027057806375794a3c146107e157806375bfffa4146107f757806377d5d2dc1461052457806378e97925146108175780637bdf25251461082d57600080fd5b80636fe0c0461461074b57806370a0823114610778578063715018a61461079857806371bab666146107ad57600080fd5b80636352211e116102e85780636352211e146106a9578063669c73f9146106c95780636b10fe63146106e95780636cbc2ded146106fe5780636fc954ad1461071357600080fd5b80634fc44667146106255780635a0b54041461065d5780635ca27577146106735780635fc9a6ff1461069357600080fd5b80631cdda0ef1161039c5780633197cbb61161036b5780633197cbb61461059b5780633718d90a146105b15780633e6968b6146105d15780633fb64e75146105e657806342842e0e1461060557600080fd5b80631cdda0ef14610539578063210094231461054f57806322ae81af1461056457806323b872dd1461057b57600080fd5b8063081812fc116103d8578063081812fc146104aa578063095ea7b3146104e25780631929829a146105045780631b5801321461052457600080fd5b806301ffc9a7146104155780630422ddf31461044a57806306fdde031461046457806307b9fc571461048657600080fd5b3661041057005b600080fd5b34801561042157600080fd5b506104356104303660046136e5565b610c3a565b60405190151581526020015b60405180910390f35b34801561045657600080fd5b50600b546104359060ff1681565b34801561047057600080fd5b50610479610c8c565b6040516104419190613752565b34801561049257600080fd5b5061049c60115481565b604051908152602001610441565b3480156104b657600080fd5b506104ca6104c5366004613765565b610d1e565b6040516001600160a01b039091168152602001610441565b3480156104ee57600080fd5b506105026104fd366004613795565b610d45565b005b34801561051057600080fd5b5061050261051f36600461386b565b610e5f565b34801561053057600080fd5b50610502610f69565b34801561054557600080fd5b5061049c60135481565b34801561055b57600080fd5b50610502610fe3565b34801561057057600080fd5b5061049c6202a30081565b34801561058757600080fd5b506105026105963660046138f2565b61104b565b3480156105a757600080fd5b5061049c600a5481565b3480156105bd57600080fd5b506105026105cc36600461392e565b61107c565b3480156105dd57600080fd5b5061049c6111f0565b3480156105f257600080fd5b50600b5461043590610100900460ff1681565b34801561061157600080fd5b506105026106203660046138f2565b611204565b34801561063157600080fd5b5061049c610640366004613795565b601960209081526000928352604080842090915290825290205481565b34801561066957600080fd5b5061049c60165481565b34801561067f57600080fd5b5061050261068e3660046139aa565b61121f565b34801561069f57600080fd5b5061049c60145481565b3480156106b557600080fd5b506104ca6106c4366004613765565b611254565b3480156106d557600080fd5b506105026106e43660046139cc565b6112b4565b3480156106f557600080fd5b5061049c600381565b34801561070a57600080fd5b506105026112ed565b34801561071f57600080fd5b5061049c61072e3660046139aa565b601a60209081526000928352604080842090915290825290205481565b34801561075757600080fd5b5061076b610766366004613765565b6113a3565b6040516104419190613a8c565b34801561078457600080fd5b5061049c610793366004613a9f565b611531565b3480156107a457600080fd5b506105026115b7565b3480156107b957600080fd5b506104ca7f000000000000000000000000000000000000000000000000000000000000000081565b3480156107ed57600080fd5b5061049c60075481565b34801561080357600080fd5b5061076b610812366004613a9f565b6115c9565b34801561082357600080fd5b5061049c60085481565b34801561083957600080fd5b50610502610848366004613aba565b61178c565b34801561085957600080fd5b506105026117c8565b34801561086e57600080fd5b5061049c61087d366004613a9f565b600e6020526000908152604090205481565b34801561089b57600080fd5b506105026108aa3660046139aa565b611855565b3480156108bb57600080fd5b506104356108ca366004613765565b60176020526000908152604090205460ff1681565b3480156108eb57600080fd5b5061049c6108fa366004613765565b6000908152600d602052604090206003015490565b34801561091b57600080fd5b506006546001600160a01b03166104ca565b34801561093957600080fd5b5061047961188a565b34801561094e57600080fd5b506104ca6002604360981b0181565b34801561096957600080fd5b5061049c600f5481565b610502610981366004613765565b611899565b34801561099257600080fd5b506109a66109a1366004613765565b611979565b604051610441989796959493929190613af6565b3480156109c657600080fd5b5061049c60095481565b3480156109dc57600080fd5b506105026109eb366004613b50565b611aca565b3480156109fc57600080fd5b506010546104ca906001600160a01b031681565b348015610a1c57600080fd5b5061049c60155481565b348015610a3257600080fd5b5061049c611ad9565b348015610a4757600080fd5b50610502610a563660046139cc565b611b44565b348015610a6757600080fd5b50610502610a76366004613b8c565b611b7d565b348015610a8757600080fd5b50610a90611baf565b6040516104419190613c08565b348015610aa957600080fd5b50610502610ab8366004613a9f565b611d6f565b348015610ac957600080fd5b506012546104ca906001600160a01b031681565b348015610ae957600080fd5b5061049c62093a8081565b348015610b0057600080fd5b50610479610b0f366004613765565b611eb9565b348015610b2057600080fd5b506105026120f0565b348015610b3557600080fd5b50610502610b443660046139aa565b6121e6565b348015610b5557600080fd5b5061050261221b565b348015610b6a57600080fd5b50610502610b793660046139aa565b61225a565b348015610b8a57600080fd5b50600b54610100900460ff16610435565b348015610ba757600080fd5b5061049c603281565b348015610bbc57600080fd5b50610435610bcb366004613c6a565b61228f565b348015610bdc57600080fd5b5061049c6122bd565b348015610bf157600080fd5b50610435610c00366004613a9f565b6122dd565b348015610c1157600080fd5b50610502610c20366004613a9f565b612304565b348015610c3157600080fd5b5061050261237a565b60006001600160e01b031982166380ac58cd60e01b1480610c6b57506001600160e01b03198216635b5e139f60e01b145b80610c8657506301ffc9a760e01b6001600160e01b03198316145b92915050565b606060008054610c9b90613c9d565b80601f0160208091040260200160405190810160405280929190818152602001828054610cc790613c9d565b8015610d145780601f10610ce957610100808354040283529160200191610d14565b820191906000526020600020905b815481529060010190602001808311610cf757829003601f168201915b5050505050905090565b6000610d2982612396565b506000908152600460205260409020546001600160a01b031690565b6000610d5082611254565b9050806001600160a01b0316836001600160a01b031603610dc25760405162461bcd60e51b815260206004820152602160248201527f4552433732313a20617070726f76616c20746f2063757272656e74206f776e656044820152603960f91b60648201526084015b60405180910390fd5b336001600160a01b0382161480610dde5750610dde813361228f565b610e505760405162461bcd60e51b815260206004820152603d60248201527f4552433732313a20617070726f76652063616c6c6572206973206e6f7420746f60448201527f6b656e206f776e6572206f7220617070726f76656420666f7220616c6c0000006064820152608401610db9565b610e5a83836123f5565b505050565b610e67612463565b6040805161010081018252600c8054808352602083018a8152938301899052606083018890526080830188905260a0830187905260c0830186905260e08301859052600181018255600091909152815160089091027fdf6966c971051c3d54ec59162606531493a51404a002842f56009d7e5cf4a8c781019182559251919290917fdf6966c971051c3d54ec59162606531493a51404a002842f56009d7e5cf4a8c890910190610f179082613d1f565b5060408201516002820190610f2c9082613d1f565b50606082015181600301556080820151816004015560a0820151816005015560c0820151816006015560e082015181600701555050505050505050565b610f71612463565b604051634aa7d2f760e11b81523060048201523360248201526002604360981b019063954fa5ee906044015b6020604051808303816000875af1158015610fbc573d6000803e3d6000fd5b505050506040513d601f19601f82011682018060405250810190610fe09190613ddf565b50565b604051600090339047908381818185875af1925050503d8060008114611025576040519150601f19603f3d011682016040523d82523d6000602084013e61102a565b606091505b5050905080610fe05760405162461bcd60e51b8152600401610db990613df8565b61105533826124bd565b6110715760405162461bcd60e51b8152600401610db990613e22565b610e5a83838361251c565b336001600160a01b037f000000000000000000000000000000000000000000000000000000000000000016146110ed5760405162461bcd60e51b8152602060048201526016602482015275043616c6c6572206e6f74204169726e6f6465205252560541b6044820152606401610db9565b60008381526017602052604090205460ff166111425760405162461bcd60e51b81526020600482015260146024820152732932b8bab2b9ba1024a2103737ba1035b737bbb760611b6044820152606401610db9565b6000838152601760205260408120805460ff1916905561116482840184613765565b9050611171606482613e85565b61117c906001613eaf565b6013819055600085815260186020526040902080546001909101546111b0926001600160a01b039283169290911690612680565b837f1ca47bacd454c26163f84eff4aa514e291ba9fa67ad6029e39567c122bbed30f826040516111e291815260200190565b60405180910390a250505050565b60006111ff6201518042613ed8565b905090565b610e5a83838360405180602001604052806000815250611b7d565b611227612463565b80600c838154811061123b5761123b613ec2565b9060005260206000209060080201600601819055505050565b6000818152600260205260408120546001600160a01b031680610c865760405162461bcd60e51b8152602060048201526018602482015277115490cdcc8c4e881a5b9d985b1a59081d1bdad95b88125160421b6044820152606401610db9565b6112bc612463565b80600c83815481106112d0576112d0613ec2565b90600052602060002090600802016001019081610e5a9190613d1f565b600b54610100900460ff16151560000361131a57604051637698ab5760e01b815260040160405180910390fd5b61132a600b805461ff0019169055565b601454601555604051631d864f1d60e31b81523060048201526002604360981b019063ec3278e890602401602060405180830381865afa158015611372573d6000803e3d6000fd5b505050506040513d601f19601f820116820180604052508101906113969190613ddf565b6016556113a16128e9565b565b6113ab61361d565b600d600083815260200190815260200160002060405180610100016040529081600082015481526020016001820180546113e490613c9d565b80601f016020809104026020016040519081016040528092919081815260200182805461141090613c9d565b801561145d5780601f106114325761010080835404028352916020019161145d565b820191906000526020600020905b81548152906001019060200180831161144057829003601f168201915b5050505050815260200160028201805461147690613c9d565b80601f01602080910402602001604051908101604052809291908181526020018280546114a290613c9d565b80156114ef5780601f106114c4576101008083540402835291602001916114ef565b820191906000526020600020905b8154815290600101906020018083116114d257829003601f168201915b50505050508152602001600382015481526020016004820154815260200160058201548152602001600682015481526020016007820154815250509050919050565b60006001600160a01b03821661159b5760405162461bcd60e51b815260206004820152602960248201527f4552433732313a2061646472657373207a65726f206973206e6f7420612076616044820152683634b21037bbb732b960b91b6064820152608401610db9565b506001600160a01b031660009081526003602052604090205490565b6115bf612463565b6113a1600061291a565b6115d161361d565b6001600160a01b0382166000908152600e6020526040902054801561177757600d6000828152602001908152602001600020604051806101000160405290816000820154815260200160018201805461162990613c9d565b80601f016020809104026020016040519081016040528092919081815260200182805461165590613c9d565b80156116a25780601f10611677576101008083540402835291602001916116a2565b820191906000526020600020905b81548152906001019060200180831161168557829003601f168201915b505050505081526020016002820180546116bb90613c9d565b80601f01602080910402602001604051908101604052809291908181526020018280546116e790613c9d565b80156117345780601f1061170957610100808354040283529160200191611734565b820191906000526020600020905b81548152906001019060200180831161171757829003601f168201915b5050505050815260200160038201548152602001600482015481526020016005820154815260200160068201548152602001600782015481525050915050919050565b61177f61361d565b9392505050565b50919050565b611794612463565b601080546001600160a01b039485166001600160a01b03199182161790915560119290925560128054919093169116179055565b601054601254604051631d414cbd60e01b81526001600160a01b03928316600482015290821660248201527f000000000000000000000000000000000000000000000000000000000000000090911690631d414cbd90604401600060405180830381600087803b15801561183b57600080fd5b505af115801561184f573d6000803e3d6000fd5b50505050565b61185d612463565b80600c838154811061187157611871613ec2565b9060005260206000209060080201600701819055505050565b606060018054610c9b90613c9d565b600b54610100900460ff1615156000036118c657604051637698ab5760e01b815260040160405180910390fd5b6009544211156118e9576040516303f5b16960e31b815260040160405180910390fd5b600b5460ff161561190d576040516313d0ff5960e31b815260040160405180910390fd5b600f5434101561193057604051635a6f835360e01b815260040160405180910390fd5b600061193b33611531565b111561195a57604051637c1a195560e01b815260040160405180910390fd5b6119638161296c565b60146000815461197290613eec565b9091555050565b600d602052600090815260409020805460018201805491929161199b90613c9d565b80601f01602080910402602001604051908101604052809291908181526020018280546119c790613c9d565b8015611a145780601f106119e957610100808354040283529160200191611a14565b820191906000526020600020905b8154815290600101906020018083116119f757829003601f168201915b505050505090806002018054611a2990613c9d565b80601f0160208091040260200160405190810160405280929190818152602001828054611a5590613c9d565b8015611aa25780601f10611a7757610100808354040283529160200191611aa2565b820191906000526020600020905b815481529060010190602001808311611a8557829003601f168201915b5050505050908060030154908060040154908060050154908060060154908060070154905088565b611ad5338383612d34565b5050565b604051631d864f1d60e31b815230600482015260009081906002604360981b019063ec3278e890602401602060405180830381865afa158015611b20573d6000803e3d6000fd5b505050506040513d601f19601f82011682018060405250810190610c869190613ddf565b611b4c612463565b80600c8381548110611b6057611b60613ec2565b90600052602060002090600802016002019081610e5a9190613d1f565b611b8733836124bd565b611ba35760405162461bcd60e51b8152600401610db990613e22565b61184f84848484612e02565b6060600c805480602002602001604051908101604052809291908181526020016000905b82821015611d6657838290600052602060002090600802016040518061010001604052908160008201548152602001600182018054611c1190613c9d565b80601f0160208091040260200160405190810160405280929190818152602001828054611c3d90613c9d565b8015611c8a5780601f10611c5f57610100808354040283529160200191611c8a565b820191906000526020600020905b815481529060010190602001808311611c6d57829003601f168201915b50505050508152602001600282018054611ca390613c9d565b80601f0160208091040260200160405190810160405280929190818152602001828054611ccf90613c9d565b8015611d1c5780601f10611cf157610100808354040283529160200191611d1c565b820191906000526020600020905b815481529060010190602001808311611cff57829003601f168201915b505050505081526020016003820154815260200160048201548152602001600582015481526020016006820154815260200160078201548152505081526020019060010190611bd3565b50505050905090565b600b54610100900460ff161515600003611d9c57604051637698ab5760e01b815260040160405180910390fd5b600b5460ff1615611dc0576040516313d0ff5960e31b815260040160405180910390fd5b600a54421115611de357604051631f62703960e11b815260040160405180910390fd5b611dec33611531565b600003611e0c576040516354abb27f60e01b815260040160405180910390fd5b611e1581611531565b600003611e35576040516313eb680960e01b815260040160405180910390fd5b336000908152600e602052604081205490611e4e6111f0565b6001600160a01b03841660009081526019602090815260408083208484529091528120805492935090611e8083613eec565b90915550506000828152601a602090815260408083208484529091528120805491611eaa83613eec565b9190505550610e5a8333612e35565b6000818152600d6020908152604080832081516101008101909252805482526001810180546060959484019190611eef90613c9d565b80601f0160208091040260200160405190810160405280929190818152602001828054611f1b90613c9d565b8015611f685780601f10611f3d57610100808354040283529160200191611f68565b820191906000526020600020905b815481529060010190602001808311611f4b57829003601f168201915b50505050508152602001600282018054611f8190613c9d565b80601f0160208091040260200160405190810160405280929190818152602001828054611fad90613c9d565b8015611ffa5780601f10611fcf57610100808354040283529160200191611ffa565b820191906000526020600020905b815481529060010190602001808311611fdd57829003601f168201915b5050505050815260200160038201548152602001600482015481526020016005820154815260200160068201548152602001600782015481525050905060006120468260600151612f87565b905060006120578360800151612f87565b905060006120688460a00151612f87565b905060006120798560c00151612f87565b905060006120c1866020015161208e8a612f87565b8860400151888888886040516020016120ad9796959493929190613f21565b60405160208183030381529060405261301a565b9050806040516020016120d491906140fe565b6040516020818303038152906040529650505050505050919050565b600b54610100900460ff16151560010361211d576040516325a1009960e21b815260040160405180910390fd5b61212633611531565b600003612146576040516354abb27f60e01b815260040160405180910390fd5b336000908152600e602052604090205461215f90613184565b6000612169613219565b90506000600f548261217b9190613eaf565b604051909150600090339083908381818185875af1925050503d80600081146121c0576040519150601f19603f3d011682016040523d82523d6000602084013e6121c5565b606091505b5050905080610e5a5760405162461bcd60e51b8152600401610db990613df8565b6121ee612463565b80600c838154811061220257612202613ec2565b9060005260206000209060080201600501819055505050565b600b54610100900460ff161515600103612248576040516354409d4960e11b815260040160405180910390fd5b600060158190556016556113a1613250565b612262612463565b80600c838154811061227657612276613ec2565b9060005260206000209060080201600401819055505050565b6001600160a01b03918216600090815260056020908152604080832093909416825291909152205460ff1690565b6000600a544210156122d75742600a546111ff9190614143565b50600090565b6000806122e983611531565b11156122f757506001919050565b506000919050565b919050565b61230c612463565b6001600160a01b0381166123715760405162461bcd60e51b815260206004820152602660248201527f4f776e61626c653a206e6577206f776e657220697320746865207a65726f206160448201526564647265737360d01b6064820152608401610db9565b610fe08161291a565b612382612463565b600b805460ff19811660ff90911615179055565b6000818152600260205260409020546001600160a01b0316610fe05760405162461bcd60e51b8152602060048201526018602482015277115490cdcc8c4e881a5b9d985b1a59081d1bdad95b88125160421b6044820152606401610db9565b600081815260046020526040902080546001600160a01b0319166001600160a01b038416908117909155819061242a82611254565b6001600160a01b03167f8c5be1e5ebec7d5bd14f71427d1e84f3dd0314c0f7b2291e5b200ac8c7c3b92560405160405180910390a45050565b6006546001600160a01b031633146113a15760405162461bcd60e51b815260206004820181905260248201527f4f776e61626c653a2063616c6c6572206973206e6f7420746865206f776e65726044820152606401610db9565b6000806124c983611254565b9050806001600160a01b0316846001600160a01b031614806124f057506124f0818561228f565b806125145750836001600160a01b031661250984610d1e565b6001600160a01b0316145b949350505050565b826001600160a01b031661252f82611254565b6001600160a01b0316146125555760405162461bcd60e51b8152600401610db990614156565b6001600160a01b0382166125b75760405162461bcd60e51b8152602060048201526024808201527f4552433732313a207472616e7366657220746f20746865207a65726f206164646044820152637265737360e01b6064820152608401610db9565b826001600160a01b03166125ca82611254565b6001600160a01b0316146125f05760405162461bcd60e51b8152600401610db990614156565b600081815260046020908152604080832080546001600160a01b03199081169091556001600160a01b0387811680865260038552838620805460001901905590871680865283862080546001019055868652600290945282852080549092168417909155905184937fddf252ad1be2c89b69c2b068fc378daa952ba7f163c4a11628f55a4df523b3ef91a4505050565b600b5460ff16156126a4576040516313d0ff5960e31b815260040160405180910390fd5b6126ad83611531565b6000036126cd576040516313eb680960e01b815260040160405180910390fd5b6001600160a01b038083166000908152600e6020908152604080832054938716835280832054848452600d90925280832082845292206007810154919291612716906032614143565b85111561276957604080516001600160a01b038089168252891660208201527faafa4be7ba57bc03734289a43be057552a15f868d6e71495af22986da576dac0910160405180910390a150505050505050565b600081600601548360050154876127809190613eaf565b61278a9190614143565b90508160030154811115612876576127a184613184565b604080516001600160a01b038a811682526020820187905289168183015290517f345dbdb55ee78a22d5de8124ef7d24a78314b38f44bc9d3cc50ab9f06e13f2f49181900360600190a16014600081546127fa9061419b565b90915550600f546040516000916001600160a01b038b16918381818185875af1925050503d806000811461284a576040519150601f19603f3d011682016040523d82523d6000602084013e61284f565b606091505b50509050806128705760405162461bcd60e51b8152600401610db990613df8565b506128df565b8082600301546128869190614143565b60038301819055604080516001600160a01b038a811682528b1660208201528082018490526060810192909252517fa3d731e36de965a3a18800c9550bff56511a732ecf82a444ca0b48712488460b9181900360800190a15b5050505050505050565b60405163430021db60e11b8152306004820181905260248201526002604360981b019063860043b690604401610f9d565b600680546001600160a01b038381166001600160a01b0319831681179093556040519116919082907f8be0079c531659141344cd1fd0a4f28419497f9722a3daafe3b4186f6b6457e090600090a35050565b600b54610100900460ff16151560000361299957604051637698ab5760e01b815260040160405180910390fd5b6009544211156129bc576040516303f5b16960e31b815260040160405180910390fd5b600b5460ff16156129e0576040516313d0ff5960e31b815260040160405180910390fd5b60006129eb33611531565b1115612a0a57604051637c1a195560e01b815260040160405180910390fd5b612a16336007546132b9565b604051806101000160405280828152602001600c8381548110612a3b57612a3b613ec2565b90600052602060002090600802016001018054612a5790613c9d565b80601f0160208091040260200160405190810160405280929190818152602001828054612a8390613c9d565b8015612ad05780601f10612aa557610100808354040283529160200191612ad0565b820191906000526020600020905b815481529060010190602001808311612ab357829003601f168201915b50505050508152602001600c8381548110612aed57612aed613ec2565b90600052602060002090600802016002018054612b0990613c9d565b80601f0160208091040260200160405190810160405280929190818152602001828054612b3590613c9d565b8015612b825780601f10612b5757610100808354040283529160200191612b82565b820191906000526020600020905b815481529060010190602001808311612b6557829003601f168201915b50505050508152602001600c8381548110612b9f57612b9f613ec2565b9060005260206000209060080201600301548152602001600c8381548110612bc957612bc9613ec2565b9060005260206000209060080201600301548152602001600c8381548110612bf357612bf3613ec2565b9060005260206000209060080201600501548152602001600c8381548110612c1d57612c1d613ec2565b9060005260206000209060080201600601548152602001600c8381548110612c4757612c47613ec2565b600091825260208083206007600890930201820154909352548152600d82526040902082518155908201516001820190612c819082613d1f565b5060408201516002820190612c969082613d1f565b50606082015160038201556080820151600482015560a0820151600582015560c0820151600682015560e0909101516007918201558054336000908152600e6020526040812082905590612ce990613eec565b9091555060075460408051338152602081019290925281018290527f4bc303fd457a97b4691b9af582ce71868a3d258638c8d4f8c60988a0f0bfb8cd9060600160405180910390a150565b816001600160a01b0316836001600160a01b031603612d955760405162461bcd60e51b815260206004820152601960248201527f4552433732313a20617070726f766520746f2063616c6c6572000000000000006044820152606401610db9565b6001600160a01b03838116600081815260056020908152604080832094871680845294825291829020805460ff191686151590811790915591519182527f17307eab39ab6107e8899845ad3d59bd9653f200f220920489ca2b5937696c31910160405180910390a3505050565b612e0d84848461251c565b612e1984848484613444565b61184f5760405162461bcd60e51b8152600401610db9906141b2565b601054601154601254604051636e6be03f60e01b81526001600160a01b0393841660048201526024810192909252306044830181905290831660648301526084820152631b8c6c8560e11b60a482015260e060c4820152600060e48201819052917f00000000000000000000000000000000000000000000000000000000000000001690636e6be03f90610104016020604051808303816000875af1158015612ee2573d6000803e3d6000fd5b505050506040513d601f19601f82011682018060405250810190612f069190613ddf565b6000818152601760209081526040808320805460ff19166001179055805180820182526001600160a01b0380891682528716818401528484526018909252909120919250612f5691906002613662565b5060405181907ff039428b095c79c12e434981caacc36fbc90eede12232a5fdc82b0beeddf3c2090600090a2505050565b60606000612f9483613545565b600101905060008167ffffffffffffffff811115612fb457612fb46137bf565b6040519080825280601f01601f191660200182016040528015612fde576020820181803683370190505b5090508181016020015b600019016f181899199a1a9b1b9c1cb0b131b232b360811b600a86061a8153600a8504945084612fe857509392505050565b8051606090600081900361303e575050604080516020810190915260008152919050565b6000600361304d836002613eaf565b6130579190613ed8565b613062906004614204565b90506000613071826020613eaf565b67ffffffffffffffff811115613089576130896137bf565b6040519080825280601f01601f1916602001820160405280156130b3576020820181803683370190505b5090506000604051806060016040528060408152602001614276604091399050600181016020830160005b8681101561313f576003818a01810151603f601282901c8116860151600c83901c8216870151600684901c831688015192909316870151600891821b60ff94851601821b92841692909201901b91160160e01b8352600490920191016130de565b506003860660018114613159576002811461316a57613176565b613d3d60f01b600119830152613176565b603d60f81b6000198301525b505050918152949350505050565b600061318f82611254565b905061319a82611254565b600083815260046020908152604080832080546001600160a01b03199081169091556001600160a01b0385168085526003845282852080546000190190558785526002909352818420805490911690555192935084927fddf252ad1be2c89b69c2b068fc378daa952ba7f163c4a11628f55a4df523b3ef908390a45050565b60165460009080820361322e57600091505090565b60006015548261323e9190613ed8565b90506000601554826125149190614204565b600b54610100900460ff16151560010361327d576040516354409d4960e11b815260040160405180910390fd5b600b805461ff0019166101001790554260088190556132a0906202a30090613eaf565b6009556008546132b49062093a8090613eaf565b600a55565b6001600160a01b03821661330f5760405162461bcd60e51b815260206004820181905260248201527f4552433732313a206d696e7420746f20746865207a65726f20616464726573736044820152606401610db9565b6000818152600260205260409020546001600160a01b0316156133745760405162461bcd60e51b815260206004820152601c60248201527f4552433732313a20746f6b656e20616c7265616479206d696e746564000000006044820152606401610db9565b6000818152600260205260409020546001600160a01b0316156133d95760405162461bcd60e51b815260206004820152601c60248201527f4552433732313a20746f6b656e20616c7265616479206d696e746564000000006044820152606401610db9565b6001600160a01b038216600081815260036020908152604080832080546001019055848352600290915280822080546001600160a01b0319168417905551839291907fddf252ad1be2c89b69c2b068fc378daa952ba7f163c4a11628f55a4df523b3ef908290a45050565b60006001600160a01b0384163b1561353a57604051630a85bd0160e11b81526001600160a01b0385169063150b7a029061348890339089908890889060040161421b565b6020604051808303816000875af19250505080156134c3575060408051601f3d908101601f191682019092526134c091810190614258565b60015b613520573d8080156134f1576040519150601f19603f3d011682016040523d82523d6000602084013e6134f6565b606091505b5080516000036135185760405162461bcd60e51b8152600401610db9906141b2565b805181602001fd5b6001600160e01b031916630a85bd0160e11b149050612514565b506001949350505050565b60008072184f03e93ff9f4daa797ed6e38ed64bf6a1f0160401b83106135845772184f03e93ff9f4daa797ed6e38ed64bf6a1f0160401b830492506040015b6d04ee2d6d415b85acef810000000083106135b0576d04ee2d6d415b85acef8100000000830492506020015b662386f26fc1000083106135ce57662386f26fc10000830492506010015b6305f5e10083106135e6576305f5e100830492506008015b61271083106135fa57612710830492506004015b6064831061360c576064830492506002015b600a8310610c865760010192915050565b60405180610100016040528060008152602001606081526020016060815260200160008152602001600081526020016000815260200160008152602001600081525090565b82600281019282156136aa579160200282015b828111156136aa57825182546001600160a01b0319166001600160a01b03909116178255602090920191600190910190613675565b506136b69291506136ba565b5090565b5b808211156136b657600081556001016136bb565b6001600160e01b031981168114610fe057600080fd5b6000602082840312156136f757600080fd5b813561177f816136cf565b60005b8381101561371d578181015183820152602001613705565b50506000910152565b6000815180845261373e816020860160208601613702565b601f01601f19169290920160200192915050565b60208152600061177f6020830184613726565b60006020828403121561377757600080fd5b5035919050565b80356001600160a01b03811681146122ff57600080fd5b600080604083850312156137a857600080fd5b6137b18361377e565b946020939093013593505050565b634e487b7160e01b600052604160045260246000fd5b600067ffffffffffffffff808411156137f0576137f06137bf565b604051601f8501601f19908116603f01168101908282118183101715613818576138186137bf565b8160405280935085815286868601111561383157600080fd5b858560208301376000602087830101525050509392505050565b600082601f83011261385c57600080fd5b61177f838335602085016137d5565b60008060008060008060c0878903121561388457600080fd5b863567ffffffffffffffff8082111561389c57600080fd5b6138a88a838b0161384b565b975060208901359150808211156138be57600080fd5b506138cb89828a0161384b565b96999698505050506040850135946060810135946080820135945060a09091013592509050565b60008060006060848603121561390757600080fd5b6139108461377e565b925061391e6020850161377e565b9150604084013590509250925092565b60008060006040848603121561394357600080fd5b83359250602084013567ffffffffffffffff8082111561396257600080fd5b818601915086601f83011261397657600080fd5b81358181111561398557600080fd5b87602082850101111561399757600080fd5b6020830194508093505050509250925092565b600080604083850312156139bd57600080fd5b50508035926020909101359150565b600080604083850312156139df57600080fd5b82359150602083013567ffffffffffffffff8111156139fd57600080fd5b613a098582860161384b565b9150509250929050565b6000610100825184526020830151816020860152613a3382860182613726565b91505060408301518482036040860152613a4d8282613726565b915050606083015160608501526080830151608085015260a083015160a085015260c083015160c085015260e083015160e08501528091505092915050565b60208152600061177f6020830184613a13565b600060208284031215613ab157600080fd5b61177f8261377e565b600080600060608486031215613acf57600080fd5b613ad88461377e565b925060208401359150613aed6040850161377e565b90509250925092565b60006101008a8352806020840152613b108184018b613726565b90508281036040840152613b24818a613726565b60608401989098525050608081019490945260a084019290925260c083015260e0909101529392505050565b60008060408385031215613b6357600080fd5b613b6c8361377e565b915060208301358015158114613b8157600080fd5b809150509250929050565b60008060008060808587031215613ba257600080fd5b613bab8561377e565b9350613bb96020860161377e565b925060408501359150606085013567ffffffffffffffff811115613bdc57600080fd5b8501601f81018713613bed57600080fd5b613bfc878235602084016137d5565b91505092959194509250565b6000602080830181845280855180835260408601915060408160051b870101925083870160005b82811015613c5d57603f19888603018452613c4b858351613a13565b94509285019290850190600101613c2f565b5092979650505050505050565b60008060408385031215613c7d57600080fd5b613c868361377e565b9150613c946020840161377e565b90509250929050565b600181811c90821680613cb157607f821691505b60208210810361178657634e487b7160e01b600052602260045260246000fd5b601f821115610e5a57600081815260208120601f850160051c81016020861015613cf85750805b601f850160051c820191505b81811015613d1757828155600101613d04565b505050505050565b815167ffffffffffffffff811115613d3957613d396137bf565b613d4d81613d478454613c9d565b84613cd1565b602080601f831160018114613d825760008415613d6a5750858301515b600019600386901b1c1916600185901b178555613d17565b600085815260208120601f198616915b82811015613db157888601518255948401946001909101908401613d92565b5085821015613dcf5787850151600019600388901b60f8161c191681555b5050505050600190811b01905550565b600060208284031215613df157600080fd5b5051919050565b60208082526010908201526f14185e5b595b9d081b9bdd081cd95b9d60821b604082015260600190565b6020808252602d908201527f4552433732313a2063616c6c6572206973206e6f7420746f6b656e206f776e6560408201526c1c881bdc88185c1c1c9bdd9959609a1b606082015260800190565b634e487b7160e01b600052601260045260246000fd5b600082613e9457613e94613e6f565b500690565b634e487b7160e01b600052601160045260246000fd5b80820180821115610c8657610c86613e99565b634e487b7160e01b600052603260045260246000fd5b600082613ee757613ee7613e6f565b500490565b600060018201613efe57613efe613e99565b5060010190565b60008151613f17818560208601613702565b9290920192915050565b693d913730b6b2911d101160b11b81528751600090613f4781600a850160208d01613702565b6a01016969027232a10119d160ad1b600a918401918201528851613f72816015840160208d01613702565b7f222c20226465736372697074696f6e223a202254686520536e6f7762616c6c20601592909101918201527123b0b6b2909116101134b6b0b3b2911d101160711b60358201528751613fcb816047840160208c01613702565b7f222c202261747472696275746573223a205b207b2274726169745f7479706522604792909101918201527f3a20224865616c746820506f696e7473222c202276616c7565223a200000000060678201526140f06140e16140db6140a361409d61405f61405961403e608389018f613f05565b6e016101136b0bc2fbb30b63ab2911d1608d1b8152600f0190565b8c613f05565b7f7d2c207b2274726169745f74797065223a202241747461636b2044616d61676581526b0111610113b30b63ab2911d160a51b6020820152602c0190565b89613f05565b7f7d2c207b2274726169745f74797065223a2022446566656e7365222c202276618152650363ab2911d160d51b602082015260260190565b86613f05565b627d5d7d60e81b815260030190565b9a9950505050505050505050565b7f646174613a6170706c69636174696f6e2f6a736f6e3b6261736536342c00000081526000825161413681601d850160208701613702565b91909101601d0192915050565b81810381811115610c8657610c86613e99565b60208082526025908201527f4552433732313a207472616e736665722066726f6d20696e636f72726563742060408201526437bbb732b960d91b606082015260800190565b6000816141aa576141aa613e99565b506000190190565b60208082526032908201527f4552433732313a207472616e7366657220746f206e6f6e20455243373231526560408201527131b2b4bb32b91034b6b83632b6b2b73a32b960711b606082015260800190565b8082028115828204841417610c8657610c86613e99565b6001600160a01b038581168252841660208201526040810183905260806060820181905260009061424e90830184613726565b9695505050505050565b60006020828403121561426a57600080fd5b815161177f816136cf56fe4142434445464748494a4b4c4d4e4f505152535455565758595a6162636465666768696a6b6c6d6e6f707172737475767778797a303132333435363738392b2fa2646970667358221220091a89f118269afb8e8b6ab29381a42dbbcaeab3ad7c67598feae0e59afd137264736f6c63430008130033",
  "linkReferences": {},
  "deployedLinkReferences": {}
}