{
  "_format": "hh-sol-artifact-1",
  "contractName": "NFTAttack",
  "sourceName": "contracts/NFTAttack.sol",
  "abi": [
    {
      "inputs": [
        {
          "internalType": "address",
          "name": "_airnodeRrp",
          "type": "address"
        },
        {
          "internalType": "string[]",
          "name": "characterNames",
          "type": "string[]"
        },
        {
          "internalType": "string[]",
          "name": "characterImageURIs",
          "type": "string[]"
        },
        {
          "internalType": "uint256[]",
          "name": "characterHp",
          "type": "uint256[]"
        },
        {
          "internalType": "uint256[]",
          "name": "characterAttack",
          "type": "uint256[]"
        },
        {
          "internalType": "uint256[]",
          "name": "characterDefense",
          "type": "uint256[]"
        },
        {
          "internalType": "uint256[]",
          "name": "characterEvade",
          "type": "uint256[]"
        }
      ],
      "stateMutability": "nonpayable",
      "type": "constructor"
    },
    {
      "inputs": [],
      "name": "AlreadyHasNFT",
      "type": "error"
    },
    {
      "inputs": [],
      "name": "EnemyNeedsNFT",
      "type": "error"
    },
    {
      "inputs": [],
      "name": "GameHasAlreadyStarted",
      "type": "error"
    },
    {
      "inputs": [],
      "name": "GameHasEnded",
      "type": "error"
    },
    {
      "inputs": [],
      "name": "GameHasNotEnded",
      "type": "error"
    },
    {
      "inputs": [],
      "name": "GameHasNotStarted",
      "type": "error"
    },
    {
      "inputs": [],
      "name": "IncorrectEtherValue",
      "type": "error"
    },
    {
      "inputs": [],
      "name": "MintWindowPassed",
      "type": "error"
    },
    {
      "inputs": [],
      "name": "Paused",
      "type": "error"
    },
    {
      "inputs": [],
      "name": "YouNeedAnNFT",
      "type": "error"
    },
    {
      "anonymous": false,
      "inputs": [
        {
          "indexed": true,
          "internalType": "address",
          "name": "owner",
          "type": "address"
        },
        {
          "indexed": true,
          "internalType": "address",
          "name": "approved",
          "type": "address"
        },
        {
          "indexed": true,
          "internalType": "uint256",
          "name": "tokenId",
          "type": "uint256"
        }
      ],
      "name": "Approval",
      "type": "event"
    },
    {
      "anonymous": false,
      "inputs": [
        {
          "indexed": true,
          "internalType": "address",
          "name": "owner",
          "type": "address"
        },
        {
          "indexed": true,
          "internalType": "address",
          "name": "operator",
          "type": "address"
        },
        {
          "indexed": false,
          "internalType": "bool",
          "name": "approved",
          "type": "bool"
        }
      ],
      "name": "ApprovalForAll",
      "type": "event"
    },
    {
      "anonymous": false,
      "inputs": [
        {
          "indexed": false,
          "internalType": "uint256",
          "name": "atkAmount",
          "type": "uint256"
        },
        {
          "indexed": false,
          "internalType": "uint256",
          "name": "playerHp",
          "type": "uint256"
        }
      ],
      "name": "AttackComplete",
      "type": "event"
    },
    {
      "anonymous": false,
      "inputs": [
        {
          "indexed": false,
          "internalType": "address",
          "name": "sender",
          "type": "address"
        },
        {
          "indexed": false,
          "internalType": "uint256",
          "name": "tokenId",
          "type": "uint256"
        },
        {
          "indexed": false,
          "internalType": "uint256",
          "name": "characterIndex",
          "type": "uint256"
        }
      ],
      "name": "CharacterNFTMinted",
      "type": "event"
    },
    {
      "anonymous": false,
      "inputs": [
        {
          "indexed": false,
          "internalType": "address",
          "name": "attacker",
          "type": "address"
        },
        {
          "indexed": false,
          "internalType": "address",
          "name": "victim",
          "type": "address"
        }
      ],
      "name": "MissedAttack",
      "type": "event"
    },
    {
      "anonymous": false,
      "inputs": [
        {
          "indexed": false,
          "internalType": "address",
          "name": "victim",
          "type": "address"
        },
        {
          "indexed": false,
          "internalType": "uint256",
          "name": "tokenId",
          "type": "uint256"
        },
        {
          "indexed": false,
          "internalType": "address",
          "name": "attacker",
          "type": "address"
        }
      ],
      "name": "NFTBurned",
      "type": "event"
    },
    {
      "anonymous": false,
      "inputs": [
        {
          "indexed": true,
          "internalType": "address",
          "name": "previousOwner",
          "type": "address"
        },
        {
          "indexed": true,
          "internalType": "address",
          "name": "newOwner",
          "type": "address"
        }
      ],
      "name": "OwnershipTransferred",
      "type": "event"
    },
    {
      "anonymous": false,
      "inputs": [
        {
          "indexed": true,
          "internalType": "bytes32",
          "name": "requestId",
          "type": "bytes32"
        },
        {
          "indexed": false,
          "internalType": "uint256",
          "name": "response",
          "type": "uint256"
        }
      ],
      "name": "ReceivedUint256",
      "type": "event"
    },
    {
      "anonymous": false,
      "inputs": [
        {
          "indexed": true,
          "internalType": "bytes32",
          "name": "requestId",
          "type": "bytes32"
        }
      ],
      "name": "RequestUint256",
      "type": "event"
    },
    {
      "anonymous": false,
      "inputs": [
        {
          "indexed": false,
          "internalType": "address",
          "name": "attacker",
          "type": "address"
        },
        {
          "indexed": false,
          "internalType": "address",
          "name": "victim",
          "type": "address"
        },
        {
          "indexed": false,
          "internalType": "uint256",
          "name": "damageAmount",
          "type": "uint256"
        },
        {
          "indexed": false,
          "internalType": "uint256",
          "name": "victimHp",
          "type": "uint256"
        }
      ],
      "name": "SuccessfulAttack",
      "type": "event"
    },
    {
      "anonymous": false,
      "inputs": [
        {
          "indexed": true,
          "internalType": "address",
          "name": "from",
          "type": "address"
        },
        {
          "indexed": true,
          "internalType": "address",
          "name": "to",
          "type": "address"
        },
        {
          "indexed": true,
          "internalType": "uint256",
          "name": "tokenId",
          "type": "uint256"
        }
      ],
      "name": "Transfer",
      "type": "event"
    },
    {
      "inputs": [],
      "name": "BASE_EVADE_RATE",
      "outputs": [
        {
          "internalType": "uint256",
          "name": "",
          "type": "uint256"
        }
      ],
      "stateMutability": "view",
      "type": "function"
    },
    {
      "inputs": [],
      "name": "BLAST",
      "outputs": [
        {
          "internalType": "contract IBlast",
          "name": "",
          "type": "address"
        }
      ],
      "stateMutability": "view",
      "type": "function"
    },
    {
      "inputs": [],
      "name": "MAX_ATTACKS",
      "outputs": [
        {
          "internalType": "uint256",
          "name": "",
          "type": "uint256"
        }
      ],
      "stateMutability": "view",
      "type": "function"
    },
    {
      "inputs": [],
      "name": "MAX_SHOTS_TAKEN",
      "outputs": [
        {
          "internalType": "uint256",
          "name": "",
          "type": "uint256"
        }
      ],
      "stateMutability": "view",
      "type": "function"
    },
    {
      "inputs": [],
      "name": "MINT_WINDOW",
      "outputs": [
        {
          "internalType": "uint256",
          "name": "",
          "type": "uint256"
        }
      ],
      "stateMutability": "view",
      "type": "function"
    },
    {
      "inputs": [],
      "name": "TOTAL_TIME",
      "outputs": [
        {
          "internalType": "uint256",
          "name": "",
          "type": "uint256"
        }
      ],
      "stateMutability": "view",
      "type": "function"
    },
    {
      "inputs": [
        {
          "internalType": "string",
          "name": "_name",
          "type": "string"
        },
        {
          "internalType": "string",
          "name": "_imageURI",
          "type": "string"
        },
        {
          "internalType": "uint256",
          "name": "_hp",
          "type": "uint256"
        },
        {
          "internalType": "uint256",
          "name": "_attack",
          "type": "uint256"
        },
        {
          "internalType": "uint256",
          "name": "_defense",
          "type": "uint256"
        },
        {
          "internalType": "uint256",
          "name": "_evade",
          "type": "uint256"
        }
      ],
      "name": "addCharacter",
      "outputs": [],
      "stateMutability": "nonpayable",
      "type": "function"
    },
    {
      "inputs": [],
      "name": "airnode",
      "outputs": [
        {
          "internalType": "address",
          "name": "",
          "type": "address"
        }
      ],
      "stateMutability": "view",
      "type": "function"
    },
    {
      "inputs": [],
      "name": "airnodeRrp",
      "outputs": [
        {
          "internalType": "contract IAirnodeRrpV0",
          "name": "",
          "type": "address"
        }
      ],
      "stateMutability": "view",
      "type": "function"
    },
    {
      "inputs": [
        {
          "internalType": "address",
          "name": "to",
          "type": "address"
        },
        {
          "internalType": "uint256",
          "name": "tokenId",
          "type": "uint256"
        }
      ],
      "name": "approve",
      "outputs": [],
      "stateMutability": "nonpayable",
      "type": "function"
    },
    {
      "inputs": [
        {
          "internalType": "uint256",
          "name": "",
          "type": "uint256"
        },
        {
          "internalType": "uint256",
          "name": "",
          "type": "uint256"
        }
      ],
      "name": "attacksSentDaily",
      "outputs": [
        {
          "internalType": "uint256",
          "name": "",
          "type": "uint256"
        }
      ],
      "stateMutability": "view",
      "type": "function"
    },
    {
      "inputs": [
        {
          "internalType": "address",
          "name": "owner",
          "type": "address"
        }
      ],
      "name": "balanceOf",
      "outputs": [
        {
          "internalType": "uint256",
          "name": "",
          "type": "uint256"
        }
      ],
      "stateMutability": "view",
      "type": "function"
    },
    {
      "inputs": [
        {
          "internalType": "address",
          "name": "_holder",
          "type": "address"
        }
      ],
      "name": "checkIfTargetHasNFT",
      "outputs": [
        {
          "internalType": "bool",
          "name": "",
          "type": "bool"
        }
      ],
      "stateMutability": "view",
      "type": "function"
    },
    {
      "inputs": [
        {
          "internalType": "address",
          "name": "_holder",
          "type": "address"
        }
      ],
      "name": "checkIfUserNFT",
      "outputs": [
        {
          "components": [
            {
              "internalType": "uint256",
              "name": "characterIndex",
              "type": "uint256"
            },
            {
              "internalType": "string",
              "name": "name",
              "type": "string"
            },
            {
              "internalType": "string",
              "name": "imageURI",
              "type": "string"
            },
            {
              "internalType": "uint256",
              "name": "hp",
              "type": "uint256"
            },
            {
              "internalType": "uint256",
              "name": "maxHp",
              "type": "uint256"
            },
            {
              "internalType": "uint256",
              "name": "attackDamage",
              "type": "uint256"
            },
            {
              "internalType": "uint256",
              "name": "defense",
              "type": "uint256"
            },
            {
              "internalType": "uint256",
              "name": "evade",
              "type": "uint256"
            }
          ],
          "internalType": "struct SnowDay.CharacterAttributes",
          "name": "",
          "type": "tuple"
        }
      ],
      "stateMutability": "view",
      "type": "function"
    },
    {
      "inputs": [],
      "name": "claimGasUsedByContract",
      "outputs": [],
      "stateMutability": "nonpayable",
      "type": "function"
    },
    {
      "inputs": [],
      "name": "claimYourPrize",
      "outputs": [],
      "stateMutability": "nonpayable",
      "type": "function"
    },
    {
      "inputs": [
        {
          "internalType": "address",
          "name": "",
          "type": "address"
        },
        {
          "internalType": "uint256",
          "name": "",
          "type": "uint256"
        }
      ],
      "name": "dailyAttacksReceived",
      "outputs": [
        {
          "internalType": "uint256",
          "name": "",
          "type": "uint256"
        }
      ],
      "stateMutability": "view",
      "type": "function"
    },
    {
      "inputs": [],
      "name": "endGame",
      "outputs": [],
      "stateMutability": "nonpayable",
      "type": "function"
    },
    {
      "inputs": [],
      "name": "endTime",
      "outputs": [
        {
          "internalType": "uint256",
          "name": "",
          "type": "uint256"
        }
      ],
      "stateMutability": "view",
      "type": "function"
    },
    {
      "inputs": [],
      "name": "endpointIdUint256",
      "outputs": [
        {
          "internalType": "bytes32",
          "name": "",
          "type": "bytes32"
        }
      ],
      "stateMutability": "view",
      "type": "function"
    },
    {
      "inputs": [
        {
          "internalType": "uint256",
          "name": "_characterIndex",
          "type": "uint256"
        }
      ],
      "name": "enterTheArena",
      "outputs": [],
      "stateMutability": "payable",
      "type": "function"
    },
    {
      "inputs": [
        {
          "internalType": "bytes32",
          "name": "",
          "type": "bytes32"
        }
      ],
      "name": "expectingRequestWithIdToBeFulfilled",
      "outputs": [
        {
          "internalType": "bool",
          "name": "",
          "type": "bool"
        }
      ],
      "stateMutability": "view",
      "type": "function"
    },
    {
      "inputs": [
        {
          "internalType": "bytes32",
          "name": "requestId",
          "type": "bytes32"
        },
        {
          "internalType": "bytes",
          "name": "data",
          "type": "bytes"
        }
      ],
      "name": "fulfillUint256",
      "outputs": [],
      "stateMutability": "nonpayable",
      "type": "function"
    },
    {
      "inputs": [],
      "name": "gameInProgress",
      "outputs": [
        {
          "internalType": "bool",
          "name": "",
          "type": "bool"
        }
      ],
      "stateMutability": "view",
      "type": "function"
    },
    {
      "inputs": [],
      "name": "getAllDefaultCharacters",
      "outputs": [
        {
          "components": [
            {
              "internalType": "uint256",
              "name": "characterIndex",
              "type": "uint256"
            },
            {
              "internalType": "string",
              "name": "name",
              "type": "string"
            },
            {
              "internalType": "string",
              "name": "imageURI",
              "type": "string"
            },
            {
              "internalType": "uint256",
              "name": "hp",
              "type": "uint256"
            },
            {
              "internalType": "uint256",
              "name": "maxHp",
              "type": "uint256"
            },
            {
              "internalType": "uint256",
              "name": "attackDamage",
              "type": "uint256"
            },
            {
              "internalType": "uint256",
              "name": "defense",
              "type": "uint256"
            },
            {
              "internalType": "uint256",
              "name": "evade",
              "type": "uint256"
            }
          ],
          "internalType": "struct SnowDay.CharacterAttributes[]",
          "name": "",
          "type": "tuple[]"
        }
      ],
      "stateMutability": "view",
      "type": "function"
    },
    {
      "inputs": [
        {
          "internalType": "uint256",
          "name": "tokenId",
          "type": "uint256"
        }
      ],
      "name": "getApproved",
      "outputs": [
        {
          "internalType": "address",
          "name": "",
          "type": "address"
        }
      ],
      "stateMutability": "view",
      "type": "function"
    },
    {
      "inputs": [
        {
          "internalType": "uint256",
          "name": "_tokenId",
          "type": "uint256"
        }
      ],
      "name": "getCharacterHp",
      "outputs": [
        {
          "internalType": "uint256",
          "name": "",
          "type": "uint256"
        }
      ],
      "stateMutability": "view",
      "type": "function"
    },
    {
      "inputs": [
        {
          "internalType": "uint256",
          "name": "_tokenId",
          "type": "uint256"
        }
      ],
      "name": "getCharacterStats",
      "outputs": [
        {
          "components": [
            {
              "internalType": "uint256",
              "name": "characterIndex",
              "type": "uint256"
            },
            {
              "internalType": "string",
              "name": "name",
              "type": "string"
            },
            {
              "internalType": "string",
              "name": "imageURI",
              "type": "string"
            },
            {
              "internalType": "uint256",
              "name": "hp",
              "type": "uint256"
            },
            {
              "internalType": "uint256",
              "name": "maxHp",
              "type": "uint256"
            },
            {
              "internalType": "uint256",
              "name": "attackDamage",
              "type": "uint256"
            },
            {
              "internalType": "uint256",
              "name": "defense",
              "type": "uint256"
            },
            {
              "internalType": "uint256",
              "name": "evade",
              "type": "uint256"
            }
          ],
          "internalType": "struct SnowDay.CharacterAttributes",
          "name": "",
          "type": "tuple"
        }
      ],
      "stateMutability": "view",
      "type": "function"
    },
    {
      "inputs": [],
      "name": "getCurrentDay",
      "outputs": [
        {
          "internalType": "uint256",
          "name": "",
          "type": "uint256"
        }
      ],
      "stateMutability": "view",
      "type": "function"
    },
    {
      "inputs": [],
      "name": "getIsGameInProgress",
      "outputs": [
        {
          "internalType": "bool",
          "name": "",
          "type": "bool"
        }
      ],
      "stateMutability": "view",
      "type": "function"
    },
    {
      "inputs": [],
      "name": "getTimeLeftForCurrentGame",
      "outputs": [
        {
          "internalType": "uint256",
          "name": "",
          "type": "uint256"
        }
      ],
      "stateMutability": "view",
      "type": "function"
    },
    {
      "inputs": [],
      "name": "getYieldOnContract",
      "outputs": [
        {
          "internalType": "uint256",
          "name": "",
          "type": "uint256"
        }
      ],
      "stateMutability": "view",
      "type": "function"
    },
    {
      "inputs": [
        {
          "internalType": "address",
          "name": "owner",
          "type": "address"
        },
        {
          "internalType": "address",
          "name": "operator",
          "type": "address"
        }
      ],
      "name": "isApprovedForAll",
      "outputs": [
        {
          "internalType": "bool",
          "name": "",
          "type": "bool"
        }
      ],
      "stateMutability": "view",
      "type": "function"
    },
    {
      "inputs": [],
      "name": "isGamePaused",
      "outputs": [
        {
          "internalType": "bool",
          "name": "",
          "type": "bool"
        }
      ],
      "stateMutability": "view",
      "type": "function"
    },
    {
      "inputs": [],
      "name": "mintWindow",
      "outputs": [
        {
          "internalType": "uint256",
          "name": "",
          "type": "uint256"
        }
      ],
      "stateMutability": "view",
      "type": "function"
    },
    {
      "inputs": [],
      "name": "name",
      "outputs": [
        {
          "internalType": "string",
          "name": "",
          "type": "string"
        }
      ],
      "stateMutability": "view",
      "type": "function"
    },
    {
      "inputs": [],
      "name": "nextTokenId",
      "outputs": [
        {
          "internalType": "uint256",
          "name": "",
          "type": "uint256"
        }
      ],
      "stateMutability": "view",
      "type": "function"
    },
    {
      "inputs": [
        {
          "internalType": "uint256",
          "name": "",
          "type": "uint256"
        }
      ],
      "name": "nftHolderAttributes",
      "outputs": [
        {
          "internalType": "uint256",
          "name": "characterIndex",
          "type": "uint256"
        },
        {
          "internalType": "string",
          "name": "name",
          "type": "string"
        },
        {
          "internalType": "string",
          "name": "imageURI",
          "type": "string"
        },
        {
          "internalType": "uint256",
          "name": "hp",
          "type": "uint256"
        },
        {
          "internalType": "uint256",
          "name": "maxHp",
          "type": "uint256"
        },
        {
          "internalType": "uint256",
          "name": "attackDamage",
          "type": "uint256"
        },
        {
          "internalType": "uint256",
          "name": "defense",
          "type": "uint256"
        },
        {
          "internalType": "uint256",
          "name": "evade",
          "type": "uint256"
        }
      ],
      "stateMutability": "view",
      "type": "function"
    },
    {
      "inputs": [
        {
          "internalType": "address",
          "name": "",
          "type": "address"
        }
      ],
      "name": "nftHolders",
      "outputs": [
        {
          "internalType": "uint256",
          "name": "",
          "type": "uint256"
        }
      ],
      "stateMutability": "view",
      "type": "function"
    },
    {
      "inputs": [],
      "name": "owner",
      "outputs": [
        {
          "internalType": "address",
          "name": "",
          "type": "address"
        }
      ],
      "stateMutability": "view",
      "type": "function"
    },
    {
      "inputs": [
        {
          "internalType": "uint256",
          "name": "tokenId",
          "type": "uint256"
        }
      ],
      "name": "ownerOf",
      "outputs": [
        {
          "internalType": "address",
          "name": "",
          "type": "address"
        }
      ],
      "stateMutability": "view",
      "type": "function"
    },
    {
      "inputs": [],
      "name": "pauseGameToggle",
      "outputs": [],
      "stateMutability": "nonpayable",
      "type": "function"
    },
    {
      "inputs": [],
      "name": "priceOfNFTEscrow",
      "outputs": [
        {
          "internalType": "uint256",
          "name": "",
          "type": "uint256"
        }
      ],
      "stateMutability": "view",
      "type": "function"
    },
    {
      "inputs": [],
      "name": "randomInRange",
      "outputs": [
        {
          "internalType": "uint256",
          "name": "",
          "type": "uint256"
        }
      ],
      "stateMutability": "view",
      "type": "function"
    },
    {
      "inputs": [],
      "name": "renounceOwnership",
      "outputs": [],
      "stateMutability": "nonpayable",
      "type": "function"
    },
    {
      "inputs": [
        {
          "internalType": "address",
          "name": "from",
          "type": "address"
        },
        {
          "internalType": "address",
          "name": "to",
          "type": "address"
        },
        {
          "internalType": "uint256",
          "name": "tokenId",
          "type": "uint256"
        }
      ],
      "name": "safeTransferFrom",
      "outputs": [],
      "stateMutability": "nonpayable",
      "type": "function"
    },
    {
      "inputs": [
        {
          "internalType": "address",
          "name": "from",
          "type": "address"
        },
        {
          "internalType": "address",
          "name": "to",
          "type": "address"
        },
        {
          "internalType": "uint256",
          "name": "tokenId",
          "type": "uint256"
        },
        {
          "internalType": "bytes",
          "name": "data",
          "type": "bytes"
        }
      ],
      "name": "safeTransferFrom",
      "outputs": [],
      "stateMutability": "nonpayable",
      "type": "function"
    },
    {
      "inputs": [
        {
          "internalType": "address",
          "name": "operator",
          "type": "address"
        },
        {
          "internalType": "bool",
          "name": "approved",
          "type": "bool"
        }
      ],
      "name": "setApprovalForAll",
      "outputs": [],
      "stateMutability": "nonpayable",
      "type": "function"
    },
    {
      "inputs": [
        {
          "internalType": "address",
          "name": "_airnode",
          "type": "address"
        },
        {
          "internalType": "bytes32",
          "name": "_endpointIdUint256",
          "type": "bytes32"
        },
        {
          "internalType": "address",
          "name": "_sponsorWallet",
          "type": "address"
        }
      ],
      "name": "setRequestParameters",
      "outputs": [],
      "stateMutability": "nonpayable",
      "type": "function"
    },
    {
      "inputs": [],
      "name": "sponsorWallet",
      "outputs": [
        {
          "internalType": "address",
          "name": "",
          "type": "address"
        }
      ],
      "stateMutability": "view",
      "type": "function"
    },
    {
      "inputs": [],
      "name": "startGame",
      "outputs": [],
      "stateMutability": "nonpayable",
      "type": "function"
    },
    {
      "inputs": [],
      "name": "startTime",
      "outputs": [
        {
          "internalType": "uint256",
          "name": "",
          "type": "uint256"
        }
      ],
      "stateMutability": "view",
      "type": "function"
    },
    {
      "inputs": [
        {
          "internalType": "bytes4",
          "name": "interfaceId",
          "type": "bytes4"
        }
      ],
      "name": "supportsInterface",
      "outputs": [
        {
          "internalType": "bool",
          "name": "",
          "type": "bool"
        }
      ],
      "stateMutability": "view",
      "type": "function"
    },
    {
      "inputs": [],
      "name": "symbol",
      "outputs": [
        {
          "internalType": "string",
          "name": "",
          "type": "string"
        }
      ],
      "stateMutability": "view",
      "type": "function"
    },
    {
      "inputs": [
        {
          "internalType": "address",
          "name": "_victim",
          "type": "address"
        }
      ],
      "name": "throwSnowball",
      "outputs": [],
      "stateMutability": "nonpayable",
      "type": "function"
    },
    {
      "inputs": [
        {
          "internalType": "uint256",
          "name": "_tokenId",
          "type": "uint256"
        }
      ],
      "name": "tokenURI",
      "outputs": [
        {
          "internalType": "string",
          "name": "",
          "type": "string"
        }
      ],
      "stateMutability": "view",
      "type": "function"
    },
    {
      "inputs": [],
      "name": "totalNFTsLeft",
      "outputs": [
        {
          "internalType": "uint256",
          "name": "",
          "type": "uint256"
        }
      ],
      "stateMutability": "view",
      "type": "function"
    },
    {
      "inputs": [
        {
          "internalType": "address",
          "name": "from",
          "type": "address"
        },
        {
          "internalType": "address",
          "name": "to",
          "type": "address"
        },
        {
          "internalType": "uint256",
          "name": "tokenId",
          "type": "uint256"
        }
      ],
      "name": "transferFrom",
      "outputs": [],
      "stateMutability": "nonpayable",
      "type": "function"
    },
    {
      "inputs": [
        {
          "internalType": "address",
          "name": "newOwner",
          "type": "address"
        }
      ],
      "name": "transferOwnership",
      "outputs": [],
      "stateMutability": "nonpayable",
      "type": "function"
    },
    {
      "inputs": [
        {
          "internalType": "uint256",
          "name": "_characterIndex",
          "type": "uint256"
        },
        {
          "internalType": "uint256",
          "name": "_newAttack",
          "type": "uint256"
        }
      ],
      "name": "updateCharacterAttack",
      "outputs": [],
      "stateMutability": "nonpayable",
      "type": "function"
    },
    {
      "inputs": [
        {
          "internalType": "uint256",
          "name": "_characterIndex",
          "type": "uint256"
        },
        {
          "internalType": "uint256",
          "name": "_newDefense",
          "type": "uint256"
        }
      ],
      "name": "updateCharacterDefense",
      "outputs": [],
      "stateMutability": "nonpayable",
      "type": "function"
    },
    {
      "inputs": [
        {
          "internalType": "uint256",
          "name": "_characterIndex",
          "type": "uint256"
        },
        {
          "internalType": "uint256",
          "name": "_newEvade",
          "type": "uint256"
        }
      ],
      "name": "updateCharacterEvade",
      "outputs": [],
      "stateMutability": "nonpayable",
      "type": "function"
    },
    {
      "inputs": [
        {
          "internalType": "uint256",
          "name": "_characterIndex",
          "type": "uint256"
        },
        {
          "internalType": "uint256",
          "name": "_newHp",
          "type": "uint256"
        }
      ],
      "name": "updateCharacterHp",
      "outputs": [],
      "stateMutability": "nonpayable",
      "type": "function"
    },
    {
      "inputs": [
        {
          "internalType": "uint256",
          "name": "_characterIndex",
          "type": "uint256"
        },
        {
          "internalType": "string",
          "name": "_newImageURI",
          "type": "string"
        }
      ],
      "name": "updateCharacterImageURI",
      "outputs": [],
      "stateMutability": "nonpayable",
      "type": "function"
    },
    {
      "inputs": [
        {
          "internalType": "uint256",
          "name": "_characterIndex",
          "type": "uint256"
        },
        {
          "internalType": "string",
          "name": "_newName",
          "type": "string"
        }
      ],
      "name": "updateCharacterName",
      "outputs": [],
      "stateMutability": "nonpayable",
      "type": "function"
    },
    {
      "inputs": [],
      "name": "winners",
      "outputs": [
        {
          "internalType": "uint256",
          "name": "",
          "type": "uint256"
        }
      ],
      "stateMutability": "view",
      "type": "function"
    },
    {
      "inputs": [],
      "name": "withdrawContractFunds",
      "outputs": [],
      "stateMutability": "nonpayable",
      "type": "function"
    },
    {
      "inputs": [],
      "name": "withdrawSponsorWalletFunds",
      "outputs": [],
      "stateMutability": "nonpayable",
      "type": "function"
    },
    {
      "inputs": [],
      "name": "yieldCollected",
      "outputs": [
        {
          "internalType": "uint256",
          "name": "",
          "type": "uint256"
        }
      ],
      "stateMutability": "view",
      "type": "function"
    },
    {
      "stateMutability": "payable",
      "type": "receive"
    }
  ],
  "bytecode": "0x60a06040526001600755600b805461ffff1916905566b1a2bc2ec50000600f553480156200002c57600080fd5b5060405162004c4c38038062004c4c8339810160408190526200004f9162000652565b85858585858560405180604001604052806007815260200166536e6f7764617960c81b81525060405180604001604052806004815260200163534e4f5760e01b8152508e806001600160a01b03166080816001600160a01b031681525050806001600160a01b031663addf027c3060016040518363ffffffff1660e01b8152600401620000f39291906001600160a01b039290921682521515602082015260400190565b600060405180830381600087803b1580156200010e57600080fd5b505af115801562000123573d6000803e3d6000fd5b50505050508160009081620001399190620007fd565b506001620001488282620007fd565b505050620001656200015f620003f260201b60201c565b620003f6565b60005b86518110156200030c57600c6040518061010001604052808381526020018984815181106200019b576200019b620008c9565b60200260200101518152602001888481518110620001bd57620001bd620008c9565b60200260200101518152602001878481518110620001df57620001df620008c9565b60200260200101518152602001878481518110620002015762000201620008c9565b60200260200101518152602001868481518110620002235762000223620008c9565b60200260200101518152602001858481518110620002455762000245620008c9565b60200260200101518152602001848481518110620002675762000267620008c9565b6020908102919091018101519091528254600181810185556000948552938290208351600890920201908155908201519192909190820190620002ab9082620007fd565b5060408201516002820190620002c29082620007fd565b50606082015160038201556080820151600482015560a0820151600582015560c0820151600682015560e09091015160079091015562000304600182620008df565b905062000168565b505050505050507343000000000000000000000000000000000000026001600160a01b031663f098767a6040518163ffffffff1660e01b8152600401600060405180830381600087803b1580156200036357600080fd5b505af115801562000378573d6000803e3d6000fd5b505050507343000000000000000000000000000000000000026001600160a01b0316634e606c476040518163ffffffff1660e01b8152600401600060405180830381600087803b158015620003cc57600080fd5b505af1158015620003e1573d6000803e3d6000fd5b505050505050505050505062000907565b3390565b600680546001600160a01b038381166001600160a01b0319831681179093556040519116919082907f8be0079c531659141344cd1fd0a4f28419497f9722a3daafe3b4186f6b6457e090600090a35050565b80516001600160a01b03811681146200046057600080fd5b919050565b634e487b7160e01b600052604160045260246000fd5b604051601f8201601f191681016001600160401b0381118282101715620004a657620004a662000465565b604052919050565b60006001600160401b03821115620004ca57620004ca62000465565b5060051b60200190565b6000601f8381840112620004e757600080fd5b8251602062000500620004fa83620004ae565b6200047b565b82815260059290921b850181019181810190878411156200052057600080fd5b8287015b84811015620005d95780516001600160401b0380821115620005465760008081fd5b818a0191508a603f8301126200055c5760008081fd5b858201518181111562000573576200057362000465565b62000586818a01601f191688016200047b565b915080825260408c81838601011115620005a05760008081fd5b60005b82811015620005c0578481018201518482018a01528801620005a3565b5050600090820187015284525091830191830162000524565b50979650505050505050565b600082601f830112620005f757600080fd5b815160206200060a620004fa83620004ae565b82815260059290921b840181019181810190868411156200062a57600080fd5b8286015b848110156200064757805183529183019183016200062e565b509695505050505050565b600080600080600080600060e0888a0312156200066e57600080fd5b620006798862000448565b60208901519097506001600160401b03808211156200069757600080fd5b620006a58b838c01620004d4565b975060408a0151915080821115620006bc57600080fd5b620006ca8b838c01620004d4565b965060608a0151915080821115620006e157600080fd5b620006ef8b838c01620005e5565b955060808a01519150808211156200070657600080fd5b620007148b838c01620005e5565b945060a08a01519150808211156200072b57600080fd5b620007398b838c01620005e5565b935060c08a01519150808211156200075057600080fd5b506200075f8a828b01620005e5565b91505092959891949750929550565b600181811c908216806200078357607f821691505b602082108103620007a457634e487b7160e01b600052602260045260246000fd5b50919050565b601f821115620007f857600081815260208120601f850160051c81016020861015620007d35750805b601f850160051c820191505b81811015620007f457828155600101620007df565b5050505b505050565b81516001600160401b0381111562000819576200081962000465565b62000831816200082a84546200076e565b84620007aa565b602080601f831160018114620008695760008415620008505750858301515b600019600386901b1c1916600185901b178555620007f4565b600085815260208120601f198616915b828110156200089a5788860151825594840194600190910190840162000879565b5085821015620008b95787850151600019600388901b60f8161c191681555b5050505050600190811b01905550565b634e487b7160e01b600052603260045260246000fd5b808201808211156200090157634e487b7160e01b600052601160045260246000fd5b92915050565b60805161431462000938600039600081816107b40152818161107c015281816118170152612ec101526143146000f3fe6080604052600436106103fe5760003560e01c80637db9b5cf11610213578063b36303fe11610123578063cdb489b0116100ab578063e985e9c51161007a578063e985e9c514610ba5578063ed306eda14610bc5578063ee0702ac14610bda578063f2fde38b14610bfa578063f83dd6ae14610c1a57600080fd5b8063cdb489b014610b3b578063d65ab5f214610b5b578063d8850e1714610b70578063e5b401c214610b9057600080fd5b8063bf90fb4e116100f2578063bf90fb4e14610ab2578063c15bc73214610ad2578063c6725aea14610aef578063c87b56dd14610b06578063cb00886214610b2657600080fd5b8063b36303fe146106de578063b88d4fde14610a50578063b953084e14610a70578063baabd04614610a9257600080fd5b80639868f01e116101a6578063a22cb46511610175578063a22cb465146109c5578063a36ff4d8146109e5578063a487bcd814610a05578063aa02b37714610a1b578063ab4aaff814610a3057600080fd5b80639868f01e146109525780639890ecd91461096857806398da4c951461097b5780639ce93edf146109af57600080fd5b8063875eee29116101e2578063875eee29146108d45780638da5cb5b1461090457806395d89b411461092257806397d757761461093757600080fd5b80637db9b5cf146108425780637df124a1146108575780638397671d14610884578063851244f7146108a457600080fd5b80634fc446671161030e5780636fc954ad116102a157806371bab6661161027057806371bab666146107a257806375794a3c146107d657806375bfffa4146107ec57806378e979251461080c5780637bdf25251461082257600080fd5b80636fc954ad146107085780636fe0c0461461074057806370a082311461076d578063715018a61461078d57600080fd5b80636352211e116102dd5780636352211e1461069e578063669c73f9146106be5780636b10fe63146106de5780636cbc2ded146106f357600080fd5b80634fc446671461061a5780635a0b5404146106525780635ca27577146106685780635fc9a6ff1461068857600080fd5b80631cdda0ef116103915780633197cbb6116103605780633197cbb6146105905780633718d90a146105a65780633e6968b6146105c65780633fb64e75146105db57806342842e0e146105fa57600080fd5b80631cdda0ef1461052e578063210094231461054457806322ae81af1461055957806323b872dd1461057057600080fd5b8063081812fc116103cd578063081812fc1461049f578063095ea7b3146104d75780631929829a146104f95780631b5801321461051957600080fd5b806301ffc9a71461040a5780630422ddf31461043f57806306fdde031461045957806307b9fc571461047b57600080fd5b3661040557005b600080fd5b34801561041657600080fd5b5061042a61042536600461370e565b610c2f565b60405190151581526020015b60405180910390f35b34801561044b57600080fd5b50600b5461042a9060ff1681565b34801561046557600080fd5b5061046e610c81565b604051610436919061377b565b34801561048757600080fd5b5061049160115481565b604051908152602001610436565b3480156104ab57600080fd5b506104bf6104ba36600461378e565b610d13565b6040516001600160a01b039091168152602001610436565b3480156104e357600080fd5b506104f76104f23660046137be565b610d3a565b005b34801561050557600080fd5b506104f7610514366004613894565b610e54565b34801561052557600080fd5b506104f7610f5e565b34801561053a57600080fd5b5061049160135481565b34801561055057600080fd5b506104f7610fd8565b34801561056557600080fd5b506104916202a30081565b34801561057c57600080fd5b506104f761058b36600461391b565b611040565b34801561059c57600080fd5b50610491600a5481565b3480156105b257600080fd5b506104f76105c1366004613957565b611071565b3480156105d257600080fd5b506104916111e5565b3480156105e757600080fd5b50600b5461042a90610100900460ff1681565b34801561060657600080fd5b506104f761061536600461391b565b6111f9565b34801561062657600080fd5b506104916106353660046137be565b601960209081526000928352604080842090915290825290205481565b34801561065e57600080fd5b5061049160165481565b34801561067457600080fd5b506104f76106833660046139d3565b611214565b34801561069457600080fd5b5061049160145481565b3480156106aa57600080fd5b506104bf6106b936600461378e565b611249565b3480156106ca57600080fd5b506104f76106d93660046139f5565b6112a9565b3480156106ea57600080fd5b50610491600381565b3480156106ff57600080fd5b506104f76112e2565b34801561071457600080fd5b506104916107233660046139d3565b601a60209081526000928352604080842090915290825290205481565b34801561074c57600080fd5b5061076061075b36600461378e565b611398565b6040516104369190613ab5565b34801561077957600080fd5b50610491610788366004613ac8565b611526565b34801561079957600080fd5b506104f76115ac565b3480156107ae57600080fd5b506104bf7f000000000000000000000000000000000000000000000000000000000000000081565b3480156107e257600080fd5b5061049160075481565b3480156107f857600080fd5b50610760610807366004613ac8565b6115be565b34801561081857600080fd5b5061049160085481565b34801561082e57600080fd5b506104f761083d366004613ae3565b6117ae565b34801561084e57600080fd5b506104f76117ea565b34801561086357600080fd5b50610491610872366004613ac8565b600e6020526000908152604090205481565b34801561089057600080fd5b506104f761089f3660046139d3565b611877565b3480156108b057600080fd5b5061042a6108bf36600461378e565b60176020526000908152604090205460ff1681565b3480156108e057600080fd5b506104916108ef36600461378e565b6000908152600d602052604090206003015490565b34801561091057600080fd5b506006546001600160a01b03166104bf565b34801561092e57600080fd5b5061046e6118ac565b34801561094357600080fd5b506104bf6002604360981b0181565b34801561095e57600080fd5b50610491600f5481565b6104f761097636600461378e565b6118bb565b34801561098757600080fd5b5061099b61099636600461378e565b61199b565b604051610436989796959493929190613b1f565b3480156109bb57600080fd5b5061049160095481565b3480156109d157600080fd5b506104f76109e0366004613b79565b611aec565b3480156109f157600080fd5b506010546104bf906001600160a01b031681565b348015610a1157600080fd5b5061049160155481565b348015610a2757600080fd5b50610491611afb565b348015610a3c57600080fd5b506104f7610a4b3660046139f5565b611b66565b348015610a5c57600080fd5b506104f7610a6b366004613bb5565b611b9f565b348015610a7c57600080fd5b50610a85611bd1565b6040516104369190613c31565b348015610a9e57600080fd5b506104f7610aad366004613ac8565b611d91565b348015610abe57600080fd5b506012546104bf906001600160a01b031681565b348015610ade57600080fd5b50600b54610100900460ff1661042a565b348015610afb57600080fd5b5061049162093a8081565b348015610b1257600080fd5b5061046e610b2136600461378e565b611edb565b348015610b3257600080fd5b506104f7612112565b348015610b4757600080fd5b506104f7610b563660046139d3565b612208565b348015610b6757600080fd5b506104f761223d565b348015610b7c57600080fd5b506104f7610b8b3660046139d3565b612284565b348015610b9c57600080fd5b50610491603281565b348015610bb157600080fd5b5061042a610bc0366004613c93565b6122b9565b348015610bd157600080fd5b506104916122e7565b348015610be657600080fd5b5061042a610bf5366004613ac8565b612307565b348015610c0657600080fd5b506104f7610c15366004613ac8565b61232e565b348015610c2657600080fd5b506104f76123a4565b60006001600160e01b031982166380ac58cd60e01b1480610c6057506001600160e01b03198216635b5e139f60e01b145b80610c7b57506301ffc9a760e01b6001600160e01b03198316145b92915050565b606060008054610c9090613cc6565b80601f0160208091040260200160405190810160405280929190818152602001828054610cbc90613cc6565b8015610d095780601f10610cde57610100808354040283529160200191610d09565b820191906000526020600020905b815481529060010190602001808311610cec57829003601f168201915b5050505050905090565b6000610d1e826123c0565b506000908152600460205260409020546001600160a01b031690565b6000610d4582611249565b9050806001600160a01b0316836001600160a01b031603610db75760405162461bcd60e51b815260206004820152602160248201527f4552433732313a20617070726f76616c20746f2063757272656e74206f776e656044820152603960f91b60648201526084015b60405180910390fd5b336001600160a01b0382161480610dd35750610dd381336122b9565b610e455760405162461bcd60e51b815260206004820152603d60248201527f4552433732313a20617070726f76652063616c6c6572206973206e6f7420746f60448201527f6b656e206f776e6572206f7220617070726f76656420666f7220616c6c0000006064820152608401610dae565b610e4f838361241f565b505050565b610e5c61248d565b6040805161010081018252600c8054808352602083018a8152938301899052606083018890526080830188905260a0830187905260c0830186905260e08301859052600181018255600091909152815160089091027fdf6966c971051c3d54ec59162606531493a51404a002842f56009d7e5cf4a8c781019182559251919290917fdf6966c971051c3d54ec59162606531493a51404a002842f56009d7e5cf4a8c890910190610f0c9082613d48565b5060408201516002820190610f219082613d48565b50606082015181600301556080820151816004015560a0820151816005015560c0820151816006015560e082015181600701555050505050505050565b610f6661248d565b604051634aa7d2f760e11b81523060048201523360248201526002604360981b019063954fa5ee906044015b6020604051808303816000875af1158015610fb1573d6000803e3d6000fd5b505050506040513d601f19601f82011682018060405250810190610fd59190613e08565b50565b604051600090339047908381818185875af1925050503d806000811461101a576040519150601f19603f3d011682016040523d82523d6000602084013e61101f565b606091505b5050905080610fd55760405162461bcd60e51b8152600401610dae90613e21565b61104a33826124e7565b6110665760405162461bcd60e51b8152600401610dae90613e4b565b610e4f838383612545565b336001600160a01b037f000000000000000000000000000000000000000000000000000000000000000016146110e25760405162461bcd60e51b8152602060048201526016602482015275043616c6c6572206e6f74204169726e6f6465205252560541b6044820152606401610dae565b60008381526017602052604090205460ff166111375760405162461bcd60e51b81526020600482015260146024820152732932b8bab2b9ba1024a2103737ba1035b737bbb760611b6044820152606401610dae565b6000838152601760205260408120805460ff191690556111598284018461378e565b9050611166606482613eae565b611171906001613ed8565b6013819055600085815260186020526040902080546001909101546111a5926001600160a01b0392831692909116906126a9565b837f1ca47bacd454c26163f84eff4aa514e291ba9fa67ad6029e39567c122bbed30f826040516111d791815260200190565b60405180910390a250505050565b60006111f46201518042613f01565b905090565b610e4f83838360405180602001604052806000815250611b9f565b61121c61248d565b80600c838154811061123057611230613eeb565b9060005260206000209060080201600601819055505050565b6000818152600260205260408120546001600160a01b031680610c7b5760405162461bcd60e51b8152602060048201526018602482015277115490cdcc8c4e881a5b9d985b1a59081d1bdad95b88125160421b6044820152606401610dae565b6112b161248d565b80600c83815481106112c5576112c5613eeb565b90600052602060002090600802016001019081610e4f9190613d48565b600b54610100900460ff16151560000361130f57604051637698ab5760e01b815260040160405180910390fd5b61131f600b805461ff0019169055565b601454601555604051631d864f1d60e31b81523060048201526002604360981b019063ec3278e890602401602060405180830381865afa158015611367573d6000803e3d6000fd5b505050506040513d601f19601f8201168201806040525081019061138b9190613e08565b601655611396612912565b565b6113a0613646565b600d600083815260200190815260200160002060405180610100016040529081600082015481526020016001820180546113d990613cc6565b80601f016020809104026020016040519081016040528092919081815260200182805461140590613cc6565b80156114525780601f1061142757610100808354040283529160200191611452565b820191906000526020600020905b81548152906001019060200180831161143557829003601f168201915b5050505050815260200160028201805461146b90613cc6565b80601f016020809104026020016040519081016040528092919081815260200182805461149790613cc6565b80156114e45780601f106114b9576101008083540402835291602001916114e4565b820191906000526020600020905b8154815290600101906020018083116114c757829003601f168201915b50505050508152602001600382015481526020016004820154815260200160058201548152602001600682015481526020016007820154815250509050919050565b60006001600160a01b0382166115905760405162461bcd60e51b815260206004820152602960248201527f4552433732313a2061646472657373207a65726f206973206e6f7420612076616044820152683634b21037bbb732b960b91b6064820152608401610dae565b506001600160a01b031660009081526003602052604090205490565b6115b461248d565b6113966000612943565b6115c6613646565b6001600160a01b0382166000908152600e602052604090205480156117995760006115f082611249565b90506001600160a01b0381161561178957600d6000838152602001908152602001600020604051806101000160405290816000820154815260200160018201805461163a90613cc6565b80601f016020809104026020016040519081016040528092919081815260200182805461166690613cc6565b80156116b35780601f10611688576101008083540402835291602001916116b3565b820191906000526020600020905b81548152906001019060200180831161169657829003601f168201915b505050505081526020016002820180546116cc90613cc6565b80601f01602080910402602001604051908101604052809291908181526020018280546116f890613cc6565b80156117455780601f1061171a57610100808354040283529160200191611745565b820191906000526020600020905b81548152906001019060200180831161172857829003601f168201915b505050505081526020016003820154815260200160048201548152602001600582015481526020016006820154815260200160078201548152505092505050919050565b611791613646565b949350505050565b6117a1613646565b9392505050565b50919050565b6117b661248d565b601080546001600160a01b039485166001600160a01b03199182161790915560119290925560128054919093169116179055565b601054601254604051631d414cbd60e01b81526001600160a01b03928316600482015290821660248201527f000000000000000000000000000000000000000000000000000000000000000090911690631d414cbd90604401600060405180830381600087803b15801561185d57600080fd5b505af1158015611871573d6000803e3d6000fd5b50505050565b61187f61248d565b80600c838154811061189357611893613eeb565b9060005260206000209060080201600701819055505050565b606060018054610c9090613cc6565b600b54610100900460ff1615156000036118e857604051637698ab5760e01b815260040160405180910390fd5b60095442111561190b576040516303f5b16960e31b815260040160405180910390fd5b600b5460ff161561192f576040516313d0ff5960e31b815260040160405180910390fd5b600f5434101561195257604051635a6f835360e01b815260040160405180910390fd5b600061195d33611526565b111561197c57604051637c1a195560e01b815260040160405180910390fd5b61198581612995565b60146000815461199490613f15565b9091555050565b600d60205260009081526040902080546001820180549192916119bd90613cc6565b80601f01602080910402602001604051908101604052809291908181526020018280546119e990613cc6565b8015611a365780601f10611a0b57610100808354040283529160200191611a36565b820191906000526020600020905b815481529060010190602001808311611a1957829003601f168201915b505050505090806002018054611a4b90613cc6565b80601f0160208091040260200160405190810160405280929190818152602001828054611a7790613cc6565b8015611ac45780601f10611a9957610100808354040283529160200191611ac4565b820191906000526020600020905b815481529060010190602001808311611aa757829003601f168201915b5050505050908060030154908060040154908060050154908060060154908060070154905088565b611af7338383612d5d565b5050565b604051631d864f1d60e31b815230600482015260009081906002604360981b019063ec3278e890602401602060405180830381865afa158015611b42573d6000803e3d6000fd5b505050506040513d601f19601f82011682018060405250810190610c7b9190613e08565b611b6e61248d565b80600c8381548110611b8257611b82613eeb565b90600052602060002090600802016002019081610e4f9190613d48565b611ba933836124e7565b611bc55760405162461bcd60e51b8152600401610dae90613e4b565b61187184848484612e2b565b6060600c805480602002602001604051908101604052809291908181526020016000905b82821015611d8857838290600052602060002090600802016040518061010001604052908160008201548152602001600182018054611c3390613cc6565b80601f0160208091040260200160405190810160405280929190818152602001828054611c5f90613cc6565b8015611cac5780601f10611c8157610100808354040283529160200191611cac565b820191906000526020600020905b815481529060010190602001808311611c8f57829003601f168201915b50505050508152602001600282018054611cc590613cc6565b80601f0160208091040260200160405190810160405280929190818152602001828054611cf190613cc6565b8015611d3e5780601f10611d1357610100808354040283529160200191611d3e565b820191906000526020600020905b815481529060010190602001808311611d2157829003601f168201915b505050505081526020016003820154815260200160048201548152602001600582015481526020016006820154815260200160078201548152505081526020019060010190611bf5565b50505050905090565b600b54610100900460ff161515600003611dbe57604051637698ab5760e01b815260040160405180910390fd5b600b5460ff1615611de2576040516313d0ff5960e31b815260040160405180910390fd5b600a54421115611e0557604051631f62703960e11b815260040160405180910390fd5b611e0e33611526565b600003611e2e576040516354abb27f60e01b815260040160405180910390fd5b611e3781611526565b600003611e57576040516313eb680960e01b815260040160405180910390fd5b336000908152600e602052604081205490611e706111e5565b6001600160a01b03841660009081526019602090815260408083208484529091528120805492935090611ea283613f15565b90915550506000828152601a602090815260408083208484529091528120805491611ecc83613f15565b9190505550610e4f8333612e5e565b6000818152600d6020908152604080832081516101008101909252805482526001810180546060959484019190611f1190613cc6565b80601f0160208091040260200160405190810160405280929190818152602001828054611f3d90613cc6565b8015611f8a5780601f10611f5f57610100808354040283529160200191611f8a565b820191906000526020600020905b815481529060010190602001808311611f6d57829003601f168201915b50505050508152602001600282018054611fa390613cc6565b80601f0160208091040260200160405190810160405280929190818152602001828054611fcf90613cc6565b801561201c5780601f10611ff15761010080835404028352916020019161201c565b820191906000526020600020905b815481529060010190602001808311611fff57829003601f168201915b5050505050815260200160038201548152602001600482015481526020016005820154815260200160068201548152602001600782015481525050905060006120688260600151612fb0565b905060006120798360800151612fb0565b9050600061208a8460a00151612fb0565b9050600061209b8560c00151612fb0565b905060006120e386602001516120b08a612fb0565b8860400151888888886040516020016120cf9796959493929190613f4a565b604051602081830303815290604052613043565b9050806040516020016120f69190614127565b6040516020818303038152906040529650505050505050919050565b600b54610100900460ff16151560010361213f576040516325a1009960e21b815260040160405180910390fd5b61214833611526565b600003612168576040516354abb27f60e01b815260040160405180910390fd5b336000908152600e6020526040902054612181906131ad565b600061218b613242565b90506000600f548261219d9190613ed8565b604051909150600090339083908381818185875af1925050503d80600081146121e2576040519150601f19603f3d011682016040523d82523d6000602084013e6121e7565b606091505b5050905080610e4f5760405162461bcd60e51b8152600401610dae90613e21565b61221061248d565b80600c838154811061222457612224613eeb565b9060005260206000209060080201600501819055505050565b61224561248d565b600b54610100900460ff161515600103612272576040516354409d4960e11b815260040160405180910390fd5b60006015819055601655611396613279565b61228c61248d565b80600c83815481106122a0576122a0613eeb565b9060005260206000209060080201600401819055505050565b6001600160a01b03918216600090815260056020908152604080832093909416825291909152205460ff1690565b6000600a544210156123015742600a546111f4919061416c565b50600090565b60008061231383611526565b111561232157506001919050565b506000919050565b919050565b61233661248d565b6001600160a01b03811661239b5760405162461bcd60e51b815260206004820152602660248201527f4f776e61626c653a206e6577206f776e657220697320746865207a65726f206160448201526564647265737360d01b6064820152608401610dae565b610fd581612943565b6123ac61248d565b600b805460ff19811660ff90911615179055565b6000818152600260205260409020546001600160a01b0316610fd55760405162461bcd60e51b8152602060048201526018602482015277115490cdcc8c4e881a5b9d985b1a59081d1bdad95b88125160421b6044820152606401610dae565b600081815260046020526040902080546001600160a01b0319166001600160a01b038416908117909155819061245482611249565b6001600160a01b03167f8c5be1e5ebec7d5bd14f71427d1e84f3dd0314c0f7b2291e5b200ac8c7c3b92560405160405180910390a45050565b6006546001600160a01b031633146113965760405162461bcd60e51b815260206004820181905260248201527f4f776e61626c653a2063616c6c6572206973206e6f7420746865206f776e65726044820152606401610dae565b6000806124f383611249565b9050806001600160a01b0316846001600160a01b0316148061251a575061251a81856122b9565b806117915750836001600160a01b031661253384610d13565b6001600160a01b031614949350505050565b826001600160a01b031661255882611249565b6001600160a01b03161461257e5760405162461bcd60e51b8152600401610dae9061417f565b6001600160a01b0382166125e05760405162461bcd60e51b8152602060048201526024808201527f4552433732313a207472616e7366657220746f20746865207a65726f206164646044820152637265737360e01b6064820152608401610dae565b826001600160a01b03166125f382611249565b6001600160a01b0316146126195760405162461bcd60e51b8152600401610dae9061417f565b600081815260046020908152604080832080546001600160a01b03199081169091556001600160a01b0387811680865260038552838620805460001901905590871680865283862080546001019055868652600290945282852080549092168417909155905184937fddf252ad1be2c89b69c2b068fc378daa952ba7f163c4a11628f55a4df523b3ef91a4505050565b600b5460ff16156126cd576040516313d0ff5960e31b815260040160405180910390fd5b6126d683611526565b6000036126f6576040516313eb680960e01b815260040160405180910390fd5b6001600160a01b038083166000908152600e6020908152604080832054938716835280832054848452600d9092528083208284529220600781015491929161273f90603261416c565b85111561279257604080516001600160a01b038089168252891660208201527faafa4be7ba57bc03734289a43be057552a15f868d6e71495af22986da576dac0910160405180910390a150505050505050565b600081600601548360050154876127a99190613ed8565b6127b3919061416c565b9050816003015481111561289f576127ca846131ad565b604080516001600160a01b038a811682526020820187905289168183015290517f345dbdb55ee78a22d5de8124ef7d24a78314b38f44bc9d3cc50ab9f06e13f2f49181900360600190a1601460008154612823906141c4565b90915550600f546040516000916001600160a01b038b16918381818185875af1925050503d8060008114612873576040519150601f19603f3d011682016040523d82523d6000602084013e612878565b606091505b50509050806128995760405162461bcd60e51b8152600401610dae90613e21565b50612908565b8082600301546128af919061416c565b60038301819055604080516001600160a01b038a811682528b1660208201528082018490526060810192909252517fa3d731e36de965a3a18800c9550bff56511a732ecf82a444ca0b48712488460b9181900360800190a15b5050505050505050565b60405163430021db60e11b8152306004820181905260248201526002604360981b019063860043b690604401610f92565b600680546001600160a01b038381166001600160a01b0319831681179093556040519116919082907f8be0079c531659141344cd1fd0a4f28419497f9722a3daafe3b4186f6b6457e090600090a35050565b600b54610100900460ff1615156000036129c257604051637698ab5760e01b815260040160405180910390fd5b6009544211156129e5576040516303f5b16960e31b815260040160405180910390fd5b600b5460ff1615612a09576040516313d0ff5960e31b815260040160405180910390fd5b6000612a1433611526565b1115612a3357604051637c1a195560e01b815260040160405180910390fd5b612a3f336007546132e2565b604051806101000160405280828152602001600c8381548110612a6457612a64613eeb565b90600052602060002090600802016001018054612a8090613cc6565b80601f0160208091040260200160405190810160405280929190818152602001828054612aac90613cc6565b8015612af95780601f10612ace57610100808354040283529160200191612af9565b820191906000526020600020905b815481529060010190602001808311612adc57829003601f168201915b50505050508152602001600c8381548110612b1657612b16613eeb565b90600052602060002090600802016002018054612b3290613cc6565b80601f0160208091040260200160405190810160405280929190818152602001828054612b5e90613cc6565b8015612bab5780601f10612b8057610100808354040283529160200191612bab565b820191906000526020600020905b815481529060010190602001808311612b8e57829003601f168201915b50505050508152602001600c8381548110612bc857612bc8613eeb565b9060005260206000209060080201600301548152602001600c8381548110612bf257612bf2613eeb565b9060005260206000209060080201600301548152602001600c8381548110612c1c57612c1c613eeb565b9060005260206000209060080201600501548152602001600c8381548110612c4657612c46613eeb565b9060005260206000209060080201600601548152602001600c8381548110612c7057612c70613eeb565b600091825260208083206007600890930201820154909352548152600d82526040902082518155908201516001820190612caa9082613d48565b5060408201516002820190612cbf9082613d48565b50606082015160038201556080820151600482015560a0820151600582015560c0820151600682015560e0909101516007918201558054336000908152600e6020526040812082905590612d1290613f15565b9091555060075460408051338152602081019290925281018290527f4bc303fd457a97b4691b9af582ce71868a3d258638c8d4f8c60988a0f0bfb8cd9060600160405180910390a150565b816001600160a01b0316836001600160a01b031603612dbe5760405162461bcd60e51b815260206004820152601960248201527f4552433732313a20617070726f766520746f2063616c6c6572000000000000006044820152606401610dae565b6001600160a01b03838116600081815260056020908152604080832094871680845294825291829020805460ff191686151590811790915591519182527f17307eab39ab6107e8899845ad3d59bd9653f200f220920489ca2b5937696c31910160405180910390a3505050565b612e36848484612545565b612e428484848461346d565b6118715760405162461bcd60e51b8152600401610dae906141db565b601054601154601254604051636e6be03f60e01b81526001600160a01b0393841660048201526024810192909252306044830181905290831660648301526084820152631b8c6c8560e11b60a482015260e060c4820152600060e48201819052917f00000000000000000000000000000000000000000000000000000000000000001690636e6be03f90610104016020604051808303816000875af1158015612f0b573d6000803e3d6000fd5b505050506040513d601f19601f82011682018060405250810190612f2f9190613e08565b6000818152601760209081526040808320805460ff19166001179055805180820182526001600160a01b0380891682528716818401528484526018909252909120919250612f7f9190600261368b565b5060405181907ff039428b095c79c12e434981caacc36fbc90eede12232a5fdc82b0beeddf3c2090600090a2505050565b60606000612fbd8361356e565b600101905060008167ffffffffffffffff811115612fdd57612fdd6137e8565b6040519080825280601f01601f191660200182016040528015613007576020820181803683370190505b5090508181016020015b600019016f181899199a1a9b1b9c1cb0b131b232b360811b600a86061a8153600a850494508461301157509392505050565b80516060906000819003613067575050604080516020810190915260008152919050565b60006003613076836002613ed8565b6130809190613f01565b61308b90600461422d565b9050600061309a826020613ed8565b67ffffffffffffffff8111156130b2576130b26137e8565b6040519080825280601f01601f1916602001820160405280156130dc576020820181803683370190505b509050600060405180606001604052806040815260200161429f604091399050600181016020830160005b86811015613168576003818a01810151603f601282901c8116860151600c83901c8216870151600684901c831688015192909316870151600891821b60ff94851601821b92841692909201901b91160160e01b835260049092019101613107565b50600386066001811461318257600281146131935761319f565b613d3d60f01b60011983015261319f565b603d60f81b6000198301525b505050918152949350505050565b60006131b882611249565b90506131c382611249565b600083815260046020908152604080832080546001600160a01b03199081169091556001600160a01b0385168085526003845282852080546000190190558785526002909352818420805490911690555192935084927fddf252ad1be2c89b69c2b068fc378daa952ba7f163c4a11628f55a4df523b3ef908390a45050565b60165460009080820361325757600091505090565b6000601554826132679190613f01565b9050600060155482611791919061422d565b600b54610100900460ff1615156001036132a6576040516354409d4960e11b815260040160405180910390fd5b600b805461ff0019166101001790554260088190556132c9906202a30090613ed8565b6009556008546132dd9062093a8090613ed8565b600a55565b6001600160a01b0382166133385760405162461bcd60e51b815260206004820181905260248201527f4552433732313a206d696e7420746f20746865207a65726f20616464726573736044820152606401610dae565b6000818152600260205260409020546001600160a01b03161561339d5760405162461bcd60e51b815260206004820152601c60248201527f4552433732313a20746f6b656e20616c7265616479206d696e746564000000006044820152606401610dae565b6000818152600260205260409020546001600160a01b0316156134025760405162461bcd60e51b815260206004820152601c60248201527f4552433732313a20746f6b656e20616c7265616479206d696e746564000000006044820152606401610dae565b6001600160a01b038216600081815260036020908152604080832080546001019055848352600290915280822080546001600160a01b0319168417905551839291907fddf252ad1be2c89b69c2b068fc378daa952ba7f163c4a11628f55a4df523b3ef908290a45050565b60006001600160a01b0384163b1561356357604051630a85bd0160e11b81526001600160a01b0385169063150b7a02906134b1903390899088908890600401614244565b6020604051808303816000875af19250505080156134ec575060408051601f3d908101601f191682019092526134e991810190614281565b60015b613549573d80801561351a576040519150601f19603f3d011682016040523d82523d6000602084013e61351f565b606091505b5080516000036135415760405162461bcd60e51b8152600401610dae906141db565b805181602001fd5b6001600160e01b031916630a85bd0160e11b149050611791565b506001949350505050565b60008072184f03e93ff9f4daa797ed6e38ed64bf6a1f0160401b83106135ad5772184f03e93ff9f4daa797ed6e38ed64bf6a1f0160401b830492506040015b6d04ee2d6d415b85acef810000000083106135d9576d04ee2d6d415b85acef8100000000830492506020015b662386f26fc1000083106135f757662386f26fc10000830492506010015b6305f5e100831061360f576305f5e100830492506008015b612710831061362357612710830492506004015b60648310613635576064830492506002015b600a8310610c7b5760010192915050565b60405180610100016040528060008152602001606081526020016060815260200160008152602001600081526020016000815260200160008152602001600081525090565b82600281019282156136d3579160200282015b828111156136d357825182546001600160a01b0319166001600160a01b0390911617825560209092019160019091019061369e565b506136df9291506136e3565b5090565b5b808211156136df57600081556001016136e4565b6001600160e01b031981168114610fd557600080fd5b60006020828403121561372057600080fd5b81356117a1816136f8565b60005b8381101561374657818101518382015260200161372e565b50506000910152565b6000815180845261376781602086016020860161372b565b601f01601f19169290920160200192915050565b6020815260006117a1602083018461374f565b6000602082840312156137a057600080fd5b5035919050565b80356001600160a01b038116811461232957600080fd5b600080604083850312156137d157600080fd5b6137da836137a7565b946020939093013593505050565b634e487b7160e01b600052604160045260246000fd5b600067ffffffffffffffff80841115613819576138196137e8565b604051601f8501601f19908116603f01168101908282118183101715613841576138416137e8565b8160405280935085815286868601111561385a57600080fd5b858560208301376000602087830101525050509392505050565b600082601f83011261388557600080fd5b6117a1838335602085016137fe565b60008060008060008060c087890312156138ad57600080fd5b863567ffffffffffffffff808211156138c557600080fd5b6138d18a838b01613874565b975060208901359150808211156138e757600080fd5b506138f489828a01613874565b96999698505050506040850135946060810135946080820135945060a09091013592509050565b60008060006060848603121561393057600080fd5b613939846137a7565b9250613947602085016137a7565b9150604084013590509250925092565b60008060006040848603121561396c57600080fd5b83359250602084013567ffffffffffffffff8082111561398b57600080fd5b818601915086601f83011261399f57600080fd5b8135818111156139ae57600080fd5b8760208285010111156139c057600080fd5b6020830194508093505050509250925092565b600080604083850312156139e657600080fd5b50508035926020909101359150565b60008060408385031215613a0857600080fd5b82359150602083013567ffffffffffffffff811115613a2657600080fd5b613a3285828601613874565b9150509250929050565b6000610100825184526020830151816020860152613a5c8286018261374f565b91505060408301518482036040860152613a76828261374f565b915050606083015160608501526080830151608085015260a083015160a085015260c083015160c085015260e083015160e08501528091505092915050565b6020815260006117a16020830184613a3c565b600060208284031215613ada57600080fd5b6117a1826137a7565b600080600060608486031215613af857600080fd5b613b01846137a7565b925060208401359150613b16604085016137a7565b90509250925092565b60006101008a8352806020840152613b398184018b61374f565b90508281036040840152613b4d818a61374f565b60608401989098525050608081019490945260a084019290925260c083015260e0909101529392505050565b60008060408385031215613b8c57600080fd5b613b95836137a7565b915060208301358015158114613baa57600080fd5b809150509250929050565b60008060008060808587031215613bcb57600080fd5b613bd4856137a7565b9350613be2602086016137a7565b925060408501359150606085013567ffffffffffffffff811115613c0557600080fd5b8501601f81018713613c1657600080fd5b613c25878235602084016137fe565b91505092959194509250565b6000602080830181845280855180835260408601915060408160051b870101925083870160005b82811015613c8657603f19888603018452613c74858351613a3c565b94509285019290850190600101613c58565b5092979650505050505050565b60008060408385031215613ca657600080fd5b613caf836137a7565b9150613cbd602084016137a7565b90509250929050565b600181811c90821680613cda57607f821691505b6020821081036117a857634e487b7160e01b600052602260045260246000fd5b601f821115610e4f57600081815260208120601f850160051c81016020861015613d215750805b601f850160051c820191505b81811015613d4057828155600101613d2d565b505050505050565b815167ffffffffffffffff811115613d6257613d626137e8565b613d7681613d708454613cc6565b84613cfa565b602080601f831160018114613dab5760008415613d935750858301515b600019600386901b1c1916600185901b178555613d40565b600085815260208120601f198616915b82811015613dda57888601518255948401946001909101908401613dbb565b5085821015613df85787850151600019600388901b60f8161c191681555b5050505050600190811b01905550565b600060208284031215613e1a57600080fd5b5051919050565b60208082526010908201526f14185e5b595b9d081b9bdd081cd95b9d60821b604082015260600190565b6020808252602d908201527f4552433732313a2063616c6c6572206973206e6f7420746f6b656e206f776e6560408201526c1c881bdc88185c1c1c9bdd9959609a1b606082015260800190565b634e487b7160e01b600052601260045260246000fd5b600082613ebd57613ebd613e98565b500690565b634e487b7160e01b600052601160045260246000fd5b80820180821115610c7b57610c7b613ec2565b634e487b7160e01b600052603260045260246000fd5b600082613f1057613f10613e98565b500490565b600060018201613f2757613f27613ec2565b5060010190565b60008151613f4081856020860161372b565b9290920192915050565b693d913730b6b2911d101160b11b81528751600090613f7081600a850160208d0161372b565b6a01016969027232a10119d160ad1b600a918401918201528851613f9b816015840160208d0161372b565b7f222c20226465736372697074696f6e223a202254686520536e6f7762616c6c20601592909101918201527123b0b6b2909116101134b6b0b3b2911d101160711b60358201528751613ff4816047840160208c0161372b565b7f222c202261747472696275746573223a205b207b2274726169745f7479706522604792909101918201527f3a20224865616c746820506f696e7473222c202276616c7565223a2000000000606782015261411961410a6141046140cc6140c6614088614082614067608389018f613f2e565b6e016101136b0bc2fbb30b63ab2911d1608d1b8152600f0190565b8c613f2e565b7f7d2c207b2274726169745f74797065223a202241747461636b2044616d61676581526b0111610113b30b63ab2911d160a51b6020820152602c0190565b89613f2e565b7f7d2c207b2274726169745f74797065223a2022446566656e7365222c202276618152650363ab2911d160d51b602082015260260190565b86613f2e565b627d5d7d60e81b815260030190565b9a9950505050505050505050565b7f646174613a6170706c69636174696f6e2f6a736f6e3b6261736536342c00000081526000825161415f81601d85016020870161372b565b91909101601d0192915050565b81810381811115610c7b57610c7b613ec2565b60208082526025908201527f4552433732313a207472616e736665722066726f6d20696e636f72726563742060408201526437bbb732b960d91b606082015260800190565b6000816141d3576141d3613ec2565b506000190190565b60208082526032908201527f4552433732313a207472616e7366657220746f206e6f6e20455243373231526560408201527131b2b4bb32b91034b6b83632b6b2b73a32b960711b606082015260800190565b8082028115828204841417610c7b57610c7b613ec2565b6001600160a01b03858116825284166020820152604081018390526080606082018190526000906142779083018461374f565b9695505050505050565b60006020828403121561429357600080fd5b81516117a1816136f856fe4142434445464748494a4b4c4d4e4f505152535455565758595a6162636465666768696a6b6c6d6e6f707172737475767778797a303132333435363738392b2fa2646970667358221220de6ccf5f9fe0c06d83b0bbaa2e6c182fc60cab5c9131ddf7dd67cdaadab2e8de64736f6c63430008130033",
  "linkReferences": {},
  "deployedLinkReferences": {}
}